:020000040800F2
:10000000D0DC0020450100088D230008B11A00084B
:10001000A92000083D0E00084971000800000000FA
:10002000000000000000000000000000156700084C
:100030008B11000800000000370A00085D0100086D
:100040005F010008315A00085F0100085D61000887
:100050005F0100085F010008551600085F010008F5
:100060005F0100085F0100085F0100085F010008F0
:100070005F0100085F0100085F0100085F010008E0
:100080005F0100085F0100085F0100085F010008D0
:100090005F0100085F0100085F0100086F1600089B
:1000A0005F0100085F0100085F0100085F010008B0
:1000B0007D6900085F010008116A00085F010008FF
:1000C0005F0100085F0100085F0100085F01000890
:1000D0005F0100081D6D0008356E00085F01000813
:1000E0005F0100085F0100085F0100085F01000870
:1000F0005F0100085F0100085F0100085F01000860
:100100005F0100085F0100085F0100085F0100084F
:100110005F0100085F0100085F0100085F0100083F
:100120005F0100085F0100085F0100085F0100082F
:10013000DFF80CD000F0D6FB00480047B986000875
:10014000D0DC00200648804706480047FEE7FEE76F
:10015000FEE7FEE7FEE7FEE7FEE7FEE7FEE7FEE777
:100160002D6900083101000872B6704762B6704709
:10017000EFF3108072B6704780F31088704730BF7D
:10018000704720BF7047B0FA80F0704790FAA0F037
:10019000B0FA80F0704790FAA0F070472DE9F05F58
:1001A0000546002092469B468846064681464024E6
:1001B0001BE0284641464746224600F0AEFA534629
:1001C0005A46C01A914110D311461846224600F0F3
:1001D00095FA2D1A67EB01084F46224601200021AF
:1001E00000F08CFA17EB00094E41201EA4F1010427
:1001F000DFDC484631462A464346BDE8F09F000012
:100200000649074A0868504343F23902104408601F
:10021000400870470149086070470000EC03002067
:100220006D4EC64180EA010210B502F00043400065
:1002300022D04A001FD0010E01EB1261C0F356001C
:10024000C2F3560240F4000042F40002A0FB022078
:1002500000047F39140400D0401C50EA124001D43D
:100260004000491EC2B20C0604EBD010401C4008EE
:10027000802A02D003E0002010BD20F001000029F8
:1002800000DA0020184310BD2DE9FE4F804681EAB8
:100290000300C00F0C46009021F0004123F0004500
:1002A000B8EB0200A94105D24046214690461C46C3
:1002B0000B46024623F00040104347D0270DC7F3FA
:1002C0000A00C3F30A510290401A019040286BDAE9
:1002D000C3F3130040F4801B0098924620B1002322
:1002E000D2EB030A63EB0B0B01985946C0F14002B5
:1002F000504600F003FA06460D4650465946019A0C
:1003000000F01BFA10EB08006141002487EA11524B
:1003100084EAE7731A4340D0009A62B3019A012A33
:100320004FEA075215DC001B61EB02014FF000425F
:1003300002EA0752CDE90042001C41F58011324625
:100340002B4600F052FA03B0BDE8F08F404621463C
:10035000F9E7001B61EB0201001C41F58013001856
:100360005B412018A2F5001747EB030140EAD57066
:10037000B6196D4111E06D084FEA360645EAC075C1
:100380004FEA0752001B61EB0201001C41F580118E
:1003900049084FEA30000019514132462B4603B05C
:1003A000BDE8F04F00F012BA00980122400000238F
:1003B000D0EB020263EBE073009821464FEAE07451
:1003C000B8EB000061EB0401E9E783F000435BE771
:1003D00081F0004158E72DE9FE4F81EA030404F063
:1003E000004421F0004100944FF0000B23F0004343
:1003F00050EA01045ED052EA03045BD0C3F30A540E
:10040000C1F30A552C44A4F2F3340194A0FB025426
:10041000C1F3130141F48011C3F3130343F48013B8
:1004200001FB024400FB034E840A970A44EA81540C
:1004300047EA8357A4FB076802958D0A05FB0785E9
:100440004FEA932C04FB0C542705029D4FEA0658F3
:1004500047EA1637B5EB08056EEB070C870E920ED0
:1004600047EA811742EA8312A7FB0201B6EB0B01B0
:1004700064EB00042B0D43EA0C335E1844EB1C5074
:10048000DA465146E7FB0201C5F313044FEA0B338A
:1004900043EA14534FEA0432019C43EA0603A4F1F1
:1004A0000C040294009CCDE900B400F09EF903B066
:1004B000BDE8F08F00200146F9E72DE9F04D81EA13
:1004C000030404F0004B21F0004514464FF0000AED
:1004D00023F0004150EA050220D054EA01021DD069
:1004E000C5F30A570246C5F31303C1F31300C1F362
:1004F0000A5640F4801543F48013A7EB0608101B3E
:10050000D64608F2FD3873EB050002D308F1010866
:1005100001E092185B41B8F1000F03DA00200146B8
:10052000BDE8F08D00204FF48011064684460EE0B1
:10053000171B73EB050705D3121B63EB050306437B
:100540004CEA010C49084FEA300092185B4150EA2E
:100550000107EDD152EA030012D082EA040083EAD7
:100560000501084305D0101BAB4106D20122002330
:1005700006E000224FF0004302E06FF0010253104A
:100580001AEB06004CEB085110EB0A0041EB0B0193
:10059000BDE8F04D00F01AB90EB5C10F80EAE07069
:1005A0000844CA07002140F233438DE80E000A4692
:1005B0000B4600F01AF903B000BD0EB540F233410E
:1005C00002910021CDE900110A460B4600F00DF919
:1005D00003B000BD20F00040C10DC0F3160040F490
:1005E00000007F2901DA00207047962903DCC1F161
:1005F0009601C8407047963988407047C1F30A5247
:1006000010B5C1F3130140F2FF3341F480119A4257
:1006100001DA002010BD40F233439A42A2F2334285
:1006200003DC524200F079F810BD904010BD00F09C
:10063000004230F000400AD0C10D01F56071C0F3F6
:10064000160042EA0151C2084007114370470020DA
:100650000146704730B5041E71F1000404DB4FF011
:100660000044404264EB0101141E73F1000405DBF9
:100670001C464FF00043524263EB0403994208BF0B
:10068000904230BD01F0004330B421F0004150EA07
:10069000010206D00A0DA2F56072C1F31301002A0F
:1006A00002DC30BC00207047440F44EAC104C100A2
:1006B000E01830BC00EBC25000F051B8002801DB5C
:1006C000C0F10040002901DBC1F1004181427047C7
:1006D00030B50B46014600202022012409E021FA12
:1006E00002F59D4205D303FA02F5491B04FA02F50F
:1006F0002844151EA2F10102F1DC30BD202A04DBE2
:10070000203A00FA02F1002070479140C2F1200324
:1007100020FA03F3194390407047202A04DB203A63
:1007200021FA02F00021704721FA02F3D040C2F111
:1007300020029140084319467047202A06DBCB1758
:10074000203A41FA02F043EAE07306E041FA02F38C
:10075000D040C2F120029140084319467047002959
:10076000A8BF7047401C490008BF20F00100704737
:1007700010B4B0FA80FC00FA0CF050EA010404BF97
:1007800010BC704749B1CCF1200421FA04F411FAED
:100790000CF118BF012121430843A3EB0C01CB1D31
:1007A0004FEA00614FEA102042BF002010BC7047A2
:1007B00000EBC35010440029A4BF10BC7047401C7C
:1007C000490008BF20F0010010BC704710B5141E8E
:1007D00073F1000408DA401C41F1000192185B41FA
:1007E0001A4301D120F0010010BD2DE9F04D9246D1
:1007F0009B4611B1B1FA81F202E0B0FA80F22032E8
:100800009046FFF77BFF04460F4640EA0A0041EAA4
:100810000B0153465A46084313D0114653EA0100D0
:1008200019D0C8F140025046FFF777FF05460E4643
:10083000504659464246FFF761FF084305D0012064
:1008400004E020463946BDE8F08D0020054346EA25
:10085000E0762C4337430A986305E40AA0EB0800CE
:100860000022FD0A44EA47540A3002D5002001461E
:10087000E9E7010510196941DDE9084500196941F9
:10088000BDE8F04DA2E770B521F0004303430CD062
:10089000C1F30A550024D5EB040564EB0403D61715
:1008A000AD1AB34102DB0020014670BD201841EBB8
:1008B000025170BDC1F30A52C1F3130140F2FF337C
:1008C00041F480119A4202DA00200146704740F25A
:1008D00033439A42A2F2334202DC5242FFF71DBF79
:1008E000FFF70CBF064C074D06E0E06840F001033F
:1008F00094E8070098471034AC42F6D3FFF71CFC8D
:1009000020BE000840BE00082DE9F04D00231A4625
:100910001B1A8A4103DB00200146BDE8F08DC1F3BC
:100920000A52C1F3130141F480154FF0000BD107B7
:1009300002D100186D41521E0027044640F2FF11FB
:10094000384601EB620A3E468046024600204FF4DC
:100950008011FFF7E2FEC2197141BB1846EB01009E
:10096000B4EB030C75EB000C04D3E41A65EB000543
:1009700017460E46241908F101006D4180463428BF
:10098000E3DDF91946EB0600091BA84103D24FF03D
:10099000FF32134601E0002213461BEB070046EB33
:1009A0000A51BDE8F04DFFF711BF70B58C1810F873
:1009B000015B15F0070301D110F8013B2A1106D1A4
:1009C00010F8012B03E010F8016B01F8016B5B1EBE
:1009D000F9D12B0705D40023521E0DD401F8013B99
:1009E000FAE710F8013BCB1A921C03E013F8015B05
:1009F00001F8015B521EF9D5A142D8D3002070BD89
:100A00001D484FF6FF710170002080F309881B48D4
:100A1000016881F308881A484FF08051016062B67E
:100A2000FEE717484FF080510160704714484FF0BF
:100A300080510160704772B6EFF3098028B1203809
:100A400080E8F00F0F490968086000B50E4880473C
:100A50005DF804EB0D480E490A78027009480D490B
:100A60000A680260106890E8F00F203080F309886F
:100A70004EF0040E62B6704722ED00E0E80300205D
:100A800004ED00E0E0030020DD38000872030020E0
:100A900073030020E40300200029816802D041F0A4
:100AA000010101E021F00101816070470D4910B59D
:100AB000884202D1012144150AE00B49884202D143
:100AC0000121041504E0094988420AD10121CC031F
:100AD000204605F0F7F82046BDE81040002105F05B
:100AE000F1B810BD0024014000280140003C014045
:100AF000014600208968490700D501207047C06C75
:100B000080B270470246002012680A4200D00120DD
:100B10007047014600208968090700D50120704709
:100B200010B542680E4B0C791A400B6842EA042259
:100B30001343436083680B4A1340D1E902422243C6
:100B40004C7943EA44031A438260C26A097C22F466
:100B50007002491EC9B242EA0151C16210BD0000D3
:100B6000FFFEF0FFFDF7F1FF70B5072409290AD950
:100B7000C568A1F10A0606EB4606B440A543B3409A
:100B80001D43C56007E0056901EB4106B440A5437C
:100B9000B3401D4305611F23072A09D2446B521E2F
:100BA00002EB820293409C4391400C43446370BD2E
:100BB0000D2A09D2046BD21F02EB820293409C43A0
:100BC00091400C43046370BDC46A0D3A02EB82028B
:100BD00093409C4391400C43C46270BD816841F0D6
:100BE0000801816070470029816802D041F4A001AA
:100BF00001E021F4A00181607047816841F00401A7
:100C00008160704705490028086802D040F4000060
:100C100001E020F400000860704700000824014053
:100C200010B500240321002001F088F803210120E1
:100C300001F084F8322007F02DF80321002001F0A4
:100C40007DF80321012001F079F8322007F022F825
:100C50000321002001F072F80321012001F06EF859
:100C6000322007F017F80321002001F067F8032174
:100C7000012001F063F8641CE4B2032CD2D310BD50
:100C800010B5012005F02AF8BDE81040002005F05D
:100C900025B8000008B5024908440090008808BD46
:100CA000006C004008B5024A10440090016008BD85
:100CB000006C004000B585B0684605F067F8019803
:100CC00005B000BD1FB500230122044910208DE8A6
:100CD0000F000322014609F0C1F91FBD00100140B9
:100CE0002DE9F0412648007801283CD125480078BC
:100CF000D8B3254C2088401C20806088401C608030
:100D000000F093FE214D4FF4E156B0FBF5F0B6FB39
:100D1000F0F06910B1FBF0F021880027401E8842F6
:100D200004D127800321012001F008F800F07DFEA6
:100D3000B0FBF5F0B6FBF0F06168B1FBF0F0618854
:100D4000401E88420FD103216780084600F0F6FF5D
:100D5000FFF756FA0E49B0FBF1F201FB120042F226
:100D6000107108446060BDE8F081FFE7012108468A
:100D700000F0E4FFBDE8F0410221032000F0DEBFF7
:100D80000403002028000020F002002040420F0051
:100D9000D16C04000149022000F002B846AD0020E9
:100DA00010B50C461E49097819B11E490978012968
:100DB00004D0BDE81040022100F0C0BF2188491CCA
:100DC00089B221806288914201D8012100E002218C
:100DD00000F0B4FF00F029FE1349B0FBF1F04FF42E
:100DE000E151B1FBF0F0D4F80510B1FBF0F021882F
:100DF000401E88420AD100202080217939B16188C3
:100E0000491E0904090C618000D1207110BD608861
:100E1000401C80B260806428F8D10120F5E7000012
:100E2000280000200403002040420F00002202801E
:100E300002714280C0F805107047000010B5054CE3
:100E4000092000F0C1F9092000F08EFC207801286B
:100E5000F6D110BD04030020044910B5002008603D
:100E600000F01CF8BDE8104000F002B818030020A4
:100E700010B5FFF77DF904461021044801F015F97B
:100E80002046BDE81040FFF777B9000050BD0020B4
:100E900001490860704700001803002010B5FFF7F3
:100EA00009FF08490A6842F080720A600649002278
:100EB0004A600A6842F001020A60BDE81040FFF78C
:100EC000E7BF0000FCED00E0001000E001484068D2
:100ED00070470000001000E070B50A4D00240120AA
:100EE00000F0D4FE032802D12878012801D0002088
:100EF00070BD641CE4B21E2006F0CCFE642CEED360
:100F0000012070BD3100002070B5234D28780128E4
:100F100041D1224C208800043DD421A006F044F9A0
:100F200009F0F4FA2878012835D12088000432D459
:100F30001CA006F039F909F0E9FA287801282AD12D
:100F40002088000427D41CA006F02EF909F0DEFA50
:100F5000287801281FD1208800041CD417A006F08F
:100F600023F909F0D3FA2878012814D12088000445
:100F700011D415A006F018F909F0C8FA287801284C
:100F800009D12088000406D411A006F00DF9BDE8AF
:100F9000704009F0BBBA70BD2A000020FC0200209E
:100FA0000D0A0000456D62656464656442726561A6
:100FB0006B6572436F726500400000003C2F4D412D
:100FC000545249583E0000003A7E232000000000A1
:100FD000436F6D6D756E69636174696F6E205375D3
:100FE000636365737366756C0D0A000001684FF6E4
:100FF000FE72114001600021016041608160C160AA
:101000003149314A0839904203D1486840F00F0015
:1010100006E02D4A1432904204D1486840F0F000B6
:1010200048607047284A2832904203D1486840F40B
:101030007060F5E7244A3C32904203D1486840F49E
:101040007040EDE7204A5032904203D1486840F4A6
:101050007020E5E71C4A6432904203D1486840F4AE
:101060007000DDE7184A7832904203D1486840F0BA
:101070007060D5E7154A111F904203D1086840F00F
:101080000F0006E0114A1432904204D1086840F083
:10109000F000086070470D4A2832904203D108687A
:1010A00040F47060F5E7094A3C32904203D1086889
:1010B00040F47040EDE7054A50329042EAD10868AA
:1010C00040F47020E5E700000800024008040240F8
:1010D00000B589B000204FF40051CDE90601802110
:1010E0000890CDE902010590049010220548CDE951
:1010F0000002054B00220549012008F062FF09B0FB
:1011000000BD00004FB100200438014044000240FF
:1011100000B589B000204FF48051CDE9060180214F
:101120000890CDE902010590049010220548CDE910
:101130000002054B00220549012008F042FF09B0DA
:1011400000BD000050B50020044400408000024073
:1011500030B5036847F6F07293430C6A8A682243FD
:10116000D1E904452C4322438C692243CC692243B4
:101170004C6A22438C6A22431A430260CA68426066
:101180000A6882604968C16030BD704710B56FF071
:10119000040005F09AFB094809490068B0FBF1F02A
:1011A000C1B2084801EB41020170C2EBC1114FF618
:1011B000FF7202EAC101418010BD0000140000204E
:1011C00000127A00F80200202DE9F0470746A448F3
:1011D0000770A4480078012872D1A34DA34C287849
:1011E000012833D12088000430D4A1A005F0DCFF11
:1011F00009F08CF92878012828D12088000425D40A
:101200009CA005F0D1FF09F081F9287801281DD1B3
:10121000208800041AD49CA005F0C6FF09F076F9D6
:101220002878012812D1208800040FD497A005F057
:10123000BBFF09F06BF92878012807D1208800044A
:1012400004D495A005F0B0FF09F060F9944E4FF07A
:1012500000094FF00108012F7CD0C6F890813220A0
:1012600006F018FDC6F890910121002000F066FDFF
:101270000221012000F062FD0221084600F05EFD1F
:101280000221032000F05AFD2878012807D1208888
:10129000000404D483A005F087FF09F037F90A2F72
:1012A0007ED2DFE807F005730E161E262E58606802
:1012B000287801286AD12088000467D47EA061E0E4
:1012C000CBE02878012861D1208800045ED480A07A
:1012D00058E02878012859D12088000456D482A0EB
:1012E00050E02878012851D1208800044ED487A0EE
:1012F00048E02878012849D12088000446D48DA0F0
:1013000040E02878012841D1208800043ED491A0F3
:1013100005F04AFF09F0FAF89A4801689AA005F02A
:1013200043FF09F0F3F89748001D01689AA005F003
:101330003BFF09F0EBF89348083001689AA005F0EC
:1013400033FF09F0E3F88F48143001689AA005F0E4
:101350002BFF19E02BE02878012817D12088000402
:1013600014D499A00EE0287801280FD12088000419
:101370000CD49DA006E02878012807D1208800041D
:1013800004D49EA005F010FF09F0C0F8C6F89081C3
:10139000322006F07FFCC6F890912878012800E002
:1013A00001E017D055E00A2006F074FCEEE70221B8
:1013B000002000F0C3FCC6F89081322006F06AFCE1
:1013C000C6F8909128780128E0D120880004DDD467
:1013D0008EA0D7E7208800043BD425A005F0E4FECA
:1013E00009F094F82878012833D12088000430D4FB
:1013F00020A005F0D9FE09F089F82878012828D125
:101400002088000425D420A005F0CEFE09F07EF847
:10141000287801281DD1208800041AD41BA005F0CB
:10142000C3FE09F073F82878012812D1208800043F
:101430000FD419A005F0B8FE09F068F82878012843
:1014400007D12088000404D47BA005F0ADFE09F08C
:101450005DF8BDE8F04704F0C9BFBDE8F0870000C3
:1014600004030020290000202A000020FC020020A4
:101470000D0A0000456D62656464656442726561D1
:101480006B6572436F726500400000003C2F4D4158
:10149000545249583E0000003A7E232000000000CC
:1014A000000022425B214552524F522121455252A7
:1014B0004F52215D2000000054657374204D616E11
:1014C00075616C205761726E696E670D0A000000CD
:1014D000456D657267656E63792053746F70205037
:1014E000726573730D0A0000526563656976652045
:1014F00044617461204572726F722057697468206C
:1015000050726F746F636F6C0D0A0000436F6E74DE
:10151000726F6C6C657220496E746572666163658A
:1015200020566F6C74616765204572726F720D0A88
:10153000000000004D435520496E6E6572205465D1
:101540006D7065726174757265204578636573733B
:101550000D0A0000403058453030304544323820C4
:101560005374617475732D52656769737465722065
:101570004861726477617265204661756C740D0A0A
:101580000000000028ED00E0434653523A200925B0
:101590002338780D0A000000484653523A200925A6
:1015A0002338780D0A000000444653523A2009259A
:1015B0002338780D0A000000414653523A2009258D
:1015C0002338780D0A000000496E70757420566F3C
:1015D0006C74616765204C6F776572207468616E0A
:1015E000203138560D0A00004D4355205573616770
:1015F00065204661756C740D0A0000004D4355204E
:10160000427573204661756C740D0A005B21434C72
:101610004541522121434C454152215D204E6F20CE
:101620004572726F72206F72204572726F722D4315
:101630006C6561720D0A00004C6F672045572D5292
:10164000756C6572204163746976652054696D65B7
:101650000D0A000010B5012000F024F8FFF73CFC53
:10166000002803D0BDE8104005F03BB910BD10B50F
:10167000012000F00BFB04280DD10220FFF7A4FD90
:10168000022000F071F8012000F000FB0428FAD0DD
:101690000120FFF799FDBDE810404FF4807000F085
:1016A00001B80000014908607047000014040140BF
:1016B0001FB50121084604F0F9FA02210020CC01EF
:1016C0000B4A00940390CDE901210246094B4821C1
:1016D000082008F0C3FC0822009201201721CDE960
:1016E0000110002322460821039008F08FFC1FBD43
:1016F000000C01400002300030B51A4983790268BD
:1017000053B30B6893430B600A1D13680468A3432B
:10171000136002790A441368046823431360114A72
:10172000083213680468A3431360131D1C6805681E
:10173000AC431C604479102C05D021440A68006831
:1017400002430A6030BD11680468214311601968C2
:1017500000680143196030BD007908440168914375
:10176000016030BD000401402DE9F04107463E48CC
:1017700000240078012874D13C480078012870D1F9
:101780003B4E3C4D307801283ED1288800043BD4A4
:1017900039A005F009FD08F0B9FE3078012833D1F1
:1017A0002888000430D435A005F0FEFC08F0AEFE19
:1017B0003078012828D12888000425D434A005F0E9
:1017C000F3FC08F0A3FE307801281DD1288800041E
:1017D0001AD430A005F0E8FC08F098FE3078012813
:1017E00012D1288800040FD42DA005F0DDFC08F0EC
:1017F0008DFE3078012807D12888000404D42AA05F
:1018000005F0D2FC08F082FE2B48C0F870712988E0
:101810002F46090418D4054605EB8400D0F868115A
:1018200026A005F0C1FC08F071FE641CE4B2122C85
:10183000F2D33078012814D13888000411D40EA0D6
:1018400005F0B2FC08F062FE3078012809D1388832
:10185000000406D408A005F0A7FCBDE8F04108F09C
:1018600055BEBDE8F08100002E00002033000020AE
:101870002A000020FC0200200D0A0000456D626570
:1018800064646564427265616B6572436F72650082
:10189000400000003C2F4D41545249583E0000008A
:1018A0003A7E232000000000455746204D657373A3
:1018B0006167653A200000003C0000202530327846
:1018C0006464000004490A6822F010020A600A6891
:1018D00002430A607047000000200240034A11687A
:1018E00001F0380101431160704700000020024000
:1018F00010B58A0721F003040649130F21440F2273
:101900008C689A4094438C608A68984002438A604D
:1019100010BD000000000140F0B5CA78002502F0BB
:101920000F03D20601D58A7813430A784FF00F0EC1
:1019300012F0FF0F4FF001021CD004680F8802FA6A
:1019400005F63740B74211D14FEA850C0EFA0CF775
:1019500024EA070703FA0CF43C43CF78282F02D07F
:10196000482F02D002E0466100E006616D1C082DA0
:10197000E4D304600C88FF2C1ED944685FF0000695
:1019800006F1080702FA07F50F882F40AF420FD182
:101990004FEA860C0EFA0CF7BC4303FA0CF73C43F3
:1019A000CF78282F00D14561CF78482F00D105612D
:1019B000761C082EE4D34460F0BD0000F0B5144C52
:1019C000002801DAE36900E06368420D120185B284
:1019D000C0F301579540C0F30346032F05D0C20260
:1019E0000AD50322B240934307E023F07062636894
:1019F00023F07063636002E0AB4343F0706201B1B7
:101A00002A43002801DAE261F0BD6260F0BD000007
:101A1000000001400246002092680A4200D00120E6
:101A20007047416170470161704700B585B06846F5
:101A300004F0ACF9019805B000BD000010B50E48E7
:101A400001680E480C4A121F016012680A4B42607E
:101A5000083B1B6883600A48007801280AD10948BE
:101A60000088000406D408A005F09EFBBDE81040E5
:101A700008F04CBD10BD0000F0F7FF1F1814002047
:101A80002A000020FC0200200D0A436869702053E0
:101A9000657269616C4E756D2049443A202523308A
:101AA00038582D253038582D253038580D0A00006B
:101AB00010B5054C0620FFF787FB0620FFF754FE04
:101AC00020780128F6D110BD0403002070B50A4C1F
:101AD0000120C4F8B401C4F8BC0104F5DA7406F0BE
:101AE000F3F80025A560012006F0EEF82560BDE8BA
:101AF0007040012006F0E8B80080214270B5074C24
:101B00000020C4F8BC010125C4F8B451284604F5EE
:101B1000DA7406F0D9F8A56070BD0000008021429B
:101B200070B50A4C0125C4F8BC51284604F5DA7496
:101B300006F0CAF82560012006F0C6F800202060F3
:101B4000BDE87040012006F0BFB8000000802142CF
:101B500010B50446FFF7BAFF782000F019F8FFF738
:101B6000DFFF012006F0B0F8002000F011F8FFF7C9
:101B7000D7FF012006F0A8F8204600F009F8FFF78B
:101B8000CFFF012006F0A0F8BDE81040FFF7B6BF78
:101B90002DE9F0410025124C0646A84601273006E3
:101BA00002D5C4F8BC7101E0C4F8BC81012006F084
:101BB0008BF8C4F8B471012006F086F8C4F8B4813B
:101BC000072D01D1C4F8BC717006060E012006F085
:101BD0007BF86D1CEDB2082DE1D3BDE8F08100006B
:101BE0000080214210B50446FFF770FF7820FFF710
:101BF000CFFFFFF795FF4020FFF7CAFFFFF790FFE9
:101C0000012006F061F82046FFF7C2FFFFF788FFCA
:101C1000012006F059F8BDE81040FFF76FBF8107BB
:101C20000CD16421B0FBF1F201FB120141B94FF478
:101C3000C871B0FBF1F201FB120008B1002070473F
:101C4000012070477FB50E4820210024CDE9001007
:101C500002250C4ECDE9025433462246482111207C
:101C600008F0FCF9084848F20101CDE90010CDE97F
:101C70000254334600224821052008F0EFF97FBDC9
:101C80000010014000023000000801402DE9F0473B
:101C9000DFF8989020214846FFF7BCFE244CDFF87F
:101CA00094804FF40046A51588B131462046FFF7D1
:101CB000B1FE60B1294647464046FFF7ABFE30B162
:101CC00020214846FFF7A6FE012822D02BE01A4F1C
:101CD0000120C7F89001322007F5C87705F0DAFF38
:101CE0000020386020214846FFF794FE50B131466D
:101CF0002046FFF78FFE40B129464046FFF78AFE97
:101D000028B110E00120BDE8F0870220FBE70420A5
:101D1000F9E731462046FFF77DFE012803D1294629
:101D20003846FFF777FE0020EDE700000010014085
:101D300000080140000C01400000224210B50023C1
:101D40000124A0B1012828D02E4A02283CD0032823
:101D50000CD101294DD002294ED0032906D1D2F849
:101D6000B00170B35FF00000C2F8B00110BD2648AA
:101D700001290AD002290BD00329F7D1D0F8A011EC
:101D800049B10021C0F8A01110BDC0F8A03110BDAC
:101D9000C0F8A04110BD0121F4E71C4801290AD078
:101DA00002290BD00329F5D1D0F8881151B10021B7
:101DB000C0F8881110BDC0F8883110BDC0F8884146
:101DC00010BD1CE00121F3E701290AD002290BD044
:101DD0000329F5D1D2F8AC0148B10020C2F8AC011A
:101DE000EEE7C2F8AC31EBE7C2F8AC41E8E701201E
:101DF000F4E7C2F8B031E3E7C2F8B041E0E7012010
:101E0000B2E700000000224200002142008022428E
:101E10001FB51748002481150091CDE90104234620
:101E2000032210210420039408F018F904210091E2
:101E30001048CDE90104002303221021202003943F
:101E400008F00CF94FF4C05100910B48CDE90104A2
:101E50001021002303220846039408F0FFF804B081
:101E600042F21071BDE810400448FEF7DFBF0000E9
:101E700000080140001401400010014046AD002060
:101E8000094810B5007801280DD181020748FFF7F5
:101E9000C1FD002807D10720FFF796F9BDE81040E3
:101EA0000720FFF761BC10BD30000020001001408A
:101EB0001FB506490023022208158DE80F001A46B7
:101EC0004821102008F0CAF81FBD00000010014092
:101ED0007CB50F210A20CDE900011B4C072301220C
:101EE00010211A4805F092FEFEF767FB4FF06632AC
:101EF000174BFEF770FA4FF02042164BFEF768FAC8
:101F00004FF00042144BFEF7D8FA0022134BFEF7B5
:101F1000BBF9FEF7B7FB054601462068FEF7CEFB8E
:101F200000D025600E4D2068A8420BDB142005F080
:101F3000B1FE2068A84205DB0520FFF745F9052022
:101F4000FFF712FC20687CBDEC0200200024014059
:101F500066664A3F47E1F63FE09C713F000039402A
:101F60000000644270B53348334C344D8678207895
:101F7000012833D12888000430D431A005F014F9A9
:101F800008F0C4FA2078012828D12888000425D434
:101F90002CA005F009F908F0B9FA207801281DD124
:101FA000288800041AD42CA005F0FEF808F0AEFA38
:101FB0002078012812D1288800040FD427A005F02A
:101FC000F3F808F0A3FA2078012807D12888000444
:101FD00004D425A005F0E8F808F098FA2078022E3D
:101FE00014D2012808D12888000405D4314620A045
:101FF00005F0DAF808F08AFA36B1012E18D101207E
:10200000BDE87040FFF7E0B80020F9E7012807D1EC
:102010002888000404D41DA005F0C6F808F076FA5C
:102020000320FFF7D1F8BDE870400320FFF79CBB09
:1020300070BD00004FAD00202A000020FC020020EF
:102040000D0A0000456D62656464656442726561F5
:102050006B6572436F726500400000003C2F4D417C
:10206000545249583E0000003A7E232000000000F0
:102070005265636569766520455720436F6D6D61D4
:102080006E643A205B25645D0D0A00004F70746930
:102090006F6E2056616C756520457863657373209B
:1020A0004572726F720D0A00FEE70A46002100F0C9
:1020B0004BB9000010B5084C4FF40C620021E068E9
:1020C00006F008FCA0684FF40C42002106F002FC68
:1020D0000120207410BD0000C50200202DE9F0474A
:1020E00089464FF6FF71804601EA8907384606F0B7
:1020F000E1FB6A4C06466A4D2078012840D12888C9
:1021000000043DD467A005F04FF808F0FFF92078EF
:10211000012835D12888000432D463A005F044F8A2
:1021200008F0F4F9207801282AD12888000427D45F
:1021300062A005F039F808F0E9F9207801281FD1EC
:10214000288800041CD45EA005F02EF808F0DEF903
:102150002078012814D12888000411D45BA005F050
:1021600023F808F0D3F92078012809D12888000441
:1021700006D43A46494657A005F016F808F0C6F9C5
:1021800036B15FEA080602D02078012841D080E00D
:10219000207801287DD1288800047AD441A005F058
:1021A00003F808F0B3F92078012872D128880004D8
:1021B0006FD43DA004F0F8FF08F0A8F920780128BA
:1021C00067D12888000464D43CA004F0EDFF08F037
:1021D0009DF9207801285CD12888000459D438A0C2
:1021E00004F0E2FF08F092F92078012851D1288804
:1021F00000044ED435A004F0D7FF08F087F920780A
:10220000012846D12888000443D43FA004F0CCFF25
:102210003DE0288800043CD422A004F0C5FF08F06B
:1022200075F92078012834D12888000431D41EA003
:1022300004F0BAFF08F06AF92078012829D128882B
:10224000000426D41DA004F0AFFF08F05FF9207849
:1022500001281ED1288800041BD419A004F0A4FF73
:1022600008F054F92078012813D12888000410D4EC
:1022700016A004F099FF08F049F92078012808D148
:102280002888000405D4314626A004F08DFF08F00C
:102290003DF93046BDE8F04706F002BB2A000020B9
:1022A000FC0200200D0A0000456D626564646564EF
:1022B000427265616B6572436F7265004000000099
:1022C0003C2F4D41545249583E0000003A7E232095
:1022D0000000000041727261792053697A653A20EA
:1022E0002564207C2052657175657374204D616C86
:1022F0006C6F632053706163653A20256462797462
:1023000065730D0A000000004D656D6F72792053F2
:102310007461636B204F76657220466C6F770D0A8F
:102320000000000041727261792052657175657319
:102330007420537061636520416464726573733AFD
:1023400020252338780D0A0010B500234FEA030436
:10235000641C41EA0323042CFAD310F0030405D1D2
:102360000BE000BF521E00F8011B641C002A0CD0B9
:10237000042CF7D301E008C0121F042AFBD202E0AC
:1023800000F8011B521E002AFAD110BD70474FF40D
:10239000A06000F033B8000070B50F23C478017856
:1023A0000122F4B1144C2468457804F4E064C4F5C7
:1023B000E064240AC4F10406E3408478B5401C407C
:1023C0002C4301F1E021230181F80034007800F072
:1023D0001F018A404009800000F1E020C0F8002180
:1023E00070BD01F01F0082404809800000F1E0202C
:1023F000C0F8802170BD00000CED00E002490843E8
:1024000002490860704700000000FA050CED00E08A
:10241000024A1140014302480160704780FFFF1FDC
:1024200008ED00E030B40021084B0A465FF00000E0
:1024300003EBC004401CC0B262548028F8D3491C8E
:10244000C9B20829F2D330BC00F002BA46A9002074
:1024500010B50021AE2000F062FC0021402000F009
:102460005EFC0021812000F05AFC0021CF2000F00A
:1024700056FC0021A12000F052FC0021C02000F0F9
:102480004EFC0021A62000F04AFC0021A82000F00C
:1024900046FC00211F2000F042FC0021D32000F068
:1024A0003EFC0021084600F03AFC0021D52000F057
:1024B00036FC0021F02000F032FC0021D92000F091
:1024C0002EFC0021F12000F02AFC0021DA2000F08F
:1024D00026FC0021022000F022FC0021DB2000F07D
:1024E0001EFC0021492000F01AFC00218D2000F084
:1024F00016FC0021142000F012FC0021A42000F0A2
:102500000EFC0021A62000F00AFC0021BDE81040CE
:10251000AF2000F004BC00000B4810B50078012883
:1025200011D100F0BBF94FF49674204605F0B2FBD0
:10253000FFF778FF00F0D4F9204605F0ABFBBDE8CB
:102540001040FFF76FBF10BD2B0000200B4808B5EF
:102550000179002910D00022027109480078002872
:102560000AD11020009003232021182000F044FB02
:10257000BDE8084000F06CB908BD00000803002069
:102580002F000020094808B5007801280DD105F07A
:10259000B5FB02461020009002232021502000F0BD
:1025A0002BFBBDE8084000F053B908BD290000200E
:1025B000F8B5224D224C2968A068FEF77FF83BD081
:1025C0002D68A5602846FEF705F8C7B267701D495B
:1025D0002846FDF727FEFDF7FDFF0A26B0FBF6F1C2
:1025E00006FB1100A07018492846FDF71BFEFDF7F9
:1025F000F1FFB0FBF6F106FB1100E0701348007824
:10260000012819D1102502233A4630215020009587
:1026100000F0F2FA00950123A2783021682000F042
:10262000EBFA00950123E2783021702000F0E4FA03
:10263000BDE8F84000F00CB9F8BD0000EC02002045
:1026400008030020000020410000C8422D000020A7
:1026500038B506F00DF90A4C617988420ED006F0C3
:1026600007F96071102102460091032330211820E0
:1026700000F0C2FABDE8384000F0EAB838BD00000A
:102680000803002038B5234D202110232A8908464D
:1026900000F021FB6A8910232021382000F01BFB69
:1026A000AA8910232021502000F015FB1020009053
:1026B0002A8804233021002000F09EFA6A88102323
:1026C0003021282000F007FBAA8810233021402069
:1026D00000F001FBE888072812D2DFE800F00406CA
:1026E000080A0C0E10000CA40AE00CA408E00CA4CC
:1026F00006E00CA404E00CA402E00CA400E00CA48E
:10270000102322463021602000F0BAFABDE838409C
:1027100000F09EB838A9002053756E004D6F6E0012
:102720005475650057656400546875004672690009
:102730005361740070B57F2814D83F2912D801F076
:102740000703094DC3F1070407260123A340A6EBA5
:10275000D10105EBC000002A425C01D01A4300E021
:102760009A43425470BD000046A900201FB54FF4A3
:102770002042002000920849CDE901100346039051
:1027800003221421082007F069FCFFF761FEBDE871
:102790001F40FFF747BE0000000C014070B52848FD
:1027A000007800284BD00020FFF770FA0025254C58
:1027B00002280BD1A07908B1A57101E00120A07118
:1027C000E5600020FFF762FA0228FAD00020FFF748
:1027D0005DFA01280BD12078401CC0B2207004287B
:1027E00000D125700020FFF751FA0128FAD0A07916
:1027F000002824D0FFF719F91349B0FBF1F04FF48A
:10280000E151B1FBF0F01149B1FBF0F0E168401E7D
:10281000884204D00020FFF739FA01280CD1E56086
:102820002078401CC0B22070042800D12570002000
:10283000FFF72CFA0128FAD0E068401CE06070BD78
:10284000280000200803002040420F00404B4C00AD
:1028500070B5114E002400BF04F1B000C0B20021D9
:1028600000F05DFA0021042000F059FA0021102048
:1028700000F055FA5FF0000506EBC5000121005D90
:1028800000F04DFA6D1CEDB2802DF5D3641CE4B25E
:10289000082CE1D370BD000046A9002010B510231C
:1028A00007A22021082000F0EBF9102308A2302114
:1028B000082000F0E5F9BDE81040FFF7C9BF0000AF
:1028C000456D626564646564427265616B650000B4
:1028D000446576656C6F70436F72654B6974000078
:1028E00010B5102307A22021082000F0C9F91023F9
:1028F00008A23021082000F0C3F9BDE81040FFF71E
:10290000A7BF00003C2F4D41545249583E404E64F1
:10291000416E000053797374656D2052756E6E6957
:102920006E6700007CB53D4801788DF80010417855
:102930008DF8011081788DF80210B0F80310ADF811
:10294000031041798DF8051081798DF80610C07952
:102950008DF80700DDE9000103F00EFB304D20216A
:1029600010232A89084600F0B6F910232DA2202151
:10297000302000F085F96A8910232021382000F0EA
:10298000AAF9102327A22021482000F079F9AA896A
:1029900010232021502000F09EF9102000902A885A
:1029A00004233021002000F027F910231EA230213B
:1029B000202000F065F96A8810233021282000F0DB
:1029C0008AF9102318A23021382000F059F9AA887A
:1029D00010233021402000F07EF9E888072812D229
:1029E000DFE800F00406080A0C0E10000FA40AE04D
:1029F0000FA408E00FA406E00FA404E00FA402E077
:102A00000FA400E00FA4102322463021602000F024
:102A100037F9BDE87C40FFF71BBF0000DA02002059
:102A200038A900203A0000002F00000053756E0006
:102A30004D6F6E00547565005765640054687500ED
:102A4000467269005361740038B5102337A2202103
:102A5000002000F015F91024032300222021182063
:102A6000009400F0C9F83248007801280DD11023F5
:102A700030A22021382000F003F92F4800940223CF
:102A800002782021502000F0B7F810232BA230212B
:102A9000002000F0F5F805F0EBFE0246032330219C
:102AA0001820009400F0A8F825480078012839D1B2
:102AB000102324A23021382000F0E2F8FFF708FAB2
:102AC000FDF788FD0246022330215020009400F0DB
:102AD00093F810231CA23021602000F0D1F8FFF7FA
:102AE000F7F91A49FDF79EFBFDF774FD0A25B0FBC7
:102AF000F5F105FB1102012330216820009400F05C
:102B00007BF8FFF7E5F91249FDF78CFBFDF762FD55
:102B1000B0FBF5F105FB1102012330217020009478
:102B200000F06AF8BDE83840FFF792BE4350550008
:102B30002900002045570000040300204D454D00AA
:102B40002D000020495444002E00000000002041C8
:102B50000000C8422DE9FF4F203A1F460C46894627
:102B600002F0FF0A0025DDF834B03AE00C2F04D063
:102B7000102F06D0182F08D00DE00AEB4A001B4991
:102B800006E01B4901EB0A1004E01A490AEBCA00EF
:102B900001EB8000465D4FF00808300601D55A462B
:102BA00003E0BBF1000F12D0002221460098FFF78E
:102BB000C1FD7006641C060EE4B2A4EB0900B84225
:102BC00007D100984C46401CC0B2009007E001229B
:102BD000EBE7A8F10100C0B25FEA0008DDD16D1C8F
:102BE000EDB2BD42C2D3BDE8FF8F00003CA5000896
:102BF000B0A90008A0AF00082DE9FF4F81B0002662
:102C0000DDF838A01D469346814634464FF0010852
:102C10004FEA5A072DE0281B401EFDF7BDFC024677
:102C20000B460020154906F0FDF9FDF7E7FCBBFB5C
:102C3000F0F00A21B0FBF1F201FB120026B9691E87
:102C40008C4201DA48B101263030C2B207FB049051
:102C5000C0B25346CDF8008006E007FB0490C0B236
:102C600053462022CDF800800299FFF773FF641CC1
:102C7000E4B2AC42CFD305B0BDE8F08F00002440F1
:102C80002DE9F84F04461F468020A0EB570940204D
:102C900016460D46A0EB57084FF0010A16E0A14575
:102CA00002D20024E819C5B2A84503D20024254663
:102CB000FFF7B8FBCDF800A032783B462946204606
:102CC000FFF748FF04EB5700C4B2761C30780028A9
:102CD000E5D1BDE8F88FF8B51C4615460F46064607
:102CE0000A2A0CD2012300220094FFF785FF06EB8D
:102CF0005400C0B201232A463946009401E00093F3
:102D00000223FFF779FFF8BD10B5FFF71FFCFFF7AF
:102D100039FCFFF79DFCBDE81040FFF749BC09B145
:102D2000FEF760BFFEF714BF70470000024800685E
:102D3000002800D0004770473003002010B504463B
:102D400000F0BEF8464800210A2201704548017093
:102D5000454801704548016045480160454801709B
:102D6000454801704548017045480160454801608B
:102D7000454801604548017045480068B0FBF2F0E5
:102D8000444A1060444A106830B14448006818B1A1
:102D9000126802C0521EFCD14148016041480160E6
:102DA000414801604148016041480160414801607B
:102DB000414801604148017001F06EFB01F006FCE2
:102DC000204600F0B1FE2088002847D1204601F0BF
:102DD0006DF92088002841D1204601F08BF9208828
:102DE00000283BD1204601F00DFA2088002835D17B
:102DF000204601F07DFB208800282FD1204601F0DD
:102E000009FD2088002829D1204601F023FF2088D1
:102E1000002823D1204601F0AFF8208800281DD1DA
:102E2000204600F057FF2088002817D1204602F0E6
:102E3000BBFA2088002811D1204601F069FE2088C5
:102E400000280BD1204602F003FB2088002805D182
:102E500000F068FEBDE81040FFF766BF10BD00003F
:102E600044030020450300208C030020E0030020E1
:102E7000E403002072030020730300207403002089
:102E80008003002084030020880300209403002096
:102E90005CBD00089003002034BD000830BD000870
:102EA00024030020280300202C03002030030020EE
:102EB00034030020380300203C030020C20300201C
:102EC000054806490068096800EB8100044920F0C4
:102ED000070008607047000030BD000834BD0008DE
:102EE000E80300202DE9F05F05462C48DDE90A865D
:102EF00000781F4614468B4610B145F2B9600EE0CB
:102F000045F2BB605CB1022F01D2401C07E045F2E4
:102F1000C161B8F1040F08D314F0030F02D0308060
:102F2000BDE8F09F18F0030F01D03180F8E77A1E5A
:102F300093B22146002205E001EB08000860521C14
:102F4000014692B29A42F7D34FF0000AC1F800A0AE
:102F5000FDF70EF9DFF8489099F80010491C89F840
:102F60000010FDF709F90F4885E81108EC60AF8201
:102F70006F82A5F81080284601F08AF80A4908886F
:102F8000401C0880FDF7F4F899F80010491E89F8F4
:102F90000010FDF7F1F8A6F800A0C1E744030020F7
:102FA0008C0300204D454D2068030020154810B5C6
:102FB0000078002824D114480078002820D1FDF79B
:102FC000D7F8044601F056FA10490870104900EB92
:102FD000400051F820000F4908600F4909688842F5
:102FE00009D050F8901F491C01600C480168491C29
:102FF0000160FDF716FD2046BDE81040FDF7BCB8A6
:1030000010BD0000440300208C0300207303002047
:1030100084D30020E4030020E0030020B803002054
:1030200070B504461048007810B146F6625019E0B9
:103030000E480078012802D045F6896012E00C4D58
:103040002878FA2802D345F209200BE0FDF790F822
:1030500006462878401C287001F07EFB3046FDF7BC
:103060008BF80020208070BD440300204503002021
:103070008C0300202DE9F04115460C460746FDF76C
:1030800077F80B490026012F01D00E7001E00122D4
:103090000A7008490CB10C6005E0074A0A2312685F
:1030A000B2FBF3F20A60FDF767F82E80BDE8F0810D
:1030B00094030020900300205CBD000870B5044616
:1030C0001548007810B146F6655023E013480078A3
:1030D000012802D045F689601CE0114D287870B1B6
:1030E000FDF746F806462878401E10F0FF002870CD
:1030F00008D03046FDF740F846F663500AE046F641
:10310000645007E001F036FB3046FDF735F8FFF775
:103110004DFF0020208070BD4403002045030020A7
:103120008C03002070B50F4D0446287818B145F681
:103130008A60208070BD01F09DF90B4908700B4931
:1031400008700B4900EB400051F820000949086065
:103150000949086001202870FDF752FC43F69920C8
:10316000E7E70000450300207303002072030020FE
:1031700084D30020E4030020E00300202DE9F04187
:103180000646FCF7F5FF244900240C6023490C8017
:1031900023490C8023490C6023490C6023490C60AF
:1031A00023490C6023490C81FCF7E6FFFCF7E0FFA4
:1031B00021490D6816E000BFFCF7DAFFC5F8B440FE
:1031C00045F8784F07462C63AC61AC82EC826C62A8
:1031D000AC62FDF77BFE45F8200FA5F13400848139
:1031E0006D6A3846FCF7C8FF002DE5D1FCF7C0FF3B
:1031F00012490D6804E000BFFCF7BAFFAC85AD6969
:10320000FCF7BAFF002DF7D101F0FEFF02F0EEF956
:103210003480BDE8F08100005803002052030020F4
:10322000A2030020B4030020C8030020D003002024
:103230008403002078D30020BC0300207803002002
:10324000F8B5044669461E4800F01EFBBDF80000B4
:1032500028BB6A460021022000F06CFBBDF800008C
:10326000E8B9FCF785FF174E00253560FCF784FFB1
:10327000154916480A6803689A4202D9B2FBF3F06E
:1032800010B90A21B2FBF1F06A46002100F052FBAE
:1032900069460B4800F0A0F9BDF8000008B1208095
:1032A000F8BDFCF765FF0A490A4A0D6031681160F4
:1032B000094A01211170FCF75FFF2580F8BD00006D
:1032C0000CD80020A40300205CBD000844BD000809
:1032D000B4030020A8030020B003002002480068C7
:1032E000002800D000477047340300202DE9FF4F2D
:1032F00083B004466148DDE91785DDE91096007862
:10330000DDF854A0139F10B147F24A102AE04CB1E7
:10331000059850B166B15A48006887420BD246F60C
:1033200030601FE047F2AD101CE047F24F1019E08B
:1033300046F62F6016E01298B84202D346F6316086
:1033400010E046F27320B9F1400F0BD25FEA090199
:1033500003D0B9F13F0F02D008E04A4900E04A49E2
:103360008C4203D0288007B0BDE8F08F204601F0E2
:1033700081FC4FF0000BA5F800B05FEAC8700AD0DE
:103380005FEA887007D5304600215A4601E004C044
:10339000491CB942FBD31298CDE9007806EB8005B1
:1033A000DDE905012B46324600F034FA0599A162A9
:1033B0000699E1620499216284F83790C4F854A018
:1033C000A56020605FEA0A003AD0A0651698A7635E
:1033D00066626060A4F83C800020594604EB8002DD
:1033E000401CD16710F0FF00F8D004F1640014997C
:1033F00000F0BEFE204600F053F8FCF7B9FE234D66
:103400002978491C2970FCF7B7FE94F8370001F0C1
:103410004FF8204601F020F9204601F0EDFB1C4951
:103420000888401C08801B48007801281AD0FCF747
:103430009FFE2978491E11F0FF01297003D00CE08E
:1034400015480068C1E71549098831B1FCF794FEB9
:1034500007B0BDE8F04F01F05DB907B0BDE8F04F2F
:10346000FCF78ABEFCF784FE2978491E2970FCF718
:1034700083FE07B0BDE8F04FFFF798BD440300207E
:1034800058BD0008B4D20020F0D100208C030020E9
:10349000C0030020450300209003002050030020BB
:1034A00002490968002900D008477047240300201A
:1034B00070B504463D480E46007810B147F24E10F4
:1034C0000AE03B48844202D147F24C1004E03948FC
:1034D000844203D147F24D10088070BD2CB9FCF72F
:1034E00047FE35490C68FCF747FEFCF741FE334DBB
:1034F0002978491C2970FCF73FFE94F8360008280B
:103500003ED2DFE800F004080C0C1C080C0C20462E
:1035100001F0D6F813E0204601F05AFE0FE02046F5
:1035200001F056FE94F83400072808D2DFE800F0D6
:103530000704070404040400204600F00EFF04F111
:10354000640000F0FBFD204600F03EF8204601F04C
:1035500065FB1B490888401E0880204601F08AFB55
:10356000FF2084F83600FCF703FE2978491E2970F5
:10357000FCF702FE00203080BDE87040FFF716BD6A
:10358000FCF7F6FD2978491E11F0FF01297007D1DB
:103590000C49098821B1FCF7EFFD01F0BBF801E00F
:1035A000FCF7EAFD46F62D60308070BD4403002034
:1035B000F0D10020B4D20020E00300208C030020D2
:1035C000C00300205003002002490968002900D0F0
:1035D00008477047280300207FB50D460446FCF7D6
:1035E000C7FD1CB1104909688C4205D1FCF7C4FD28
:1035F00047F2571028807FBDFCF7BEFD0B480078CE
:1036000058B10020CDE90205009003460246019022
:103610002146074800F092FB7FBD04B029462046B2
:10362000BDE8704001F00ABCE00300204403002024
:103630005452455302490968002900D00847704791
:103640002C0300202DE9F04782464A4814461E46C6
:103650000078884610B146F2AE1006E0080006D0A9
:10366000B1F5004F03D045F62560188035E00027FE
:1036700004B12760FCF77CFD3F4D81462968486C0A
:10368000C8B1401E804648640CB1086C2060FDF74C
:103690001DFC29680A6C801AC1F8A400D1F8A82082
:1036A000824201D2C1F8A8004846FCF765FD378088
:1036B0004046BDE8F0875FEA084005D54846FCF77C
:1036C0005BFD46F2B01007E02C48017839B148465E
:1036D000FCF752FD46F6635030800020E9E7804653
:1036E000012088F800004846FCF746FD00215346BB
:1036F0000722084600F092FDFCF73AFD98F800100A
:10370000491E88F80010FCF737FDFFF74FFCFCF767
:103710002FFD8046286890F8351031B1012916D068
:1037200003291AD046F62E601BE074B1006C2060AD
:10373000FDF7CCFB29680A6C801AC1F8A400D1F807
:10374000A820824201D2C1F8A80037800AE00CB15B
:10375000006C206046F2A91003E004B1276047F234
:10376000D92030802868446C4046FCF705FD20468F
:103770009FE7000044030020E00300208C030020AA
:103780002DE9F0410546214816460F4600781C46B3
:1037900010B147F2591007E046F2D52027B11EB10B
:1037A000FCF7E6FC1DB104E01880BDE8F081184983
:1037B0000D684FF00008296841B195F83C10C90721
:1037C0000DD0FCF7D9FC0020696A14E0FCF7D4FCAA
:1037D000C7F8008047F25210C6F8008007E0FCF7F7
:1037E000CBFCC7F8008047F25410C6F80080208058
:1037F000DBE7401C091D0A68002AFAD03860A96B73
:10380000081A3060A4F80080CFE7000044030020CD
:10381000E003002010B5029C02EB840222F00702B4
:103820004FF0807442E90204164842F80C0C4FF045
:10383000123042F8100CA2F114004FF0023240E9AD
:1038400003134FF0113140F8101CD10040F8141C44
:103850004FF0093140F8181C910040F81C1C4FF043
:1038600007314FF0033440F8201C610040F8241C5D
:103870004FF0053140F8281D5100C0E9092440F8F7
:10388000041D10BDF94E00081FB5104A904202D128
:1038900047F25B1004E00E4A904203D147F25C10FD
:1038A00008801FBD0B4A127852B10022CDE90221D7
:1038B0000146009213460192074800F03FFA1FBDEF
:1038C00004B0BDE8104001F0ADBB0000F0D1002015
:1038D000B4D200204403002054535553114810B56E
:1038E000006800B18047FDF7F1FA0F490F4A0968F7
:1038F0001268914209D0D1F89830C31AC1F89430B7
:10390000D1F89C402344C1F89C30C2F89800084A82
:10391000D1F8B4301068834201D2C1F8B40000205D
:10392000106010BD38030020E0030020E4030020F5
:10393000880300202DE9F041074626480E4615462B
:10394000007810B147F2752030E0234C207810B198
:1039500046F663502AE046B1022E06D0042E05D06A
:10396000082E02D045F6256020E0EFB1FCF700FC00
:103970002178491C2170FCF7FFFBDFF860800121F2
:103980002B46D8F80000324680F83610394601F050
:10399000B3FB288868B1FCF7EBFB2178491E217046
:1039A000BDE8F041FCF7E8BB47F27E201080BDE89F
:1039B000F081D8F8000000F083FEFCF7D9FB2178F5
:1039C000491E2170FCF7D8FBFFF7F0FA0020288091
:1039D000EDE70000440300208C030020E0030020FA
:1039E0002DE9F0474B4EDDE90854367816B147F221
:1039F000752088E0DFF820A19AF8006016B146F63D
:103A0000635080E015F00E0647F27E2945F62567E3
:103A100005D0022E03D0042E05D0082E06D113B9EE
:103A20000AB901B9F0B335F01E0C02D02780BDE809
:103A3000F087C5F3001547F2792C47F278284FF448
:103A40007A7735B142F20F75A94211D9A4F800C0B6
:103A5000EDE7BB4202D347F27B2054E03B2A02D978
:103A600047F27A204FE03B29F0D8632802D804E0DF
:103A7000B84202D3A4F80080D9E7284D4FF4FA7C6D
:103A8000C1EB01112D68BCFBF5FC63446B43B3FB38
:103A9000F7F34FF46167784300EB8100104400FBBB
:103AA000053700E031E087B3FCF762FB9AF80010BD
:103AB0005546491C8AF80010FCF75EFBDFF8608071
:103AC00001212346D8F80000324680F836103946E6
:103AD00001F012FB208840B1FCF74AFB2978491E0F
:103AE0002970BDE8F047FCF747BBD8F8000000F0AC
:103AF000E7FDFCF73DFB2978491E2970FCF73CFBEC
:103B0000FFF754FA0020208091E7FFE7A4F8009027
:103B10008DE70000440300208C0300205CBD0008FA
:103B2000E003002070470000034A00211160034AAF
:103B300011800180704700005C03002060030020BA
:103B40002DE9F0479A4690460D460446089FFCF73B
:103B50000FFB5FEA080120D0012907D0B1F5004F23
:103B60001BD06FF4004218EB020F11D1216AA94358
:103B7000C4E9081A218A04F108064FF0000979B156
:103B8000374D2978491C2970FCF7F6FA36683FE072
:103B9000FCF7F2FA45F625605EE0216A2943E7E783
:103BA000FCF7EAFAA7F80090206ABDE8F08790F8E1
:103BB0008810766801F00F01012918D002291ED063
:103BC00004290AD008290DD0FCF7D2FA2978491E19
:103BD00011F0FF01297033D03AE0216AD0F880203B
:103BE000114009E0216AD0F8802011400BE0D0F8A4
:103BF0008010236A0A4699438A4205D007E0D0F82C
:103C00008010226A914311B1524600F02DF816B18E
:103C1000B0680028CBD1FCF7ABFA2978491E29708F
:103C2000FCF7AAFA5FEA084001D4FFF7BFF9FCF7F6
:103C30009FFA246AFCF7A0FAA7F800902046B4E7A0
:103C40000849098821B1FCF797FA00F063FD01E00B
:103C5000FCF792FA43F6FF2038800020A5E7000029
:103C60008C0300205003002070B50025C0F884109C
:103C700080F8355080F834500446026490F83600DD
:103C800008280ED2DFE800F00D0D04040D0D0A0A1D
:103C9000204601F0C5F884F8365002E0042084F88C
:103CA00036002046BDE8704000F057BB074C084D79
:103CB000FCF75EFA2168491C21602968491C2960CB
:103CC000FCF75AFAFFF732F8F2E700004003002051
:103CD000A403002000B50E4A89B0002111600B2218
:103CE00005910691CDE907200A480B4A0B4B006865
:103CF00012681B680292CDE903013F20CDE9000361
:103D00000023074A07A10C48FFF7F0FA09B000BDED
:103D10004003002010BD00080CBD000808BD0008CD
:103D2000AD3C000875432F4F532D49494920496444
:103D30006C65205461736B00F0D100202DE9F05FB9
:103D40001E46DDE90AAB90460F4681460D9CFCF706
:103D50000FFA05461C481D4A0188128891422BD251
:103D6000491C89B201801A4802888A4200D2018027
:103D700018490868C0F80090C0E902780682C0F8C7
:103D800014A0A0F818B00C9AC261406808601248EC
:103D900001210181114901604160002000F088FB90
:103DA0000F48007808B10F4908700020208028468D
:103DB000BDE8F05FFCF7E0B90B490888401C0880BB
:103DC00044F25360F2E700005003002000BD0008F9
:103DD000520300204803002084D30020B4D20020E6
:103DE0007203002074030020540300203EB5374CBA
:103DF000374B02A920680268D51A9A4245D015DCD3
:103E0000344BD2182DD0344BD21822D0334BD21889
:103E100032D0334BDA4208D1C269CDE90021038B9D
:103E2000028AC168806800F085FF3EBD2D4AAA184D
:103E30001ED02D4BD21824D02C4BDA42F5D1C269BA
:103E4000CDE90021038B028AC168806800F05CFB29
:103E50003EBD0091028BC36941698068FFF770FE27
:103E60003EBD018BC269806802AB00F0DFFC3EBD45
:103E7000806800F0E3FF3EBD018BC269806802AB41
:103E800021E0806801F0CEF83EBD1948194900785C
:103E900000EB400001EB800000F08AFC206802ABE0
:103EA0000021C269144801F033F814480168491E22
:103EB0000160E9D1124909680160FDF707F802467F
:103EC00002AB00210F4801F023F83EBD4C03002057
:103ED0005449434BADBAB2BE0DF90BFAF2F8F7FFF5
:103EE0000006F6FF00F7FDF700FFEFFF03FE0FFEF1
:103EF0007403002084D3002048D70020DC03002076
:103F0000D80300200CD80020174D184C184E00BFC5
:103F1000FCF72EF907462088C8B13846FCF72CF983
:103F2000FCF7D4FF0746FFF761FFFCF7CFFF2968D6
:103F3000C01B814200D22860FCF71AF93168496839
:103F400031602188491E2180FCF716F9E0E7094914
:103F5000002008810860486000F0BAFA3846FCF793
:103F60000BF9FFF723F8D1E7580300205003002096
:103F70004C03002084D30020F0B52F492F4D89B089
:103F800000220A80296831B12D4E3188022905D2DC
:103F900044F2546135E044F2526132E02949002391
:103FA000294F0A60296801F1200410E041F8087BDC
:103FB0005B1C41F8082B9BB241F8042C21F8102B14
:103FC00041F80C2C21F8082C41F81C4C2034B6F890
:103FD00000C06345EAD32B6841F81C3C1B490B60C9
:103FE0001B490B601B490A801B490A801B490B684F
:103FF00053B11B4B1B4D1C682D68AC4207D244F2D9
:104000005661018009B0F0BD44F25561F9E703241F
:1040100005920692CDE907401868134B09681B68A2
:10402000CDE903020092CDE9011300230F4A10A14C
:104030001648FFF75BF9E5E75403002018BD0008B8
:1040400000BD0008580300204E4F4E454803002095
:104050004C030020500300205203002020BD000824
:1040600028BD000858BD000824BD0008093F00080D
:1040700075432F4F532D49494920495352205175BB
:10408000657565205461736B00000000B4D2002098
:10409000054B00228261196819B1C16188611860FD
:1040A0007047C261FBE7000064030020034A00215F
:1040B0001160034A118001807047000064030020F2
:1040C0006803002010B5491E8CB2002200F11003D5
:1040D000114608E0E0E80231521C20F8081B92B2B9
:1040E00040F8041C1033A242F4D301604160018106
:1040F000C16010BD70B50E4E0446306880B10D4DE4
:10410000288880B181B23068FFF7DCFF0A48316847
:104110000160298881800021C1800181218070BDDA
:1041200045F21E7001E045F21D70208070BD000058
:1041300040BD000802BD000878D3002010B54289B8
:1041400092B10A4903680C681C6043680B60CB8815
:1041500044891B1BCB808B88448923448B8000219E
:104160004181818101604160104610BD78D30020FB
:10417000018100214181818101604160704700001F
:10418000F0B54489DDE905E70589AC4202D346F282
:1041900093501EE01A4DAE88CEB12C68761ED4F82E
:1041A00000C0C5F800C0AE80EE88761CB6B2EE80C6
:1041B000B5F808C0B44500D22E814689002556B115
:1041C000DB060CD403681C60256004600AE045F23D
:1041D0001D703880F0BD04600123446004E0436832
:1041E0002360446043895B1C438186899BB29E4265
:1041F00000D2838161602281C4F80CE03D80F0BD73
:1042000078D30020034A00211160034A1180018005
:10421000704700006C030020700300202DE9F0417E
:10422000114D07460C4628680026194680F83420B0
:1042300080F8356000F0CAFC64B1FC6004F1080647
:1042400001223946286800F011F83946304600F05E
:1042500057F802E02868C687066320462968BDE84B
:10426000F04100F01BB80000E003002010B5C28749
:104270000024234601630EE04B6041F8103B641CB0
:1042800041F8103BA4B241F80C3C21F8083C41F83D
:10429000043C41F8180C9442EED310BD38B142688A
:1042A000C1F8C02081688968096AC161704791F8C6
:1042B0003400022803D0072803D004A002E004A0A1
:1042C00000E005A0C1F8C000704700002000000019
:1042D0005461736B205100005461736B2053656D02
:1042E0000000000005A2C1F8C020816811B18968F2
:1042F000096A00E001A1C1617047000020000000D0
:1043000030B58A68002392F8374002891AB1521CEE
:10431000028102680BE0012202814B600B600160A8
:1043200014E0956895F83750A54203D85268002AE2
:10433000F7D107E032B1146854B1C1E900426160BD
:10434000116030BD4B6042680A605160416030BD11
:104350001160C1E90032016030BD70B50646C48FFE
:10436000056B07E0E8682946083000F009F8641E8C
:10437000A4B22035002CF5D10020F087306370BD49
:1043800010B502890023012A0BD00A6862B14C687B
:1043900074B1546022600289521E02814B600B602E
:1043A00010BD03604360F6E74A6813600260F2E7FD
:1043B00053604260EFE7F8B50C46064691F83610B8
:1043C0000025069808293BD2DFE801F03A3A0404B8
:1043D0003A3A202094F83410032911D0E265A4F869
:1043E0006030206436B12046FFF7B7FF21463046E3
:1043F000FFF778FF204600F013FD84F836501BE0ED
:1044000000902146304600F022F8EBE794F8341093
:10441000032916D0E265A4F860302064204600F03D
:10442000D7FE36B12046FFF798FF21463046FFF70A
:1044300059FF042084F8360084F8355084F834504D
:10444000F8BD00902146304600F001F8E6E770B56F
:104450000C6B049DC98F0AE0E668864204D1C4E96A
:1044600004022383E56170BD491E89B2203400290E
:10447000F2D170BD10B50024064802E02034E4B249
:10448000001D01680029F9D00846FBF77CFE204496
:10449000C0B210BD1C03002000200449024600BF2A
:1044A00041F82020401C0228FAD370471C0300204A
:1044B00000F01F0241090120C2F11F029040034A8F
:1044C00052F82130034342F8213070471C0300208A
:1044D00000F01F0241090120C2F11F029040034A6F
:1044E00052F82130834342F8213070471C030020EA
:1044F000034A00211160034A1180018070470000C7
:10450000780300207C0300202DE9FF4F83B01F4675
:10451000DDE9109A93460646FBF72AFE294C2178DE
:10452000491C2170FBF728FE358A06F108001DB1F1
:10453000B90525D5006831E0F80601D4002300E074
:104540001023CDE9009A5A4606F120000499FFF79E
:1045500017FEFBF70DFE2178491E11F0FF012170B7
:1045600009D11949098831B1FBF706FE07B0BDE84A
:10457000F04F00F0CFB807B0BDE8F04FFBF7FCBD3F
:10458000006801255B46D0E90181CDF800903046F6
:10459000049AFFF710FF6D1E4046ADB2002DF1D119
:1045A000FBF7E6FD2178491E2170FBF7E5FD380495
:1045B00001D4FEF7FBFC0021AAF8001007B0BDE80B
:1045C000F08F00008C030020500300200020074BD8
:1045D000014600BF00EB400203EB8202401C118148
:1045E0001160C0B251604028F4D3704784D30020DA
:1045F00010B5044690F83700FFF75AFF074994F8C2
:10460000370009788842204603D1BDE8104000F009
:1046100023B8BDE8104000F003B80000720300208A
:1046200090F837100B4A01EB410102EB81010022A7
:104630000B8943B15B1C0B810B68C0E903320A682C
:1046400010610860704701230B81C260026108603D
:104650004860704784D3002090F837100A4A01EB75
:10466000410102EB810100220B893BB15B1C0B81F4
:10467000C2604A680261D0604860704701230B81C4
:10468000C26002610860F7E784D3002010B5028998
:10469000002A14D0012A12D00021022A07D0D0E922
:1046A0000024D3681961C2E90314E26005E0D0E98F
:1046B0000023C2E90313C3E90321C0E9003210BD9E
:1046C00070B5054690F83700114900EB400001EB4A
:1046D0008001D5E90302002442B10B895B1E0B81E6
:1046E000D06090B102612C61EC6070BD28B10A8984
:1046F000521E0A8104610860F5E70C810C604C6071
:1047000095F83700FFF7E4FEEDE74A60EBE70000BD
:1047100084D3002010B5FBF72BFD0B490446002085
:1047200008700B480949016051F8900F401C08605F
:1047300008480168491C0160FCF773F92046BDE890
:104740001040FBF719BD000073030020B4D2002015
:10475000E4030020B8030020044810B500780128C5
:1047600003D1FCF7B3FB0249086010BD8C030020A5
:10477000800300200A4810B5007800280ED1FCF70D
:10478000A5FB08490968401A07490A68824200D215
:10479000086006490A68824200D2086010BD000025
:1047A0008C03002080030020840300208803002065
:1047B00070B5044613480078012822D1FBF7D8FCD5
:1047C0002168054641B11048814218D08A6D3AB13E
:1047D000521E8A6513D103E0BDE87040FBF7CCBCE4
:1047E000208902280BD30948007840B92046FFF7FA
:1047F0004DFF2068416D09B9054909688165284662
:10480000EAE770BD94030020F0D100208C03002063
:1048100090030020034A00211160034A11800180A7
:1048200070470000980300209C0300202DE9F84FFA
:104830001E46904689460446FBF79AFC0146208AAC
:1048400004F108074FF0000B78B1DFF890A008469C
:104850009AF80020521C8AF80020FBF78DFC5FEAD2
:10486000895018D53D893F6822E0256A681C0AD026
:104870006D1CC4E908580846FBF77EFCA6F800B09A
:104880002846BDE8F88F0846FBF776FC46F6C5508B
:1048900030800020F5E73F6801250023B9687F6874
:1048A0001A462046CDF80080FFF785FD6D1EADB29B
:1048B000002DF2D1246AFBF75BFC9AF80020521E0F
:1048C0008AF80020FBF758FC5FEA094001D4FEF7A4
:1048D0006DFBA6F800B02046D3E700008C03002053
:1048E0001CB57A4C7A4E2068450004E028466A469A
:1048F0000021FFF71FF830780128F7D16846FEF74E
:104900003DFC744822680168914204D9B1FBF2F180
:104910005FEA010903D100680A21B0FBF1F9DFF871
:10492000B8B1DFF8B88142F2107A0026FCF7CEFA6F
:104930000190FBF71DFC6A496A4C0A6822600E6010
:10494000FBF71AFC6848236802689A422BD967482B
:10495000824202D25046012115E06548824203D2CC
:104960004FF47A700A210EE06248824202D264203B
:10497000014608E06048824203D20A204FF47A716F
:1049800001E001205146B2FBF1F15843B0FBF1F1D7
:10499000AAEB0100594980B2ABF800000A888242B4
:1049A00003D2088001E0ABF800A0FEF797FC0024DA
:1049B000FBF7DEFBD8F8005024E000BFFBF7D8FB84
:1049C0004F4F3978491C3970FBF7D6FBD5F89C005E
:1049D000C5E92760FBF7CCFB3978491E11F0FF01D0
:1049E000397007D14749098821B1FBF7C5FBFFF7AB
:1049F00091FE01E0FBF7C0FB55F8A00F0444FBF764
:104A0000B7FBED69FBF7B8FB002DD7D1F4B1374800
:104A1000844202D25546012015E03548844203D233
:104A20004FF47A750A200EE03248844202D264259F
:104A3000284608E03048844203D20A254FF47A70B1
:104A400001E001255046B4FBF0F701E00025012705
:104A5000FBF78EFBD8F800401CE000BFD4F8A000A4
:104A60006843B0FBF7F080B2504500D95046A4F837
:104A70008C00B4F88E10814201D2A4F88E0004F1AB
:104A8000AC026B46111D2046FEF77AFEFBF770FB69
:104A9000D4F8BC40FBF770FB002CDFD11A4801783A
:104AA000012903D106706846FEF768FBFCF70EFA91
:104AB0000199401A15490A68824200D208606A4684
:104AC00000214846FEF736FF30E7000044BD0008ED
:104AD000B00300205CBD0008A0030020BC03002040
:104AE000A4030020AC030020A8030020801A0600C5
:104AF00000093D00005A62020084D717A20300207B
:104B00008C030020500300209E030020B4030020EB
:104B100030B51D4A89B0002111601C4A11601C4A41
:104B200011601C4A11701C4A11701C4A136843B171
:104B30001B4B1C4D1C682D68AC4205D246F62C61FF
:104B400008E046F62B6105E0174C25783F2D04D38D
:104B500046F62A61018009B030BD03250591069112
:104B6000CDE9075011481B6812680068CDE90120A3
:104B7000CDE903312078009000230D4A0DA11248A1
:104B8000FEF7B4FBE7E70000A4030020AC0300201D
:104B9000A8030020B00300209E03002048BD0008A9
:104BA00050BD000858BD0008FCBC00084CBD000802
:104BB000E148000875432F4F532D4949492053744C
:104BC0006174205461736B0084D6002038B50446AC
:104BD000022531B16B46022200F08EFABDF80000CA
:104BE00028B184F836502046FFF76AFD38BD03200F
:104BF00084F83600F7E70000074B0022C0F8B82021
:104C0000196829B1C0F8BC10C1F8B8001860704725
:104C1000C0F8BC20FAE70000BC030020D0E92E2138
:104C200000234AB181B1C2F8BC10C1F8B820C0F865
:104C3000BC30C0F8B8307047054A116009B1C1F8FE
:104C4000B830C0F8BC307047C2F8BC30F1E70000A3
:104C5000BC030020044A00211160044A1180044A68
:104C60001160018070470000BC030020C0030020D9
:104C7000B803002070B50025056085604560C560FB
:104C8000056145610446856127A0C4E90750656256
:104C9000A562E5622564E565A4F86050294604F143
:104CA0006400FFF765FA6567A567C4F88050A4F84B
:104CB00088500020C4F8845004EB8001401CCD676C
:104CC00010F0FF00F8D06564C4F8A450C4F8A850F0
:104CD000A56384F88A50C4F8B050C4F8AC50A587D6
:104CE0004FF00040C4E9120525656565A565A4F887
:104CF0008C50A4F88E50C4F89050C4F894503434BA
:104D0000FCF7E4F8C4E91905C4F8805004F8015B25
:104D1000402004F8015B04F8015B04F8810B04A057
:104D200020C4C4E9005070BD3F5461736B000000A3
:104D3000200000002DE9FC5F9946DDE90C769246E3
:104D40008B460546FBF714FA324C2178491C21703A
:104D5000FBF712FA0DB9304805680020308095F84D
:104D60003600DFF8B88008283CD2DFE800F0040401
:104D70001E1E04041E1ECDE900764B4652465946BF
:104D800005F16400FFF7FCF9FBF7F2F92178491E01
:104D900011F0FF01217021D1B8F80010F1B1FBF73B
:104DA000EBF9BDE8FC5FFFF7B5BC95F834000228CD
:104DB000E1D153465A46294600200097FFF7FBFAF7
:104DC000FBF7D6F92178491E2170FBF7D5F95FEA88
:104DD00009401CD4BDE8FC5FFEF7E8B8BDE8FC5F05
:104DE000FBF7CAB9FBF7C4F92178491E11F0FF019E
:104DF000217007D1B8F8001021B1FBF7BDF9FFF71A
:104E000089FC01E0FBF7B8F946F62D603080BDE87B
:104E1000FC9F00008C030020E003002050030020D2
:104E200010B5044600F0D4F994F83600400704D4D5
:104E30002046BDE81040FFF7DBBB10BD70B50D4646
:104E40000446FBF795F900262E8094F836100829C1
:104E50004AD2DFE801F0040404040A23333DFBF7DF
:104E60008BF947F25310288024E0224D2978491C01
:104E70002970FBF781F994F88A00401E10F0FF00BA
:104E800084F88A0004D184F836602046FFF7C8FF12
:104E9000FBF76EF92978491E297009E094F88A1009
:104EA000491E11F0FF0184F88A1001D1012118E098
:104EB000FBF762F9BDE87040FEF778B894F88A1005
:104EC000491E11F0FF0184F88A10F1D1022108E097
:104ED00094F88A10491E11F0FF0184F88A10E7D176
:104EE000032184F83610E3E7FBF746F946F62D6018
:104EF000288070BD8C030020044808B50068FEF7C8
:104F000099FB69460020FEF7D3FA08BDE0030020B4
:104F10002DE9F84F984615468A460646FBF728F9CC
:104F20003D4C2178491C2170FBF726F90EB93B480E
:104F3000066800203A4F3564A8F8000096F836005D
:104F400046F6C55908284ED2DFE800F02626222270
:104F500026262222FBF710F9FFF7DCFB02E000BF58
:104F6000FBF70AF9A8F800900020BDE8F88F6D1C47
:104F70007564FBF7FDF82178491E11F0FF012170DF
:104F80002ED1398861B3FBF7F7F8FFF7C3FB40E098
:104F900096F8340007280ED0756C681CE7D1FBF733
:104FA000E7F82178491E11F0FF012170D8D1398826
:104FB0000029D5D0CEE700231A4631461846009581
:104FC000FFF7F9F9756CFBF7D3F82178491E2170CA
:104FD000FBF7D2F85FEA0A401BD4FDF7E7FF18E0C1
:104FE000FBF7CAF815E0FBF7C3F82178491E11F06A
:104FF000FF01217006D1398821B1FBF7BDF8FFF719
:1050000089FB01E0FBF7B8F846F62D60A8F8000030
:1050100000252846A9E700008C030020E0030020BB
:10502000500300202DE9F0410F460446FBF7A0F89D
:10503000244904B90C680968234D8C4206D12978AB
:1050400021B1FBF799F846F6635038E0002139802A
:1050500094F83610012608292DD2DFE801F0041754
:105060001F21272727272978491C2970FBF784F857
:10507000042084F8360084F88A602046FFF720FB7D
:10508000FBF776F82978491E297001E0052108E030
:10509000FBF772F8BDE8F041FDF788BF062100E09C
:1050A000072184F8361084F88A60F1E714F88A1F23
:1050B000491C2170ECE7FBF75FF846F62D6038805D
:1050C000BDE8F081E00300208C03002010B5002033
:1050D0000146074C074B06E004EBC002401C116080
:1050E0009180D18080B21A889042F5D310BD000023
:1050F000E0CE002004BD0008F0B5324C47F27E2619
:1051000025680024042A08D0B1B32E4E082A366838
:105110000E440BD0C0E9136115E04A1B521E12F574
:10512000803F2AD8521CC0E913120CE0826C0A445A
:10513000571B7F1E8F4201D2C26400E0C664C16C5F
:105140004A1B02658164204AC16C1288B1FBF2F6E9
:1051500002FB16111D4A89B202EBC102918889B186
:105160001168F1B1CE6C761B0E65076DB74212D98E
:105170004E6966B13146F5E7FFE7C4640465C46172
:105180001E80F0BD44618461012110600BE0C0E924
:105190000541486105E08D6975B1C0E90515686193
:1051A00088619188491C9180D58889B28D4200D24E
:1051B000D180C2611C80F0BDC0E905148861106017
:1051C000EFE70000C403002004BD0008E0CE00208B
:1051D00010B5C269002A15D0002101651368834209
:1051E00004D14369136033B1996104E0D0E9053417
:1051F000636103B19C6141618161C161C164908857
:10520000401E908010BD000010B500200446064BE3
:10521000064A04E003EBC001401CCC8080B2118838
:105220008842F7D310BD0000E0CE002004BD000886
:105230002DE9F05FFAF79CFF4B4D2978491C297046
:10524000FAF79AFFFBF742FEDFF82081074648494C
:10525000D8F800004FF00009401CC8F80000098889
:105260004FF0030AB0FBF1F201FB1200414980B29A
:105270004FF0040B51F83040DCB394F83600666907
:10528000082851D2DFE800F0500450115028503661
:10529000E06CD8F80010421A2265884246D184F8A2
:1052A00036902046FFF7BCFD3EE0E06CD8F80010D9
:1052B000421A2265884239D1C4F85C90A4F8609003
:1052C000FBF704FE20642046FFF747F82046FFF76F
:1052D000A7FD84F8369023E0E06CD8F80010421A5D
:1052E0002265884222D184F836B02046FFF770FF4D
:1052F0001AE01BE0E06CD8F80010421A22658842E0
:1053000014D1C4F85C90A4F86090FBF7DFFD206432
:105310002046FFF722F82046FFF75AFF84F836B000
:1053200084F835A084F834903446A5E7FBF7CEFD29
:105330001149C01B0A68824200D20860FAF718FFC0
:105340002978491E11F0FF01297008D10B490988FD
:1053500029B1FAF711FFBDE8F05FFFF7DBB9BDE84F
:10536000F05FFAF709BF00008C030020C40300209F
:1053700004BD0008E0CE0020C80300205003002038
:105380001CB5084C00216B4601AA0846FEF75AF9E5
:10539000BDF800000028F5D120780128F2D1FFF7F0
:1053A00047FFEFE74503002030B504461A4889B0AF
:1053B0000025056019480560FFF788FE1848016858
:1053C00041B11849184B0A681B689A4205D247F246
:1053D000132008E047F2122005E0144A13783F2B0F
:1053E00004D347F21120208009B030BD0B2305956E
:1053F0000695CDE907340E4B096800681B68CDE9B6
:105400000103CDE90315107800900023094A0AA191
:105410000E48FDF76BFFE7E7C4030020C803002038
:1054200060BD000868BD000858BD0008FDBC00084C
:1054300064BD00088153000875432F4F532D49491F
:1054400049205469636B205461736B0048D7002076
:1054500030B52A4A89B00021294B1160294C2A4ACB
:105460001D681DB12468B4FBF5F303E023680A242A
:10547000B3FBF4F313601A46244B274D274C1A60F4
:10548000234A1160234A1160002206E005EBC203A3
:10549000521C9980D98092B2196023889A42F5D320
:1054A0001F4B1A6842B11F4A1F4D14682D68AC4249
:1054B00005D247F2483108E047F2473105E01B4C7E
:1054C00025783F2D04D347F24631018009B030BD25
:1054D0000B2505910691CDE907501068144A1B6809
:1054E0001268CDE90301CDE9013220780090002354
:1054F000104A11A11648FDF7F9FEE7E7CC0300209A
:1055000074BD00085CBD0008D8030020DC03002047
:10551000D4030020D003002068D1002006BD00087D
:1055200078BD000880BD000858BD0008FEBC00081A
:105530007CBD00081556000875432F4F532D49496F
:10554000492054696D6572205461736B000000003E
:105550000CD8002070B5022280F82A20204A0129A8
:1055600014681ED0016AE1B11E4A2144816112888B
:10557000B1FBF2F302FB13121B4B92B203EBC2021C
:10558000002315687DB1091BC1611168D1B18D6916
:105590002D1BCD61C669AE420ED90D6945B12946B4
:1055A000F5E7416AE0E703614361106001200BE029
:1055B000C0E90431086105E04C6964B1C0E9041434
:1055C000206148619088401C9080D18880B28142DF
:1055D00000D2D08070BDC0E9041348611060F1E7CB
:1055E000D403002006BD000868D1002010B50020BB
:1055F0000446064B064A04E003EBC001401CCC8085
:1056000080B211888842F7D310BD000068D1002015
:1056100006BD00081CB5DFF89090DFF890A0244D7F
:10562000DFF890B000216B4601AA0846FEF70AF8A1
:105630006846FDF7F5FCFBF749FC064628684FF085
:105640000308401C2860B9F80010B0FBF1F201FB20
:10565000120080B25AF83040C4B1A06929682769A5
:10566000884213D1204600F027F8208D022808D068
:1056700084F82A80A26812B12046E16890473C462F
:10568000EAE701212046FFF765FFF3E7FBF71EFC81
:10569000841B6846FDF712FDDBF80010A142C1D261
:1056A000CBF80040BEE7000006BD000868D100202E
:1056B000D4030020D003002010B5104A816912885D
:1056C000B1FBF2F302FB13110D4A89B202EBC102E6
:1056D000002314680169844203D1116029B14B6130
:1056E00003E04469216101B14C61012180F82A1075
:1056F000036143619088401E908010BD06BD000884
:1057000068D100202DE9F04704F0A4F9012874D1F4
:105710007E4E8046C6F89081322002F0BBFA4FF0F0
:105720000009C6F890917A4D7A4C2878012833D137
:105730002088000430D478A001F036FD04F0E6FEA5
:105740002878012828D12088000425D473A001F0EE
:105750002BFD04F0DBFE287801281DD120880004F1
:105760001AD473A001F020FD04F0D0FE287801289F
:1057700012D1208800040FD46EA001F015FD04F0B2
:10578000C5FE2878012807D12088000404D46CA025
:1057900001F00AFD04F0BAFE6B4FB87809285FD219
:1057A000DFE800F0131624340561614250002878C8
:1057B000012807D12088000404D464A001F0F4FC7F
:1057C00004F0A4FEFBF7A0FB4DE002F09DFA4AE0D6
:1057D0002878012807D12088000404D464A001F0AF
:1057E000E3FC04F093FE01F087F83CE02878012800
:1057F00009D12088000406D400E085E064A001F00F
:10580000D3FC04F083FE03F06DF82CE02878012827
:1058100007D12088000404D466A001F0C5FC04F080
:1058200075FE02F069FF1EE02878012807D1208864
:10583000000404D466A001F0B7FC04F067FE03F096
:10584000C5FA10E02878012807D12088000404D484
:1058500065A001F0A9FC04F059FEFCF783FB02E00F
:105860000A2002F017FAC6F89081322002F012FAEC
:10587000C6F8909187F8019003F0D4F928780128B0
:105880003ED1208800043BD423A001F08DFC04F01D
:105890003DFE2878012833D12088000430D41FA091
:1058A00001F082FC04F032FE2878012828D12088FB
:1058B000000425D41EA001F077FC04F027FE287810
:1058C00001281DD1208800041AD41AA001F06CFC14
:1058D00004F01CFE2878012812D1208800040FD47F
:1058E00017A001F061FC04F011FE2878012807D10F
:1058F0002088000404D445A001F056FC04F006FE04
:10590000BDE8F04700F072BDBDE8F087000022421C
:105910002A000020FC0200200D0A0000456D62658F
:1059200064646564427265616B6572436F726500A1
:10593000400000003C2F4D41545249583E000000A9
:105940003A7E232000000000380000204465746582
:10595000637420436F6D6D756E69636174696F6EFA
:10596000205465737420526571756573740D0A0057
:10597000536F66747761726520436F6E74726F6CDB
:10598000204D43552052657365740D0A00000000D8
:105990004E20517565656E205175657374696F6E23
:1059A000204D4355204162696C69747920546573B8
:1059B000740D0A004D435520536C6565702F537567
:1059C0007370656E6420546573740D0A00000000E6
:1059D00050726F746F636F6C2053657474696E6777
:1059E000205552430D0A000050726F746F636F6C44
:1059F00020436F6E74726F6C204572726F722D57F8
:105A000061726E696E670D0A000000004C6F6720BE
:105A10004F726465722045786563757465204669C8
:105A20006E69736865642054696D650D0A00000035
:105A300010B5042000F07CF8012805D10420FBF704
:105A4000C3FB0420FBF790FEBDE810404FF480300C
:105A5000FBF728BE3EB500F047F90121080700F02A
:105A60000DF90121084600F021F94FF48034204659
:105A7000FBF718FE00208DF804000C2000948DF830
:105A8000050001248DF806406846FBF735FE00212D
:105A9000E006FCF7BDFC8DF8084002208DF80900F7
:105AA0008DF80A408DF80B4002A8FCF775FCC02069
:105AB00000F04EF803480078012800D0002000F0E4
:105AC00041F83EBD2C0000200149086270470000EB
:105AD00000000E420748016841F0040101600168BE
