:020000040800F2
:1000000060DC002045010008C52200083D180008FA
:10001000511C0008350B0008C169000800000000F1
:100020000000000000000000000000000D6000085B
:10003000830E000800000000EB080008DD610008E6
:100040005F010008195300085F0100084D5A0008BD
:100050005F0100085F0100084D1300085F01000800
:100060005F0100085F0100085F0100085F010008F0
:100070005F0100085F0100085F0100085F010008E0
:100080005F0100085F0100085F0100085F010008D0
:100090005F0100085F0100085F0100086D130008A0
:1000A0005F0100085F0100085F0100085F010008B0
:1000B0005F0100085F010008CD6200085F010008D1
:1000C0005F0100085F0100085F0100085F01000890
:1000D0005F01000885650008A16600085F0100084F
:1000E0005F0100085F0100085F0100085F01000870
:1000F0005F0100085F0100085F0100085F01000860
:100100005F0100085F0100085F0100085F0100084F
:100110005F0100085F0100085F0100085F0100083F
:100120005F0100085F0100085F0100085F0100082F
:10013000DFF80CD000F080FB00480047D57E0008B7
:1001400060DC00200648804706480047FEE7FEE7DF
:10015000FEE7FEE7FEE7FEE7FEE7FEE7FEE7FEE777
:10016000456200083101000872B6704762B67047F8
:10017000EFF3108072B6704780F31088704730BF7D
:10018000704720BF7047B0FA80F0704790FAA0F037
:10019000B0FA80F0704790FAA0F070472DE9F05F58
:1001A0000546002092469B468846064681464024E6
:1001B0001BE0284641464746224600F06EFA534669
:1001C0005A46C01A914110D311461846224600F0F3
:1001D00055FA2D1A67EB01084F46224601200021EF
:1001E00000F04CFA17EB00094E41201EA4F1010467
:1001F000DFDC484631462A464346BDE8F09F30B42E
:1002000080EA010202F0004530F0004221F0004097
:1002100013D090B1C30DD40DC2F31601C0F3160074
:10022000E41A41F4000140F400027D34914201D30C
:10023000641C00E04900002C02DA30BC002070474A
:100240004FF400000023914201D3891A0343400870
:100250004FEA4101F7D151B1914202D14FF0004133
:1002600005E002D24FF0010101E06FF0010103EB64
:10027000C450284430BC00F032BA2DE9FE4F80460D
:1002800081EA0300C00F0C46009021F0004123F0EA
:100290000045B8EB0200A94105D2404621469046F0
:1002A0001C460B46024623F00040104347D0270D62
:1002B000C7F30A00C3F30A510290401A0190402884
:1002C0006BDAC3F3130040F4801B0098924620B110
:1002D0000023D2EB030A63EB0B0B01985946C0F1E4
:1002E0004002504600F0CAF906460D4650465946AF
:1002F000019A00F0E2F910EB08006141002487EA5E
:10030000115284EAE7731A4340D0009A62B3019A0B
:10031000012A4FEA075215DC001B61EB02014FF086
:10032000004202EA0752CDE90042001C41F580116B
:1003300032462B4600F019FA03B0BDE8F08F404674
:100340002146F9E7001B61EB0201001C41F5801317
:1003500000185B412018A2F5001747EB030140EAA3
:10036000D570B6196D4111E06D084FEA360645EAC1
:10037000C0754FEA0752001B61EB0201001C41F5FA
:10038000801149084FEA30000019514132462B468E
:1003900003B0BDE8F04F00F0D9B900980122400049
:1003A0000023D0EB020263EBE073009821464FEA92
:1003B000E074B8EB000061EB0401E9E783F000436F
:1003C0005BE781F0004158E72DE9FE4F81EA030425
:1003D00004F0004421F0004100944FF0000B23F0A2
:1003E000004350EA01045ED052EA03045BD0C3F339
:1003F0000A54C1F30A552C44A4F2F3340194A0FB2F
:100400000254C1F3130141F48011C3F3130343F405
:10041000801301FB024400FB034E840A970A44EA5E
:10042000815447EA8357A4FB076802958D0A05FBB0
:1004300007854FEA932C04FB0C542705029D4FEAD5
:10044000065847EA1637B5EB08056EEB070C870E22
:10045000920E47EA811742EA8312A7FB0201B6EB2C
:100460000B0164EB00042B0D43EA0C335E1844EBE4
:100470001C50DA465146E7FB0201C5F313044FEA6C
:100480000B3343EA14534FEA0432019C43EA060358
:10049000A4F10C040294009CCDE900B400F065F9CD
:1004A00003B0BDE8F08F00200146F9E72DE9F04DDB
:1004B00081EA030404F0004B21F0004514464FF09C
:1004C000000A23F0004150EA050220D054EA01025C
:1004D0001DD0C5F30A570246C5F31303C1F3130039
:1004E000C1F30A5640F4801543F48013A7EB0608C5
:1004F000101BD64608F2FD3873EB050002D308F155
:10050000010801E092185B41B8F1000F03DA002006
:100510000146BDE8F08D00204FF480110646844668
:100520000EE0171B73EB050705D3121B63EB0503E6
:1005300006434CEA010C49084FEA300092185B412F
:1005400050EA0107EDD152EA030012D082EA04001A
:1005500083EA0501084305D0101BAB4106D20122F6
:10056000002306E000224FF0004302E06FF001029A
:1005700053101AEB06004CEB085110EB0A0041EB4C
:100580000B01BDE8F04D00F0E1B8962300221146C2
:1005900000F0AEB80EB540F2334102910021CDE932
:1005A00000110A460B4600F0E0F803B000BD00F071
:1005B000004230F000400AD0C10D01F56071C0F377
:1005C000160042EA0151C20840071143704700205B
:1005D0000146704730B5041E71F1000404DB4FF092
:1005E0000044404264EB0101141E73F1000405DB7A
:1005F0001C464FF00043524263EB0403994208BF8C
:10060000904230BD01F0004330B421F0004150EA87
:10061000010206D00A0DA2F56072C1F31301002A8F
:1006200002DC30BC00207047440F44EAC104C10022
:10063000E01830BC00EBC25000F051B8002801DBDC
:10064000C0F10040002901DBC1F100418142704747
:1006500030B50B46014600202022012409E021FA92
:1006600002F59D4205D303FA02F5491B04FA02F58F
:100670002844151EA2F10102F1DC30BD202A04DB62
:10068000203A00FA02F1002070479140C2F12003A5
:1006900020FA03F3194390407047202A04DB203AE4
:1006A00021FA02F00021704721FA02F3D040C2F192
:1006B00020029140084319467047202A06DBCB17D9
:1006C000203A41FA02F043EAE07306E041FA02F30D
:1006D000D040C2F1200291400843194670470029DA
:1006E000A8BF7047401C490008BF20F001007047B8
:1006F00010B4B0FA80FC00FA0CF050EA010404BF18
:1007000010BC704749B1CCF1200421FA04F411FA6D
:100710000CF118BF012121430843A3EB0C01CB1DB1
:100720004FEA00614FEA102042BF002010BC704722
:1007300000EBC35010440029A4BF10BC7047401CFC
:10074000490008BF20F0010010BC704710B5141E0E
:1007500073F1000408DA401C41F1000192185B417A
:100760001A4301D120F0010010BD2DE9F04D924651
:100770009B4611B1B1FA81F202E0B0FA80F2203268
:100780009046FFF77BFF04460F4640EA0A0041EA25
:100790000B0153465A46084313D0114653EA010051
:1007A00019D0C8F140025046FFF777FF05460E46C4
:1007B000504659464246FFF761FF084305D00120E5
:1007C00004E020463946BDE8F08D0020054346EAA6
:1007D000E0762C4337430A986305E40AA0EB08004F
:1007E0000022FD0A44EA47540A3002D5002001469F
:1007F000E9E7010510196941DDE90845001969417A
:10080000BDE8F04DA2E7C1F30A52C1F3130140F273
:10081000FF3341F480119A4202DA0020014670470A
:1008200040F233439A42A2F2334202DC5242FFF7D3
:1008300034BFFFF723BF0000064C074D06E0E06819
:1008400040F0010394E8070098471034AC42F6D317
:10085000FFF772FC049600082496000870B58C1807
:1008600010F8015B15F0070301D110F8013B2A11C4
:1008700006D110F8012B03E010F8016B01F8016BB1
:100880005B1EF9D12B0705D40023521E0DD401F8AD
:10089000013BFAE710F8013BCB1A921C03E013F876
:1008A000015B01F8015B521EF9D5A142D8D30020AB
:1008B00070BD00001D484FF6FF710170002080F3ED
:1008C00009881B48016881F308881A484FF0805155
:1008D000016062B6FEE717484FF080510160704733
:1008E00014484FF080510160704772B6EFF30980F1
:1008F00028B1203880E8F00F0F490968086000B57A
:100900000E4880475DF804EB0D480E490A780270E6
:1009100009480D490A680260106890E8F00F20301D
:1009200080F309884EF0040E62B6704722ED00E0B5
:100930008C03002004ED00E084030020B5310008A2
:100940001603002017030020880300200029816877
:1009500002D041F0010101E021F001018160704706
:100960000D4910B5884202D1012144150AE00B4916
:10097000884202D10121041504E0094988420AD1C4
:100980000121CC03204604F015FE2046BDE81040AE
:10099000002104F00FBE10BD0024014000280140DA
:1009A000003C0140014600208968490700D501202C
:1009B0007047C06C80B270470246002012680A423D
:1009C00000D001207047014600208968090700D542
:1009D0000120704710B542680E4B0C791A400B6825
:1009E00042EA04221343436083680B4A1340D1E96F
:1009F000024222434C7943EA44031A438260C26AAA
:100A0000097C22F47002491EC9B242EA0151C16256
:100A100010BD0000FFFEF0FFFDF7F1FF70B50724E9
:100A200009290AD9C568A1F10A0606EB4606B440B1
:100A3000A543B3401D43C56007E0056901EB4106CE
:100A4000B440A543B3401D4305611F23072A09D2C3
:100A5000446B521E02EB820293409C4391400C4334
:100A6000446370BD0D2A09D2046BD21F02EB8202CF
:100A700093409C4391400C43046370BDC46A0D3A9B
:100A800002EB820293409C4391400C43C46270BDD0
:100A9000816841F00801816070470029816802D0B7
:100AA00041F4A00101E021F4A00181607047816858
:100AB00041F004018160704705490028086802D0B0
:100AC00040F4000001E020F40000086070470000DE
:100AD0000824014010B5012004F078FDBDE8104065
:100AE000002004F073BD000008B5024908440090DE
:100AF000008808BD006C004008B5024A1044009010
:100B0000016008BD006C004000B585B0684604F087
:100B1000B5FD019805B000BD1FB5002301220449B1
:100B200010208DE80F000322014608F09DFA1FBD3A
:100B30000010014010B5054C092000F0DBF9092038
:100B400000F0AEFC20780128F6D110BDBA020020DA
:100B5000044910B50020086000F01CF8BDE8104002
:100B600000F002B8BC02002010B5FFF701FB0446FC
:100B70001021044801F036FA2046BDE81040FFF786
:100B8000FBBA0000E0BC002001490860704700008B
:100B9000BC02002010B5FFF7B7FF08490A6842F011
:100BA00080720A60064900224A600A6842F0010227
:100BB0000A60BDE81040FFF7E7BF0000FCED00E071
:100BC000001000E00148406870470000001000E09D
:100BD00070B50A4D0024012000F02CFF032802D13B
:100BE0002878012801D0002070BD641CE4B21E20CA
:100BF00006F020FC642CEED3012070BD33000020F1
:100C000070B5234D2878012841D1224C208800045A
:100C10003DD421A005F004FF08F092FC28780128BB
:100C200035D12088000432D41CA005F0F9FE08F06C
:100C300087FC287801282AD12088000427D41CA00A
:100C400005F0EEFE08F07CFC287801281FD12088F2
:100C500000041CD417A005F0E3FE08F071FC28780E
:100C6000012814D12088000411D415A005F0D8FE65
:100C700008F066FC2878012809D12088000406D4F1
:100C800011A005F0CDFEBDE8704008F059BC70BD64
:100C90002B000020B20200200D0A0000456D6265A5
:100CA00064646564427265616B6572436F7265006E
:100CB000400000003C2F4D41545249583E00000076
:100CC0003A7E232000000000436F6D6D756E6963EE
:100CD0006174696F6E205375636365737366756CB9
:100CE0000D0A000001684FF6FE72114001600021FC
:100CF000016041608160C1603149314A08399042E8
:100D000003D1486840F00F0006E02D4A14329042AB
:100D100004D1486840F0F00048607047284A283203
:100D2000904203D1486840F47060F5E7244A3C32B1
:100D3000904203D1486840F47040EDE7204A5032B9
:100D4000904203D1486840F47020E5E71C4A6432C1
:100D5000904203D1486840F47000DDE7184A7832C9
:100D6000904203D1486840F07060D5E7154A111FE2
:100D7000904203D1086840F00F0006E0114A143297
:100D8000904204D1086840F0F000086070470D4AB6
:100D90002832904203D1086840F47060F5E7094AB0
:100DA0003C32904203D1086840F47040EDE7054AB8
:100DB00050329042EAD1086840F47020E5E7000024
:100DC000080002400804024000B589B000204FF43A
:100DD0000051CDE9060180210890CDE9020105907E
:100DE000049010220548CDE90002054B0022054978
:100DF000012008F0ECF809B000BD0000DEB00020D2
:100E0000043801404400024000B589B000204FF48E
:100E10008051CDE9060180210890CDE902010590BD
:100E2000049010220548CDE90002054B0022054937
:100E3000012008F0CCF809B000BD0000E0B40020AB
:100E4000044400408000024030B5036847F6F07269
:100E500093430C6A8A682243D1E904452C43224318
:100E60008C692243CC6922434C6A22438C6A224318
:100E70001A430260CA6842600A6882604968C160B9
:100E800030BD704701B5009801E0401E0090002879
:100E9000FBD108BD10B56FF0040005F092F91048C1
:100EA0001049134C02681048B2FBF1F30370B2FB17
:100EB000F1F30E4A11681268B4FBF1F159434FF493
:100EC0007A73B3FBF2F242804FF0E020026942F005
:100ED000020202614161016941F00101016110BD3D
:100EE0001400002000127A00AE020020D095000805
:100EF00040420F002DE9F04707469B4807709B488A
:100F00000078012871D19A4D9A4C2878012833D164
:100F10002088000430D498A005F082FD08F010FB72
:100F20002878012828D12088000425D493A005F032
:100F300077FD08F005FB287801281DD120880004E2
:100F40001AD493A005F06CFD08F0FAFA287801286D
:100F500012D1208800040FD48EA005F061FD08F0A6
:100F6000EFFA2878012807D12088000404D48CA047
:100F700005F056FD08F0E4FADFF82CA24FF0010866
:100F80008A4E4FF00009012F404672D0C6F89001FA
:100F9000322006F04FFAC6F89091CAF8A091844921
:100FA000C1F888812878012807D12088000404D45A
:100FB00080A005F035FD08F0C3FA0A2F79D2DFE8EA
:100FC00007F0786C050D171F275059612878012804
:100FD00063D12088000460D47BA05AE028780128DF
:100FE0005BD12088000458D400E0BAE07CA050E037
:100FF0002878012851D1208800044ED481A048E0EF
:101000002878012849D12088000446D487A040E0F0
:101010002878012841D1208800043ED48BA005F017
:10102000FFFC08F08DFA9548016895A005F0F8FCE2
:1010300008F086FA9148001D016895A005F0F0FCC3
:1010400008F07EFA8D480830016895A005F0E8FCAC
:1010500008F076FA89481430016895A005F0E0FCA4
:1010600019E02878012818D12088000415D494A00C
:101070000FE022E0287801280FD1208800040CD44A
:1010800097A006E02878012807D12088000404D41E
:1010900098A005F0C5FC08F053FAC6F890813220FC
:1010A00006F0C8F9C6F890912878012816D054E0C7
:1010B000FFE70A2006F0BEF9EFE7CAF8A001C6F87C
:1010C0009001322006F0B6F9C6F8909128780128F0
:1010D000E3D120880004E0D48AA0DAE72088000465
:1010E0003BD425A005F09CFC08F02AFA28780128BA
:1010F00033D12088000430D420A005F091FC08F002
:101100001FFA2878012828D12088000425D420A09F
:1011100005F086FC08F014FA287801281DD12088F3
:1011200000041AD41BA005F07BFC08F009FA28780B
:10113000012812D1208800040FD419A005F070FCFA
:1011400008F0FEF92878012807D12088000404D48B
:1011500077A005F065FC08F0F3F9BDE8F04704F06E
:10116000C1BDBDE8F0870000BA0200202A000020BF
:101170002B000020B20200200D0A0000456D6265C0
:1011800064646564427265616B6572436F72650089
:10119000400000003C2F4D41545249583E00000091
:1011A0003A7E23200000000000002142000022427D
:1011B000008022425B214552524F5221214552521A
:1011C0004F52215D20000000456D657267656E63BA
:1011D000792053746F702050726573730D0A00008C
:1011E0005265636569766520446174612045727259
:1011F0006F7220576974682050726F746F636F6CE0
:101200000D0A0000436F6E74726F6C6C657220493A
:101210006E7465726661636520566F6C7461676594
:10122000204572726F720D0A000000004D43552078
:10123000496E6E65722054656D7065726174757269
:1012400065204578636573730D0A0000403058458A
:1012500030303045443238205374617475732D52E8
:10126000656769737465722048617264776172653D
:10127000204661756C740D0A0000000028ED00E046
:10128000434653523A2009252338780D0A000000BE
:10129000484653523A2009252338780D0A000000A9
:1012A000444653523A2009252338780D0A0000009D
:1012B000414653523A2009252338780D0A00000090
:1012C000496E70757420566F6C74616765204C6F41
:1012D000776572207468616E203138560D0A0000FF
:1012E0004D4355205573616765204661756C740DDB
:1012F0000A0000004D435520427573204661756C0D
:10130000740D0A005B21434C4541522121434C4559
:101310004152215D204E6F204572726F72206F72B4
:10132000204572726F722D436C6561720D0A000068
:101330004C6F672045572D52756C65722041637460
:101340006976652054696D650D0A000010B501F0DD
:101350009FF9012000F02EF8FFF73AFC08B104F0E5
:101360004DFFBDE8104001F0A3B9000010B501F039
:101370008FF90F480078012811D100F05BFB042899
:101380000DD10220FFF7B6FD022000F089F8012000
:1013900000F050FB0428FAD00120FFF7ABFD4FF41A
:1013A000807000F007F8BDE8104001F081B900003E
:1013B000310000200149086070470000140401401A
:1013C0001FB50121084604F0E9F809480078012812
:1013D0000DD100F0FDFA0822012000921721CDE97D
:1013E0000110002302020821039007F015FE1FBD23
:1013F0003100002030B51A498379026853B30B6875
:1014000093430B600A1D13680468A34313600279B9
:101410000A441368046823431360114A08321368AE
:101420000468A3431360131D1C680568AC431C606B
:101430004479102C05D021440A68006802430A60F0
:1014400030BD1168046821431160196800680143C8
:10145000196030BD0079084401689143016030BDD6
:10146000000401400D4810B50078002814D1012077
:1014700000F0E0FA04280FD10220FFF73BFD022024
:1014800000F00EF8012000F0D5FA0428FAD0BDE8EB
:1014900010400120FFF72EBD10BD000031000020DC
:1014A0002DE9F04107463E4800240078012874D118
:1014B0003C480078012870D13B4E3C4D30780128E3
:1014C0003ED1288800043BD439A005F0A9FA08F0E1
:1014D00037F83078012833D12888000430D435A07B
:1014E00005F09EFA08F02CF83078012828D12888D9
:1014F000000425D434A005F093FA08F021F83078E0
:1015000001281DD1288800041AD430A005F088FADB
:1015100008F016F83078012812D1288800040FD47A
:101520002DA005F07DFA08F00BF83078012807D1DE
:101530002888000404D42AA005F072FA08F000F804
:101540002B48C0F8B87129882F46090418D40546DD
:1015500005EB8400D0F8B01126A005F061FA07F081
:10156000EFFF641CE4B2122CF2D33078012814D1BE
:101570003888000411D40EA005F052FA07F0E0FFFD
:101580003078012809D13888000406D408A005F075
:1015900047FABDE8F04107F0D3BFBDE8F081000095
:1015A0002F000020350000202B000020B202002078
:1015B0000D0A0000456D6265646465644272656190
:1015C0006B6572436F726500400000003C2F4D4117
:1015D000545249583E0000003A7E2320000000008B
:1015E000455746204D6573736167653A20000000DA
:1015F00040000020253032786464000004490A6805
:1016000022F010020A600A6802430A607047000074
:1016100000200240034A116801F0380101431160C3
:101620007047000000200240104810B501781048B3
:1016300000230129027808D10E490C780E4914B113
:10164000322A09D001E0C1F88831322A00D903706A
:101650000178491C017010BDD1F888211AB100220F
:10166000C1F88821F4E70122FAE70000BA0200205D
:10167000AD020020280000200080224210B58A0719
:1016800021F003040649130F21440F228C689A406D
:1016900094438C608A68984002438A6010BD0000C1
:1016A00000000140F0B5CA78002502F00F03D20611
:1016B00001D58A7813430A784FF00F0E12F0FF0F0E
:1016C0004FF001021CD004680F8802FA05F637407B
:1016D000B74211D14FEA850C0EFA0CF724EA07073E
:1016E00003FA0CF43C43CF78282F02D0482F02D0C5
:1016F00002E0466100E006616D1C082DE4D3046041
:101700000C88FF2C1ED944685FF0000606F108071C
:1017100002FA07F50F882F40AF420FD14FEA860C2F
:101720000EFA0CF7BC4303FA0CF73C43CF78282F92
:1017300000D14561CF78482F00D10561761C082E75
:10174000E4D34460F0BD0000F0B5144C002801DA89
:10175000E36900E06368420D120185B2C0F30157EE
:101760009540C0F30346032F05D0C2020AD50322D9
:10177000B240934307E023F07062636823F0706324
:10178000636002E0AB4343F0706201B12A4300287A
:1017900001DAE261F0BD6260F0BD000000000140CE
:1017A0000246002092680A4200D001207047416141
:1017B00070470161704700B585B0684603F05EFF71
:1017C000019805B000BD000010B50E4801680E4834
:1017D0000C4A121F016012680A4B4260083B1B68EA
:1017E00083600A48007801280AD10948008800046B
:1017F00006D408A005F014F9BDE8104007F0A0BE1B
:1018000010BD0000F0F7FF1FB01300202B000020D8
:10181000B20200200D0A4368697020536572696145
:101820006C4E756D2049443A2025233038582D25BB
:101830003038582D253038580D0A000010B5054CA9
:101840000620FFF757FB0620FFF72AFE2078012825
:10185000F6D110BDBA02002070B50A4C0120C4F8C0
:10186000B401C4F8BC0104F5DA7405F00BFE0025E0
:10187000A560012005F006FE2560BDE8704001204E
:1018800005F000BE0080214270B5074C0020C4F86E
:10189000BC010125C4F8B451284604F5DA7405F0FA
:1018A000F1FDA56070BD00000080214270B50A4CBA
:1018B0000125C4F8BC51284604F5DA7405F0E2FDB0
:1018C0002560012005F0DEFD00202060BDE87040AD
:1018D000012005F0D7BD00000080214210B504466C
:1018E000FFF7BAFF782000F019F8FFF7DFFF0120BB
:1018F00005F0C8FD002000F011F8FFF7D7FF012028
:1019000005F0C0FD204600F009F8FFF7CFFF0120E9
:1019100005F0B8FDBDE81040FFF7B6BF2DE9F04176
:101920000025124C0646A8460127300602D5C4F809
:10193000BC7101E0C4F8BC81012005F0A3FDC4F82E
:10194000B471012005F09EFDC4F8B481072D01D1CA
:10195000C4F8BC717006060E012005F093FD6D1CE5
:10196000EDB2082DE1D3BDE8F081000000802142F6
:1019700010B50446FFF770FF7820FFF7CFFFFFF7A1
:1019800095FF4020FFF7CAFFFFF790FF012005F009
:1019900079FD2046FFF7C2FFFFF788FF012005F021
:1019A00071FDBDE81040FFF76FBF81070CD16421C6
:1019B000B0FBF1F201FB120141B94FF4C871B0FB69
:1019C000F1F201FB120008B10020704701207047BE
:1019D0007FB5144820210024CDE900100225124EC5
:1019E000CDE90254334622464821112007F03CFB42
:1019F0000E4848F20101CDE90010CDE9025433460A
:101A000000224821052007F02FFB0948CDE90254A8
:101A10008115CDE90010334600224821082007F047
:101A200023FB7FBD00100140000230000008014090
:101A3000000C01402DE9F047314C324FDFF8C8A0CF
:101A4000324D01264FF400484FF4807908B12670DA
:101A500001E02078A8B120213846FFF7A1FEB8B1F7
:101A600041462846FFF79CFE90B101212846FFF72A
:101A700097FE01280CD049465046FFF791FE0128F9
:101A800006D020213846FFF78BFE012824D035E010
:101A90000A2005F0CFFC0020207020213846FFF7F7
:101AA0007FFE80B141462846FFF77AFE70B10121E2
:101AB0002846FFF775FE58B149465046FFF770FEBD
:101AC000012807D01AE00120BDE8F0870220FBE7DB
:101AD0000320F9E70420F7E741462846FFF760FEB8
:101AE00001280BD101212846FFF75AFE012805D114
:101AF00049465046FFF754FE00B926700020E3E740
:101B0000AC02002000100140000C01400008014020
:101B10001FB51348002481150091CDE90104234627
:101B2000032210210420039407F09EFA042100915F
:101B30000C48CDE901040023032210212020039446
:101B400007F092FA4FF4C05100910748CDE9010423
:101B50001021002303220846039407F085FA1FBDD5
:101B6000000801400014014000100140094810B570
:101B7000007801280DD181020748FFF711FE0028E7
:101B800007D10720FFF7B6F9BDE810400720FFF79F
:101B900087BC10BD32000020001001401FB506496F
:101BA0000023022208158DE80F001A464821102054
:101BB00007F05AFA1FBD0000001001407CB50F214C
:101BC0000A20CDE900011B4C0723012210211A48ED
:101BD00005F0EAFBFEF7DEFC4FF06632174BFEF72E
:101BE000F3FB4FF02042164BFEF7EBFB4FF00042A9
:101BF000144BFEF75BFC0022134BFEF73EFBFEF797
:101C000001FD054601462068FEF718FD00D025605D
:101C10000E4D2068A8420BDB142005F00BFC206859
:101C2000A84205DB0520FFF765F90520FFF738FC22
:101C300020687CBDA80200200024014066664A3F5F
:101C400047E1F63FE09C713F0000394000006442EC
:101C5000FEE70000F8B50120FFF7ECFEA24DA34C13
:101C600001287CD1FFF7E6FE0228FAD16946A04898
:101C700000F0C4FD0646BDF80000002870D12878A9
:101C800001283FD1208800043CD49AA004F0C8FE6B
:101C900007F056FC2878012834D12088000431D47C
:101CA00095A004F0BDFE07F04BFC2878012829D14F
:101CB0002088000426D495A004F0B2FE07F040FC72
:101CC000287801281ED1208800041BD490A004F09D
:101CD000A7FE07F035FC2878012813D120880004DE
:101CE00010D48EA004F09CFE07F02AFC287801286E
:101CF00008D12088000405D431468AA004F090FE63
:101D000007F01EFC914F3878401C38702878012865
:101D100044D12088000441D476A004F081FE07F06D
:101D20000FFC2878012839D12088000436D472A00D
:101D300004F076FE07F004FC287801282ED12088D4
:101D400000042BD471A004F06BFE07F0F9FB287897
:101D5000012823D12088000420D46DA001E0AFE049
:101D60001CE004F05DFE07F0EBFB2878012815D19C
:101D70002088000412D469A004F052FE07F0E0FBB2
:101D8000287801280AD12088000407D43B7870A263
:101D90006421304604F054FE07F0D2FBBDF8000089
:101DA000A0F5AC41C23941D1287801283ED1208824
:101DB00000043BD44FA004F033FE07F0C1FB2878A9
:101DC000012833D12088000430D44BA004F028FE31
:101DD00007F0B6FB2878012828D12088000425D4F4
:101DE0004AA004F01DFE07F0ABFB287801281DD1A6
:101DF000208800041AD446A004F012FE07F0A0FBCD
:101E00002878012812D1208800040FD443A004F0C0
:101E100007FE07F095FB2878012807D120880004E9
:101E200004D452A004F0FCFD07F08AFB002E47D03A
:101E30006A4631462E4800F002FD287801283FD13D
:101E4000208800043CD42BA004F0EAFD07F078FBC6
:101E50002878012834D12088000431D426A004F049
:101E6000DFFD07F06DFB2878012829D120880004C8
:101E700026D426A004F0D4FD07F062FB28780128C0
:101E80001ED1208800041BD421A004F0C9FD07F056
:101E900057FB2878012813D12088000410D41FA0F4
:101EA00004F0BEFD07F04CFB2878012808D12088FB
:101EB000000405D4314635A004F0B2FD07F040FB24
:101EC0003E48007801280DD1287801280AD12088C1
:101ED000000407D40648828A418A39A004F0A0FD94
:101EE00007F02EFBF8BD00002B000020B2020020FE
:101EF000C81200200D0A0000456D626564646564C7
:101F0000427265616B6572436F726500400000004C
:101F10003C2F4D41545249583E0000003A7E232048
:101F200000000000496E7465726E616C5F627566D8
:101F3000204D656D6F7279206164647265737320E2
:101F400069733A202523780D0A000000290000203B
:101F5000494E5445524E414C5F4D454D2055736599
:101F60002025642074696D65730D0A00496E7465DF
:101F7000726E616C204D656D6F7279204E6F7420AA
:101F8000456E6F7567680D0A00000000496E746544
:101F9000726E616C5F6275662072656C65617365F7
:101FA000204D656D6F727920616464726573732072
:101FB00069733A202523780D0A00000037000020BD
:101FC000546F746F6C2052656D61696E3A204D617B
:101FD000783A202564207C20467265653A20256485
:101FE000200D0A000A46002100F04AB910B5084C3D
:101FF0004FF40C620021E06806F07CF9A0684FF411
:102000000C42002106F076F90120207410BD00007A
:10201000810200202DE9F04789464FF6FF71804686
:1020200001EA8907384606F055F96A4C06466A4DBA
:102030002078012840D1288800043DD467A004F00E
:10204000EFFC07F07DFA2078012835D128880004BC
:1020500032D463A004F0E4FC07F072FA207801287F
:102060002AD12888000427D462A004F0D9FC07F004
:1020700067FA207801281FD1288800041CD45EA0AC
:1020800004F0CEFC07F05CFA2078012814D12888EF
:10209000000411D45BA004F0C3FC07F051FA2078CF
:1020A000012809D12888000406D43A46494657A099
:1020B00004F0B6FC07F044FA36B15FEA080602D035
:1020C0002078012841D080E0207801287DD128881F
:1020D00000047AD441A004F0A3FC07F031FA207880
:1020E000012872D1288800046FD43DA004F098FC28
:1020F00007F026FA2078012867D12888000464D4E4
:102100003CA004F08DFC07F01BFA207801285CD17C
:102110002888000459D438A004F082FC07F010FA93
:102120002078012851D1288800044ED435A004F02D
:1021300077FC07F005FA2078012846D128880004AA
:1021400043D43FA004F06CFC3DE0288800043CD45C
:1021500022A004F065FC07F0F3F92078012834D1BF
:102160002888000431D41EA004F05AFC07F0E8F9D6
:102170002078012829D12888000426D41DA004F045
:102180004FFC07F0DDF9207801281ED128880004D3
:102190001BD419A004F044FC07F0D2F920780128E0
:1021A00013D12888000410D416A004F039FC07F0DD
:1021B000C7F92078012808D12888000405D43146C1
:1021C00026A004F02DFC07F0BBF93046BDE8F0472F
:1021D00006F076B82B000020B20200200D0A0000A5
:1021E000456D626564646564427265616B657243E6
:1021F0006F726500400000003C2F4D415452495819
:102200003E0000003A7E232000000000417272610F
:10221000792053697A653A202564207C20526571C3
:1022200075657374204D616C6C6F632053706163CE
:10223000653A20256462797465730D0A0000000018
:102240004D656D6F727920537461636B204F7665B5
:102250007220466C6F770D0A0000000041727261B7
:1022600079205265717565737420537061636520C0
:10227000416464726573733A20252338780D0A002F
:1022800010B500234FEA0304641C41EA0323042C25
:10229000FAD310F0030405D10BE000BF521E00F882
:1022A000011B641C002A0CD0042CF7D301E008C0E9
:1022B000121F042AFBD202E000F8011B521E002A62
:1022C000FAD110BD70474FF4A06000F033B80000A1
:1022D00070B50F23C47801780122F4B1144C24683E
:1022E000457804F4E064C4F5E064240AC4F104060B
:1022F000E3408478B5401C402C4301F1E0212301E8
:1023000081F80034007800F01F018A404009800005
:1023100000F1E020C0F8002170BD01F01F008240F4
:102320004809800000F1E020C0F8802170BD000065
:102330000CED00E0024908430249086070470000C4
:102340000000FA050CED00E0024A1140014302488A
:102350000160704780FFFF1F08ED00E030B40021EE
:10236000084B0A465FF0000003EBC004401CC0B2FB
:1023700062548028F8D3491CC9B20829F2D330BC72
:1023800000F07EB8DEA8002010B50021AE2000F0DD
:102390009DF80021402000F099F80021812000F0F4
:1023A00095F80021CF2000F091F80021A12000F045
:1023B0008DF80021C02000F089F80021A62000F04F
:1023C00085F80021A82000F081F800211F2000F0EE
:1023D0007DF80021D32000F079F80021084600F0B4
:1023E00075F80021D52000F071F80021F02000F0F0
:1023F0006DF80021D92000F069F80021F12000F0EB
:1024000065F80021DA2000F061F80021022000F0D8
:102410005DF80021DB2000F059F80021492000F090
:1024200055F800218D2000F051F80021142000F013
:102430004DF80021A42000F049F80021A62000F06A
:1024400045F80021BDE81040AF2000F03FB8000083
:102450001FB54FF42042002000920849CDE9011039
:102460000346039003221421082006F0FDFDFFF728
:102470008BFFBDE81F40FFF771BF0000000C01405B
:1024800070B5114E002400BF04F1B000C0B20021AD
:1024900000F01CF80021042000F018F800211020A2
:1024A00000F014F85FF0000506EBC5000121005DA7
:1024B00000F00CF86D1CEDB2802DF5D3641CE4B275
:1024C000082CE1D370BD0000DEA8002009B1FFF7A1
:1024D0004FBAFFF703BA704702480068002800D0DF
:1024E00000477047D402002010B5044600F0BEF843
:1024F000464800210A220170454801704548017094
:1025000045480160454801604548017045480170F3
:1025100045480170454801604548016045480160F3
:102520004548017045480068B0FBF2F0444A10602D
:10253000444A106830B14448006818B1126802C0BB
:10254000521EFCD141480160414801604148016090
:1025500041480160414801604148016041480160D3
:102560004148017001F02CFC01F0C4FC204600F051
:102570006FFF2088002847D1204601F02BFA2088E1
:10258000002841D1204601F049FA208800283BD19B
:10259000204601F0CBFA2088002835D1204601F0F2
:1025A0003BFC208800282FD1204601F0C7FD208861
:1025B000002829D1204601F0E1FF2088002823D1FE
:1025C000204601F06DF9208800281DD1204601F039
:1025D00015F82088002817D1204602F079FB2088C2
:1025E000002811D1204601F027FF208800280BD1B8
:1025F000204602F0C1FB2088002805D100F026FF0C
:10260000BDE81040FFF767BF10BD0000E8020020E2
:10261000E90200203003002084030020880300200A
:1026200016030020170300201803002024030020B5
:10263000280300202C03002038030020D095000838
:1026400034030020A8950008A4950008C8020020C3
:10265000CC020020D0020020D4020020D8020020AA
:10266000DC020020E0020020660300200548064945
:102670000068096800EB8100044920F00700086049
:1026800070470000A4950008A89500088C0300205E
:1026900005480078012805D104490878FA2801D2B4
:1026A000401C087070470000E9020020E80200208A
:1026B000184810B5007801282BD1FDF759FD0446C4
:1026C0001548017801B3491E11F0FF0101701BD1BB
:1026D00012480078C0B901F061FB11490870114936
:1026E00000EB400051F820100F4801600F480068CF
:1026F000814209D051F8900F401C08600C480168D5
:10270000491C0160FEF7ECF82046BDE81040FDF7DB
:1027100033BD10BDE9020020E80200203003002094
:102720001703002014D30020880300208403002016
:102730005C0300202DE9F05F05462C48DDE90A86A0
:1027400000781F4614468B4610B145F2B9600EE082
:1027500045F2BB605CB1022F01D2401C07E045F29C
:10276000C161B8F1040F08D314F0030F02D0308018
:10277000BDE8F09F18F0030F01D03180F8E77A1E12
:1027800093B22146002205E001EB08000860521CCC
:10279000014692B29A42F7D34FF0000AC1F800A066
:1027A000FDF7E6FCDFF8489099F80010491C89F81D
:1027B0000010FDF7E1FC0F4885E81108EC60AF82DE
:1027C0006F82A5F81080284601F0F6F80A490888BB
:1027D000401C0880FDF7CCFC99F80010491E89F8D0
:1027E0000010FDF7C9FCA6F800A0C1E7E802002030
:1027F000300300204D454D200C03002070B504002F
:102800000D4610D0FDF7B4FC0146A08A78B1E66809
:10281000401E3268E260A0820846FDF7ADFC002051
:102820002880304670BD45F2BF60088005E008464C
:10283000FDF7A2FC45F2C2602880002070BD70B593
:102840000E46040015460BD06EB1FDF791FCA18A2F
:10285000628A91420BD3FDF78FFC45F2BA600FE01C
:1028600045F2BF6001E045F2BE60108070BDE168D6
:102870003160E660A18A491CA182FDF77DFC002041
:10288000288070BD154810B50078002824D1144860
:102890000078002820D1FDF76BFC044601F07EFA99
:1028A00010490870104900EB400051F820000F4912
:1028B00008600F490968884209D050F8901F491CE8
:1028C00001600C480168491C0160FEF704F82046CD
:1028D000BDE81040FDF750BC10BD0000E80200202C
:1028E000300300201703002014D3002088030020A9
:1028F000840300205C03002070B504461048007873
:1029000010B146F6625019E00E480078012802D056
:1029100045F6896012E00C4D2878FA2802D345F27A
:1029200009200BE0FDF724FC06462878401C28709F
:1029300001F0A6FB3046FDF71FFC0020208070BD93
:10294000E8020020E9020020300300202DE9F041D8
:1029500015460C460746FDF70BFC0B490026012FD8
:1029600001D00E7001E001220A7008490CB10C6020
:1029700005E0074A0A231268B2FBF3F20A60FDF78A
:10298000FBFB2E80BDE8F0813803002034030020DB
:10299000D095000870B504461548007810B146F689
:1029A000655023E013480078012802D045F689607D
:1029B0001CE0114D287870B1FDF7DAFB0646287847
:1029C000401E10F0FF00287008D03046FDF7D4FB01
:1029D00046F663500AE046F6645007E001F05EFBFD
:1029E0003046FDF7C9FBFFF74DFF0020208070BD8A
:1029F000E8020020E90200203003002070B50F4DEE
:102A00000446287818B145F68A60208070BD01F030
:102A1000C5F90B4908700B4908700B4900EB4000E1
:102A200051F8200009490860094908600120287010
:102A3000FDF740FF43F69920E7E70000E902002098
:102A4000170300201603002014D300208803002061
:102A5000840300202DE9F0410646FDF789FB244957
:102A600000240C6023490C8023490C8023490C600E
:102A700023490C6023490C6023490C6023490C81D5
:102A8000FDF77AFBFDF774FB21490D6816E000BFE6
:102A9000FDF76EFBC5F8B44045F8784F07462C6348
:102AA000AC61AC82EC826C62AC62FEF78BF845F8EC
:102AB000200FA5F1340084816D6A3846FDF75CFB78
:102AC000002DE5D1FDF754FB12490D6804E000BF6D
:102AD000FDF74EFBAC85AD69FDF74EFB002DF7D140
:102AE00002F026F802F016FA3480BDE8F08100000A
:102AF000FC020020F60200204603002058030020BC
:102B00006C030020740300202803002008D3002059
:102B1000600300201C030020F8B5044669461E48E7
:102B200000F01EFBBDF8000028BB6A460021022011
:102B300000F06CFBBDF80000E8B9FDF719FB174E7B
:102B400000253560FDF718FB154916480A6803682B
:102B50009A4202D9B2FBF3F010B90A21B2FBF1F0AC
:102B60006A46002100F052FB69460B4800F0A0F9CC
:102B7000BDF8000008B12080F8BDFDF7F9FA0A4958
:102B80000A4A0D6031681160094A01211170FDF790
:102B9000F3FA2580F8BD00009CD7002048030020F0
:102BA000D0950008B8950008580300204C03002079
:102BB0005403002002480068002800D000477047F6
:102BC000D80200202DE9FF4F83B004466148DDE9BB
:102BD0001785DDE910960078DDF854A0139F10B139
:102BE00047F24A102AE04CB1059850B166B15A48F4
:102BF000006887420BD246F630601FE047F2AD1006
:102C00001CE047F24F1019E046F62F6016E01298CC
:102C1000B84202D346F6316010E046F27320B9F1B3
:102C2000400F0BD25FEA090103D0B9F13F0F02D088
:102C300008E04A4900E04A498C4203D0288007B0A6
:102C4000BDE8F08F204601F0A9FC4FF0000BA5F87D
:102C500000B05FEAC8700AD05FEA887007D53046D6
:102C600000215A4601E004C0491CB942FBD3129826
:102C7000CDE9007806EB8005DDE905012B463246FB
:102C800000F034FA0599A1620699E1620499216283
:102C900084F83790C4F854A0A56020605FEA0A0069
:102CA0003AD0A0651698A76366626060A4F83C807D
:102CB0000020594604EB8002401CD16710F0FF0051
:102CC000F8D004F16400149900F0E6FE204600F00C
:102CD00053F8FDF74DFA234D2978491C2970FDF76B
:102CE0004BFA94F8370001F077F8204601F048F9E4
:102CF000204601F015FC1C490888401C08801B4830
:102D0000007801281AD0FDF733FA2978491E11F00E
:102D1000FF01297003D00CE015480068C1E7154990
:102D2000098831B1FDF728FA07B0BDE8F04F01F08E
:102D300085B907B0BDE8F04FFDF71EBAFDF718FAE8
:102D40002978491E2970FDF717FA07B0BDE8F04F42
:102D5000FFF798BDE8020020CC95000844D200207F
:102D600080D100203003002064030020E90200200D
:102D700034030020F402002002490968002900D031
:102D800008477047C802002070B504463D480E460B
:102D9000007810B147F24E100AE03B48844202D15D
:102DA00047F24C1004E03948844203D147F24D10F9
:102DB000088070BD2CB9FDF7DBF935490C68FDF7CB
:102DC000DBF9FDF7D5F9334D2978491C2970FDF75A
:102DD000D3F994F8360008283ED2DFE800F0040862
:102DE0000C0C1C080C0C204601F0FEF813E02046E9
:102DF00001F082FE0FE0204601F07EFE94F83400E0
:102E0000072808D2DFE800F00704070404040400E0
:102E1000204600F036FF04F1640000F023FE204657
:102E200000F03EF8204601F08DFB1B490888401E4B
:102E30000880204601F0B2FBFF2084F83600FDF741
:102E400097F92978491E2970FDF796F900203080FE
:102E5000BDE87040FFF716BDFDF78AF92978491ED5
:102E600011F0FF01297007D10C49098821B1FDF744
:102E700083F901F0E3F801E0FDF77EF946F62D60F5
:102E8000308070BDE802002080D1002044D20020B4
:102E9000840300203003002064030020F40200209B
:102EA00002490968002900D008477047CC02002079
:102EB0007FB50D460446FDF75BF91CB11049096862
:102EC0008C4205D1FDF758F947F2571028807FBD95
:102ED000FDF752F90B48007858B10020CDE9020502
:102EE00000900346024601902146074800F0BAFBD5
:102EF0007FBD04B029462046BDE8704001F032BCD9
:102F000084030020E8020020545245530249096816
:102F1000002900D008477047D00200202DE9F04773
:102F200082464A4814461E460078884610B146F24A
:102F3000AE1006E0080006D0B1F5004F03D045F60C
:102F40002560188035E0002704B12760FDF710F9EF
:102F50003F4D81462968486CC8B1401E8046486490
:102F60000CB1086C2060FDF72DFE29680A6C801AF0
:102F7000C1F8A400D1F8A820824201D2C1F8A8006B
:102F80004846FDF7F9F837804046BDE8F0875FEA2C
:102F9000084005D54846FDF7EFF846F2B01007E0C7
:102FA0002C48017839B14846FDF7E6F846F66350FB
:102FB00030800020E9E78046012088F8000048467C
:102FC000FDF7DAF8002153460722084600F0BAFD63
:102FD000FDF7CEF898F80010491E88F80010FDF7AC
:102FE000CBF8FFF74FFCFDF7C3F88046286890F850
:102FF000351031B1012916D003291AD046F62E60BA
:103000001BE074B1006C2060FDF7DCFD29680A6CE0
:10301000801AC1F8A400D1F8A820824201D2C1F8D8
:10302000A80037800AE00CB1006C206046F2A910BD
:1030300003E004B1276047F2D92030802868446C4F
:103040004046FDF799F820469FE70000E80200207F
:1030500084030020300300202DE9F041054621487B
:1030600016460F4600781C4610B147F2591007E08B
:1030700046F2D52027B11EB1FDF77AF81DB104E064
:103080001880BDE8F08118490D684FF000082968E4
:1030900041B195F83C10C9070DD0FDF76DF800203F
:1030A000696A14E0FDF768F8C7F8008047F252102B
:1030B000C6F8008007E0FDF75FF8C7F8008047F228
:1030C0005410C6F800802080DBE7401C091D0A6808
:1030D000002AFAD03860A96B081A3060A4F8008082
:1030E000CFE70000E80200208403002010B5029C16
:1030F00002EB840222F007024FF0807442E90204DE
:10310000164842F80C0C4FF0123042F8100CA2F1A5
:1031100014004FF0023240E903134FF0113140F830
:10312000101CD10040F8141C4FF0093140F8181C55
:10313000910040F81C1C4FF007314FF0033440F869
:10314000201C610040F8241C4FF0053140F8281D78
:103150005100C0E9092440F8041D10BD21480008B1
:103160001FB5104A904202D147F25B1004E00E4AAC
:10317000904203D147F25C1008801FBD0B4A1278C1
:1031800052B10022CDE9022101460092134601927C
:10319000074800F067FA1FBD04B0BDE8104001F019
:1031A000D5BB000080D1002044D20020E8020020DE
:1031B00054535553114810B5006800B18047FDF7CE
:1031C00001FD0F490F4A09681268914209D0D1F8F0
:1031D0009830C31AC1F89430D1F89C402344C1F808
:1031E0009C30C2F89800084AD1F8B4301068834285
:1031F00001D2C1F8B4000020106010BDDC02002034
:1032000084030020880300202C0300202DE9F041D6
:10321000074626480E461546007810B147F275203D
:1032200030E0234C207810B146F663502AE046B1D6
:10323000022E06D0042E05D0082E02D045F62560B9
:1032400020E0EFB1FCF794FF2178491C2170FCF7D6
:1032500093FFDFF8608001212B46D8F8000032464A
:1032600080F83610394601F0DBFB288868B1FCF79E
:103270007FFF2178491E2170BDE8F041FCF77CBF3B
:1032800047F27E201080BDE8F081D8F8000000F001
:10329000ABFEFCF76DFF2178491E2170FCF76CFF37
:1032A000FFF7F0FA00202880EDE70000E802002098
:1032B00030030020840300202DE9F0474B4EDDE968
:1032C0000854367816B147F2752088E0DFF820A15F
:1032D0009AF8006016B146F6635080E015F00E06CD
:1032E00047F27E2945F6256705D0022E03D0042E2D
:1032F00005D0082E06D113B90AB901B9F0B335F0DB
:103300001E0C02D02780BDE8F087C5F3001547F2F8
:10331000792C47F278284FF47A7735B142F20F755D
:10332000A94211D9A4F800C0EDE7BB4202D347F28D
:103330007B2054E03B2A02D947F27A204FE03B2918
:10334000F0D8632802D804E0B84202D3A4F8008081
:10335000D9E7284D4FF4FA7CC1EB01112D68BCFB75
:10336000F5FC63446B43B3FBF7F34FF461677843B9
:1033700000EB8100104400FB053700E031E087B32B
:10338000FCF7F6FE9AF800105546491C8AF8001022
:10339000FCF7F2FEDFF8608001212346D8F8000038
:1033A000324680F83610394601F03AFB208840B1A9
:1033B000FCF7DEFE2978491E2970BDE8F047FCF7CE
:1033C000DBBED8F8000000F00FFEFCF7D1FE297834
:1033D000491E2970FCF7D0FEFFF754FA0020208028
:1033E00091E7FFE7A4F800908DE70000E8020020D5
:1033F00030030020D09500088403002000B585B07C
:1034000000F01CF8FDF7DEFB04AA002103920091F6
:10341000CDE9011006480749002300781A4600EB61
:10342000400001EB8001044800F01CF905B000BD2C
:103430001603002014D300205449434B024800686F
:10344000002800D000477047E002002070470000CD
:10345000034A00211160034A118001807047000077
:1034600000030020040300202DE9F0479A4690460F
:103470000D460446089FFCF77BFE5FEA080120D05A
:10348000012907D0B1F5004F1BD06FF4004218EBB3
:10349000020F11D1216AA943C4E9081A218A04F153
:1034A00008064FF0000979B1374D2978491C297079
:1034B000FCF762FE36683FE0FCF75EFE45F62560ED
:1034C0005EE0216A2943E7E7FCF756FEA7F8009083
:1034D000206ABDE8F08790F88810766801F00F0147
:1034E000012918D002291ED004290AD008290DD09C
:1034F000FCF73EFE2978491E11F0FF01297033D0F8
:103500003AE0216AD0F88020114009E0216AD0F821
:10351000802011400BE0D0F88010236A0A469943BE
:103520008A4205D007E0D0F88010226A914311B199
:10353000524600F02DF816B1B0680028CBD1FCF748
:1035400017FE2978491E2970FCF716FE5FEA08402D
:1035500001D4FFF797F9FCF70BFE246AFCF70CFE89
:10356000A7F800902046B4E70849098821B1FCF784
:1035700003FE00F063FD01E0FCF7FEFD43F6FF20D3
:1035800038800020A5E7000030030020F40200206E
:1035900070B50025C0F8841080F8355080F834509C
:1035A0000446026490F8360008280ED2DFE800F0E6
:1035B0000D0D04040D0D0A0A204601F0C5F884F82B
:1035C000365002E0042084F836002046BDE8704002
:1035D00000F057BB074C084DFCF7CAFD2168491C99
:1035E00021602968491C2960FCF7C6FDFEF774FFBD
:1035F000F2E70000E40200204803002000B50E4A74
:1036000089B0002111600B2205910691CDE90720B8
:103610000A480B4A0B4B006812681B680292CDE9FE
:1036200003013F20CDE900030023074A07A10C480E
:10363000FFF7C8FA09B000BDE40200208495000835
:10364000809500087C950008D535000875432F4FFC
:10365000532D4949492049646C65205461736B00BE
:1036600080D100202DE9F05F1E46DDE90AAB9046CF
:103670000F4681460D9CFCF77BFD05461C481D4A04
:103680000188128891422BD2491C89B201801A48C4
:1036900002888A4200D2018018490868C0F8009068
:1036A000C0E902780682C0F814A0A0F818B00C9AFD
:1036B000C26140680860124801210181114901601E
:1036C0004160002000F088FB0F48007808B10F49E6
:1036D0000870002020802846BDE8F05FFCF74CBD54
:1036E0000B490888401C088044F25360F2E7000050
:1036F000F402002074950008F6020020EC0200207D
:1037000014D3002044D20020160300201803002008
:10371000F80200203EB5374C374B02A920680268FA
:10372000D51A9A4245D015DC344BD2182DD0344BE3
:10373000D21822D0334BD21832D0334BDA4208D1D0
:10374000C269CDE90021038B028AC168806800F05C
:1037500085FF3EBD2D4AAA181ED02D4BD21824D06D
:103760002C4BDA42F5D1C269CDE90021038B028AE4
:10377000C168806800F05CFB3EBD0091028BC369AC
:1037800041698068FFF770FE3EBD018BC2698068A9
:1037900002AB00F0DFFC3EBD806800F0E3FF3EBD01
:1037A000018BC269806802AB21E0806801F0CEF82D
:1037B0003EBD19481949007800EB400001EB80003C
:1037C00000F08AFC206802AB0021C269144801F0B5
:1037D00033F814480168491E0160E9D112490968AB
:1037E0000160FDF7EFF9024602AB00210F4801F03E
:1037F00023F83EBDF00200205449434BADBAB2BE9F
:103800000DF90BFAF2F8F7FF0006F6FF00F7FDF7E7
:1038100000FFEFFF03FE0FFE1803002014D300206B
:10382000D8D60020800300207C0300209CD70020F5
:10383000174D184C184E00BFFCF79AFC074620881D
:10384000C8B13846FCF798FCFDF7BCF90746FFF70E
:1038500061FFFDF7B7F92968C01B814200D22860DB
:10386000FCF786FC3168496831602188491E218057
:10387000FCF782FCE0E70949002008810860486005
:1038800000F0BAFA3846FCF777FCFEF7FBFFD1E709
:10389000FC020020F4020020F002002014D30020DB
:1038A000F0B52F492F4D89B000220A80296831B127
:1038B0002D4E3188022905D244F2546135E044F29C
:1038C000526132E029490023294F0A60296801F139
:1038D000200410E041F8087B5B1C41F8082B9BB2E8
:1038E00041F8042C21F8102B41F80C2C21F8082C5D
:1038F00041F81C4C2034B6F800C06345EAD32B686D
:1039000041F81C3C1B490B601B490B601B490A809A
:103910001B490A801B490B6853B11B4B1B4D1C688C
:103920002D68AC4207D244F25661018009B0F0BD67
:1039300044F25561F9E7032405920692CDE9074068
:103940001868134B09681B68CDE903020092CDE9A2
:10395000011300230F4A10A11648FFF733F9E5E7DA
:10396000F80200208C95000874950008FC020020E5
:103970004E4F4E45EC020020F0020020F4020020E1
:10398000F6020020949500089C950008CC9500084C
:10399000989500083138000875432F4F532D494939
:1039A0004920495352205175657565205461736BE8
:1039B0000000000044D20020054B002282611968FB
:1039C00019B1C161886118607047C261FBE70000EE
:1039D00008030020034A00211160034A118001807E
:1039E00070470000080300200C03002010B5491E9A
:1039F0008CB2002200F11003114608E0E0E8023129
:103A0000521C20F8081B92B240F8041C1033A2424A
:103A1000F4D3016041600181C16010BD70B50E4EEC
:103A20000446306880B10D4D288880B181B230687D
:103A3000FFF7DCFF0A483168016029888180002196
:103A4000C1800181218070BD45F21E7001E045F208
:103A50001D70208070BD0000B495000876950008A8
:103A600008D3002010B5428992B10A4903680C6856
:103A70001C6043680B60CB8844891B1BCB808B8800
:103A8000448923448B800021418181810160416010
:103A9000104610BD08D300200181002141818181A1
:103AA0000160416070470000F0B54489DDE905E739
:103AB0000589AC4202D346F293501EE01A4DAE88FF
:103AC000CEB12C68761ED4F800C0C5F800C0AE8018
:103AD000EE88761CB6B2EE80B5F808C0B44500D2C8
:103AE0002E814689002556B1DB060CD403681C6084
:103AF000256004600AE045F21D703880F0BD046066
:103B00000123446004E043682360446043895B1CF4
:103B1000438186899BB29E4200D28381616022816B
:103B2000C4F80CE03D80F0BD08D30020034A00211A
:103B30001160034A118001807047000010030020CB
:103B4000140300202DE9F041114D07460C4628686A
:103B50000026194680F8342080F8356000F0CAFC51
:103B600064B1FC6004F1080601223946286800F0BF
:103B700011F83946304600F057F802E02868C68749
:103B8000066320462968BDE8F04100F01BB800003C
:103B90008403002010B5C2870024234601630EE091
:103BA0004B6041F8103B641C41F8103BA4B241F853
:103BB0000C3C21F8083C41F8043C41F8180C9442B4
:103BC000EED310BD38B14268C1F8C0208168896861
:103BD000096AC161704791F83400022803D00728B0
:103BE00003D004A002E004A000E005A0C1F8C000DA
:103BF00070470000200000005461736B20510000EA
:103C00005461736B2053656D0000000005A2C1F87C
:103C1000C020816811B18968096A00E001A1C16111
:103C2000704700002000000030B58A68002392F839
:103C3000374002891AB1521C028102680BE001224E
:103C400002814B600B60016014E0956895F8375075
:103C5000A54203D85268002AF7D107E032B11468B0
:103C600054B1C1E900426160116030BD4B604268EF
:103C70000A605160416030BD1160C1E900320160ED
:103C800030BD70B50646C48F056B07E0E86829466D
:103C9000083000F009F8641EA4B22035002CF5D1DC
:103CA0000020F087306370BD10B502890023012A1F
:103CB0000BD00A6862B14C6874B15460226002890A
:103CC000521E02814B600B6010BD03604360F6E73B
:103CD0004A6813600260F2E753604260EFE7F8B5AC
:103CE0000C46064691F836100025069808293BD266
:103CF000DFE801F03A3A04043A3A202094F834100C
:103D0000032911D0E265A4F86030206436B1204662
:103D1000FFF7B7FF21463046FFF778FF204600F057
:103D200013FD84F836501BE000902146304600F029
:103D300022F8EBE794F83410032916D0E265A4F8D2
:103D400060302064204600F0D7FE36B12046FFF7F1
:103D500098FF21463046FFF759FF042084F83600CB
:103D600084F8355084F83450F8BD00902146304630
:103D700000F001F8E6E770B50C6B049DC98F0AE00E
:103D8000E668864204D1C4E904022383E56170BD7C
:103D9000491E89B220340029F2D170BD10B500242B
:103DA000064802E02034E4B2001D01680029F9D081
:103DB0000846FCF7E8F92044C0B210BDC00200205C
:103DC00000200449024600BF41F82020401C022880
:103DD000FAD37047C002002000F01F024109012001
:103DE000C2F11F029040034A52F82130034342F8C7
:103DF00021307047C002002000F01F02410901205D
:103E0000C2F11F029040034A52F82130834342F826
:103E100021307047C0020020034A00211160034A8C
:103E200011800180704700001C0300202003002047
:103E30002DE9FF4F83B01F46DDE9109A93460646F1
:103E4000FCF796F9294C2178491C2170FCF794F96C
:103E5000358A06F108001DB1B90525D5006831E0A5
:103E6000F80601D4002300E01023CDE9009A5A4659
:103E700006F120000499FFF717FEFCF779F9217885
:103E8000491E11F0FF01217009D11949098831B18A
:103E9000FCF772F907B0BDE8F04F00F0CFB807B0FB
:103EA000BDE8F04FFCF768B9006801255B46D0E932
:103EB0000181CDF800903046049AFFF710FF6D1E87
:103EC0004046ADB2002DF1D1FCF752F92178491EE0
:103ED0002170FCF751F9380401D4FEF7D3FC00211E
:103EE000AAF8001007B0BDE8F08F000030030020F2
:103EF000F40200200020074B014600BF00EB400207
:103F000003EB8202401C11811160C0B25160402855
:103F1000F4D3704714D3002010B5044690F837004E
:103F2000FFF75AFF074994F837000978884220467E
:103F300003D1BDE8104000F023B8BDE8104000F008
:103F400003B800001603002090F837100B4A01EB6D
:103F5000410102EB810100220B8943B15B1C0B8103
:103F60000B68C0E903320A681061086070470123DA
:103F70000B81C260026108604860704714D3002062
:103F800090F837100A4A01EB410102EB810100224F
:103F90000B893BB15B1C0B81C2604A680261D06037
:103FA0004860704701230B81C26002610860F7E737
:103FB00014D3002010B50289002A14D0012A12D08F
:103FC0000021022A07D0D0E90024D3681961C2E990
:103FD0000314E26005E0D0E90023C2E90313C3E95A
:103FE0000321C0E9003210BD70B5054690F83700D6
:103FF000114900EB400001EB8001D5E903020024E8
:1040000042B10B895B1E0B81D06090B102612C61C3
:10401000EC6070BD28B10A89521E0A8104610860F3
:10402000F5E70C810C604C6095F83700FFF7E4FE73
:10403000EDE74A60EBE7000014D3002010B5FCF771
:1040400097F80B490446002008700B4809490160A5
:1040500051F8900F401C086008480168491C016035
:10406000FCF739FC2046BDE81040FCF785B800009D
:104070001703002044D20020880300205C030020A6
:10408000044810B50078012803D1FCF79BFD0249D4
:10409000086010BD30030020240300200A4810B53A
:1040A000007800280ED1FCF78DFD08490968401AF8
:1040B00007490A68824200D2086006490A688242BB
:1040C00000D2086010BD000030030020240300204F
:1040D000280300202C03002070B504461348007804
:1040E000012822D1FCF744F82168054641B1104867
:1040F000814218D08A6D3AB1521E8A6513D103E00D
:10410000BDE87040FCF738B8208902280BD3094875
:10411000007840B92046FFF74DFF2068416D09B98E
:104120000549096881652846EAE770BD3803002023
:1041300080D100203003002034030020034A0021F6
:104140001160034A11800180704700003C03002089
:10415000400300202DE9F84F1E469046894604464C
:10416000FCF706F80146208A04F108074FF0000B1F
:1041700078B1DFF890A008469AF80020521C8AF81F
:104180000020FBF7F9FF5FEA895018D53D893F68A9
:1041900022E0256A681C0AD06D1CC4E9085808464C
:1041A000FBF7EAFFA6F800B02846BDE8F88F0846FE
:1041B000FBF7E2FF46F6C55030800020F5E73F6888
:1041C00001250023B9687F681A462046CDF8008093
:1041D000FFF785FD6D1EADB2002DF2D1246AFBF70D
:1041E000C7FF9AF80020521E8AF80020FBF7C4FF90
:1041F0005FEA094001D4FEF745FBA6F800B020466F
:10420000D3E70000300300201CB57A4C7A4E2068BA
:10421000450004E028466A460021FEF7F7FF3078A3
:104220000128F7D16846FEF715FC7448226801683A
:10423000914204D9B1FBF2F15FEA010903D10068B0
:104240000A21B0FBF1F9DFF8B8B1DFF8B88142F22A
:10425000107A0026FCF7B6FC0190FBF789FF6A494B
:104260006A4C0A6822600E60FBF786FF6848236884
:1042700002689A422BD96748824202D250460121F5
:1042800015E06548824203D24FF47A700A210EE0AD
:104290006248824202D26420014608E060488242BD
:1042A00003D20A204FF47A7101E001205146B2FB9B
:1042B000F1F15843B0FBF1F1AAEB0100594980B28A
:1042C000ABF800000A88824203D2088001E0ABF814
:1042D00000A0FEF76FFC0024FBF74AFFD8F800505F
:1042E00024E000BFFBF744FF4F4F3978491C397079
:1042F000FBF742FFD5F89C00C5E92760FBF738FFC4
:104300003978491E11F0FF01397007D147490988F2
:1043100021B1FBF731FFFFF791FE01E0FBF72CFF26
:1043200055F8A00F0444FBF723FFED69FBF724FFCA
:10433000002DD7D1F4B13748844202D2554601202E
:1043400015E03548844203D24FF47A750A200EE016
:104350003248844202D26425284608E0304884422C
:1043600003D20A254FF47A7001E001255046B4FBD0
:10437000F0F701E000250127FBF7FAFED8F800402E
:104380001CE000BFD4F8A0006843B0FBF7F080B297
:10439000504500D95046A4F88C00B4F88E108142E4
:1043A00001D2A4F88E0004F1AC026B46111D204628
:1043B000FEF752FEFBF7DCFED4F8BC40FBF7DCFE58
:1043C000002CDFD11A480178012903D10670684614
:1043D000FEF740FBFCF7F6FB0199401A15490A6805
:1043E000824200D208606A4600214846FEF70EFF6E
:1043F00030E70000B895000854030020D09500086D
:1044000044030020600300204803002050030020E4
:104410004C030020801A060000093D00005A620289
:104420000084D7174603002030030020F402002048
:10443000420300205803002030B51D4A89B00021F6
:1044400011601C4A11601C4A11601C4A11701C4A00
:1044500011701C4A136843B11B4B1C4D1C682D681E
:10446000AC4205D246F62C6108E046F62B6105E029
:10447000174C25783F2D04D346F62A61018009B0F8
:1044800030BD032505910691CDE9075011481B6801
:1044900012680068CDE90120CDE903312078009051
:1044A00000230D4A0DA11248FEF78CFBE7E7000040
:1044B00048030020500300204C0300205403002038
:1044C00042030020BC950008C4950008CC95000864
:1044D00070950008C09500080942000875432F4FE9
:1044E000532D4949492053746174205461736B0002
:1044F00014D6002038B50446022531B16B4602229D
:1045000000F08EFABDF8000028B184F8365020463D
:10451000FFF76AFD38BD032084F83600F7E7000096
:10452000074B0022C0F8B820196829B1C0F8BC10A8
:10453000C1F8B80018607047C0F8BC20FAE7000066
:1045400060030020D0E92E2100234AB181B1C2F8D6
:10455000BC10C1F8B820C0F8BC30C0F8B830704703
:10456000054A116009B1C1F8B830C0F8BC307047D5
:10457000C2F8BC30F1E7000060030020044A0021CB
:104580001160044A1180044A1160018070470000E4
:1045900060030020640300205C03002070B5002548
:1045A000056085604560C5600561456104468561BB
:1045B00027A0C4E907506562A562E5622564E56548
:1045C000A4F86050294604F16400FFF765FA6567B6
:1045D000A567C4F88050A4F888500020C4F884501F
:1045E00004EB8001401CCD6710F0FF00F8D065643B
:1045F000C4F8A450C4F8A850A56384F88A50C4F83D
:10460000B050C4F8AC50A5874FF00040C4E9120583
:1046100025656565A565A4F88C50A4F88E50C4F88E
:104620009050C4F894503434FCF7CCFAC4E919051E
:10463000C4F8805004F8015B402004F8015B04F8E2
:10464000015B04F8810B04A020C4C4E9005070BDD4
:104650003F5461736B000000200000002DE9FC5FF7
:104660009946DDE90C7692468B460546FBF780FDC0
:10467000324C2178491C2170FBF77EFD0DB9304882
:1046800005680020308095F83600DFF8B8800828EB
:104690003CD2DFE800F004041E1E04041E1ECDE917
:1046A00000764B465246594605F16400FFF7FCF987
:1046B000FBF75EFD2178491E11F0FF01217021D129
:1046C000B8F80010F1B1FBF757FDBDE8FC5FFFF74C
:1046D000B5BC95F834000228E1D153465A46294624
:1046E00000200097FFF7FBFAFBF742FD2178491EF7
:1046F0002170FBF741FD5FEA09401CD4BDE8FC5F77
:10470000FEF7C0B8BDE8FC5FFBF736BDFBF730FD38
:104710002178491E11F0FF01217007D1B8F800106F
:1047200021B1FBF729FDFFF789FC01E0FBF724FD30
:1047300046F62D603080BDE8FC9F0000300300206D
:1047400084030020F402002010B5044600F0D4F9E0
:1047500094F83600400704D42046BDE81040FFF727
:10476000DBBB10BD70B50D460446FBF701FD00260E
:104770002E8094F8361008294AD2DFE801F00404AC
:1047800004040A23333DFBF7F7FC47F2531028805B
:1047900024E0224D2978491C2970FBF7EDFC94F8A0
:1047A0008A00401E10F0FF0084F88A0004D184F8CB
:1047B00036602046FFF7C8FFFBF7DAFC2978491E70
:1047C000297009E094F88A10491E11F0FF0184F85D
:1047D0008A1001D1012118E0FBF7CEFCBDE8704042
:1047E000FEF750B894F88A10491E11F0FF0184F8C2
:1047F0008A10F1D1022108E094F88A10491E11F0C4
:10480000FF0184F88A10E7D1032184F83610E3E72A
:10481000FBF7B2FC46F62D60288070BD3003002007
:10482000044808B50068FEF771FB69460020FEF7F2
:10483000ABFA08BD840300202DE9F84F98461546D1
:104840008A460646FBF794FC3D4C2178491C2170B2
:10485000FBF792FC0EB93B48066800203A4F3564DE
:10486000A8F8000096F8360046F6C55908284ED23A
:10487000DFE800F02626222226262222FBF77CFCF7
:10488000FFF7DCFB02E000BFFBF776FCA8F8009026
:104890000020BDE8F88F6D1C7564FBF769FC21787A
:1048A000491E11F0FF0121702ED1398861B3FBF749
:1048B00063FCFFF7C3FB40E096F8340007280ED0F6
:1048C000756C681CE7D1FBF753FC2178491E11F089
:1048D000FF012170D8D139880029D5D0CEE7002337
:1048E0001A46314618460095FFF7F9F9756CFBF743
:1048F0003FFC2178491E2170FBF73EFC5FEA0A402D
:104900001BD4FDF7BFFF18E0FBF736FC15E0FBF703
:104910002FFC2178491E11F0FF01217006D1398842
:1049200021B1FBF729FCFFF789FB01E0FBF724FC31
:1049300046F62D60A8F8000000252846A9E70000EB
:104940003003002084030020F40200202DE9F04110
:104950000F460446FBF70CFC244904B90C680968AF
:10496000234D8C4206D1297821B1FBF705FC46F690
:10497000635038E00021398094F836100126082968
:104980002DD2DFE801F004171F21272727272978D8
:10499000491C2970FBF7F0FB042084F8360084F8EA
:1049A0008A602046FFF720FBFBF7E2FB2978491ECF
:1049B000297001E0052108E0FBF7DEFBBDE8F041CE
:1049C000FDF760BF062100E0072184F8361084F867
:1049D0008A60F1E714F88A1F491C2170ECE7FBF7A5
:1049E000CBFB46F62D603880BDE8F08184030020C3
:1049F0003003002010B500200146074C074B06E0AD
:104A000004EBC002401C11609180D18080B21A88F2
:104A10009042F5D310BD000070CE002078950008BC
:104A2000F0B5324C47F27E2625680024042A08D0CF
:104A3000B1B32E4E082A36680E440BD0C0E913617C
:104A400015E04A1B521E12F5803F2AD8521CC0E9BD
:104A500013120CE0826C0A44571B7F1E8F4201D256
:104A6000C26400E0C664C16C4A1B02658164204ACE
:104A7000C16C1288B1FBF2F602FB16111D4A89B215
:104A800002EBC102918889B11168F1B1CE6C761B3D
:104A90000E65076DB74212D94E6966B13146F5E72A
:104AA000FFE7C4640465C4611E80F0BD4461846195
:104AB000012110600BE0C0E90541486105E08D6906
:104AC00075B1C0E90515686188619188491C9180BC
:104AD000D58889B28D4200D2D180C2611C80F0BDE0
:104AE000C0E9051488611060EFE70000680300204A
:104AF0007895000870CE002010B5C269002A15D044
:104B0000002101651368834204D14369136033B106
:104B1000996104E0D0E90534636103B19C614161AE
:104B20008161C161C1649088401E908010BD000009
:104B300010B500200446064B064A04E003EBC00112
:104B4000401CCC8080B211888842F7D310BD000091
:104B500070CE0020789500082DE9F05FFBF708FB88
:104B60004B4D2978491C2970FBF706FBFCF72AF806
:104B7000DFF8208107464849D8F800004FF00009C7
:104B8000401CC8F8000009884FF0030AB0FBF1F29E
:104B900001FB1200414980B24FF0040B51F8304044
:104BA000DCB394F836006669082851D2DFE800F0DB
:104BB0005004501150285036E06CD8F80010421ABA
:104BC0002265884246D184F836902046FFF7BCFD26
:104BD0003EE0E06CD8F80010421A2265884239D1D4
:104BE000C4F85C90A4F86090FBF7ECFF20642046CA
:104BF000FFF747F82046FFF7A7FD84F8369023E03B
:104C0000E06CD8F80010421A2265884222D184F85C
:104C100036B02046FFF770FF1AE01BE0E06CD8F8D2
:104C20000010421A2265884214D1C4F85C90A4F89E
:104C30006090FBF7C7FF20642046FFF722F820466C
:104C4000FFF75AFF84F836B084F835A084F8349022
:104C50003446A5E7FBF7B6FF1149C01B0A6882423C
:104C600000D20860FBF784FA2978491E11F0FF0191
:104C7000297008D10B49098829B1FBF77DFABDE8F5
:104C8000F05FFFF7DBB9BDE8F05FFBF775BA000036
:104C900030030020680300207895000870CE0020C3
:104CA0006C030020F40200201CB5084C00216B4668
:104CB00001AA0846FEF732F9BDF800000028F5D138
:104CC00020780128F2D1FFF747FFEFE7E902002043
:104CD00030B504461A4889B00025056019480560BA
:104CE000FFF788FE1848016841B11849184B0A6857
:104CF0001B689A4205D247F2132008E047F21220BF
:104D000005E0144A13783F2B04D347F2112020808A
:104D100009B030BD0B2305950695CDE907340E4B40
:104D2000096800681B68CDE90103CDE90315107817
:104D300000900023094A0AA10E48FDF743FFE7E768
:104D4000680300206C030020D4950008DC9500085F
:104D5000CC95000871950008D8950008A94C00086A
:104D600075432F4F532D494949205469636B205493
:104D700061736B00D8D6002030B52A4A89B0002173
:104D8000294B1160294C2A4A1D681DB12468B4FBC7
:104D9000F5F303E023680A24B3FBF4F313601A4627
:104DA000244B274D274C1A60234A1160234A116077
:104DB000002206E005EBC203521C9980D98092B212
:104DC000196023889A42F5D31F4B1A6842B11F4AD3
:104DD0001F4D14682D68AC4205D247F2483108E0F7
:104DE00047F2473105E01B4C25783F2D04D347F2AD
:104DF0004631018009B030BD0B2505910691CDE902
:104E000007501068144A1B681268CDE90301CDE908
:104E10000132207800900023104A11A11648FDF7B6
:104E2000D1FEE7E770030020E8950008D095000860
:104E30007C030020800300207803002074030020FE
:104E4000F8D000207A950008EC950008F495000849
:104E5000CC95000872950008F09500083D4F0008B9
:104E600075432F4F532D4949492054696D65722070
:104E70005461736B000000009CD7002070B50222C3
:104E800080F82A20204A012914681ED0016AE1B165
:104E90001E4A214481611288B1FBF2F302FB131216
:104EA0001B4B92B203EBC202002315687DB1091BB4
:104EB000C1611168D1B18D692D1BCD61C669AE424A
:104EC0000ED90D6945B12946F5E7416AE0E703616E
:104ED0004361106001200BE0C0E90431086105E086
:104EE0004C6964B1C0E90414206148619088401C99
:104EF0009080D18880B2814200D2D08070BDC0E95C
:104F0000041348611060F1E7780300207A950008E7
:104F1000F8D0002010B500200446064B064A04E0F5
:104F200003EBC001401CCC8080B211888842F7D3CB
:104F300010BD0000F8D000207A9500081CB5DFF8FD
:104F40009090DFF890A0244DDFF890B000216B46E0
:104F500001AA0846FDF7E2FF6846FDF7CDFCFBF726
:104F600031FE064628684FF00308401C2860B9F857
:104F70000010B0FBF1F201FB120080B25AF8304091
:104F8000C4B1A06929682769884213D1204600F07E
:104F900027F8208D022808D084F82A80A26812B150
:104FA0002046E16890473C46EAE701212046FFF7AA
:104FB00065FFF3E7FBF706FE841B6846FDF7EAFC96
:104FC000DBF80010A142C1D2CBF80040BEE70000E0
:104FD0007A950008F8D000207803002074030020A0
:104FE00010B5104A81691288B1FBF2F302FB13116C
:104FF0000D4A89B202EBC1020023146801698442A0
:1050000003D1116029B14B6103E04469216101B111
:105010004C61012180F82A10036143619088401E91
:10502000908010BD7A950008F8D000202DE9F04757
:1050300003F038FD012874D1774E8046C6F8908180
:10504000322002F0F7F94FF00009C6F89091734D45
:10505000734C2878012833D12088000430D471A003
:1050600001F0DEFC04F06CFA2878012828D12088B1
:10507000000425D46CA001F0D3FC04F061FA287878
:1050800001281DD1208800041AD46CA001F0C8FCAE
:1050900004F056FA2878012812D1208800040FD491
:1050A00067A001F0BDFC04F04BFA2878012807D175
:1050B0002088000404D465A001F0B2FC04F040FA9A
:1050C000644FB878092851D2DFE800F05313162452
:1050D0003405535342002878012807D12088000462
:1050E00004D45DA001F09CFC04F02AFAFBF788FDD3
:1050F0003FE002F0EFF93CE02878012807D1208852
:10510000000404D45DA001F08BFC04F019FA01F056
:105110007FF82EE02878012809D12088000406D4E1
:1051200000E077E05DA001F07BFC04F009FA03F0F9
:10513000E9F81EE02878012807D12088000404D46B
:105140005FA001F06DFC04F0FBF902F0E1FE10E05D
:105150002878012807D12088000404D45FA001F03A
:105160005FFC04F0EDF903F041FB02E00A2002F0DD
:1051700061F9C6F89081322002F05CF9C6F890918E
:1051800087F8019003F05EFA287801283ED1208844
:1051900000043BD423A001F043FC04F0D1F92878AB
:1051A000012833D12088000430D41FA001F038FC3E
:1051B00004F0C6F92878012828D12088000425D4D5
:1051C0001EA001F02DFC04F0BBF9287801281DD1A8
:1051D000208800041AD41AA001F022FC04F0B0F9CF
:1051E0002878012812D1208800040FD417A001F0DC
:1051F00017FC04F0A5F92878012807D120880004BD
:1052000004D43CA001F00CFC04F09AF9BDE8F0478E
:1052100000F068BDBDE8F087000022422B000020AE
:10522000B20200200D0A0000456D62656464656489
:10523000427265616B6572436F72650040000000E9
:105240003C2F4D41545249583E0000003A7E2320E5
:10525000000000003C000020446574656374204336
:105260006F6D6D756E69636174696F6E20546573DF
:105270007420526571756573740D0A00536F6674FE
:105280007761726520436F6E74726F6C204D435569
:105290002052657365740D0A000000004E205175A0
:1052A00065656E205175657374696F6E204D435549
:1052B000204162696C69747920546573740D0A0029
:1052C0004D435520536C6565702F53757370656E33
:1052D0006420546573740D0A0000000050726F74EE
:1052E0006F636F6C2053657474696E672055524309
:1052F0000D0A00004C6F67204F726465722045787C
:1053000065637574652046696E69736865642054C9
:10531000696D650D0A00000010B5FDF7B9F90420AC
:1053200000F07EF8012805D10420FBF7E3FD0420FE
:10533000FCF7B6F84FF48030FCF73CF8BDE81040BD
:10534000FDF7B6B93EB500F047F90121080700F0B6
:105350000DF90121084600F021F94FF48034204670
:10536000FCF728F800208DF804000C2000948DF83C
:10537000050001248DF806406846FCF73BF8002143
:10538000E006FCF7E1FF8DF8084002208DF80900E7
:105390008DF80A408DF80B4002A8FCF799FFC02059
:1053A00000F04EF803480078012800D0002000F0FB
:1053B00041F83EBD2D000020014908627047000001
:1053C00000000E420748016841F0040101600168D5
:1053D00041F0020101600448016841F004010160EC
:1053E00030BF70470070004010ED00E00A4B1A68B3
:1053F00022F0030202431A600848026842F00402E5
:105400000260012905D020BF016821F0040101607C
:10541000704730BFF8E700000070004010ED00E07A
:10542000034A0146002052680A4200D0012070471A
:1054300000700040014908617047000000000E4202
:10544000034A116821F0E001014311607047000038
:10545000007000400149C1F8A000704700000E42F2
:1054600070B5234D2878012841D1224C20880004B2
:105470003DD421A001F0D4FA04F062F82878012884
:1054800035D12088000432D41CA001F0C9FA04F000
:1054900057F8287801282AD12088000427D41CA096
:1054A00001F0BEFA04F04CF8287801281FD12088BA
:1054B00000041CD417A001F0B3FA04F041F82878D6
:1054C000012814D12088000411D415A001F0A8FAF5
:1054D00004F036F82878012809D12088000406D481
:1054E00011A001F09DFABDE8704004F029B870BD2C
:1054F0002B000020B20200200D0A0000456D6265FD
:1055000064646564427265616B6572436F726500C5
:10551000400000003C2F4D41545249583E000000CD
:105520003A7E232000000000505446415420546528
:10553000737465642046696E69736865640D0A005A
:10554000034A516821F44041014351607047000013
:1055500000100240044A0029516901D0014300E0D3
:10556000814351617047000000100240044A002945
:10557000D16901D0014300E08143D161704700004F
:1055800000100240044A0029116901D0014300E0E3
:10559000814311617047000000100240044A002955
:1055A000916901D0014300E081439161704700009F
:1055B00000100240044A0029D16801D0014300E0F4
:1055C0008143D1607047000000100240014908602B
:1055D000704700004004424210B500F02FF84FF42D
:1055E0008034204600F0BCF800F020F9012823D1D7
:1055F000002000F0ABF8A01100F0DCF8002000F073
:10560000E3F80220FCF706F81020FBF7F7FF4FF451
:10561000E011204600F0E8F8012000F0DFF8392022
:1056200000F074F80028FAD0022000F0F5F800BF6E
:1056300000F084F80828FBD110BD00000C48016878
:1056400041F00101016041680A4A1140416001686E
:10565000094A11400160016821F48021016041681C
:1056600021F4FE0141604FF41F018160704700008A
:10567000001002400000FFF8FFFFF6FE30B51F49A2
:105680004A6812F00C031E4A03D0042B01D0082BE9
:1056900021D002604A680F231A4C03EA1212A35C5D
:1056A0000268DA4042604B68072505EA1323E35C91
:1056B00022FA03F383604B6805EAD323E35CDA4004
:1056C000C2604968032303EA9131231F595CB2FB8E
:1056D000F1F1016130BD4A684B6802F470124FF07D
:1056E000020413F4803F04EB924202D04B689B0308
:1056F00001D5054B00E0024B5A43CAE700100240B7
:1057000000127A000400002000093D00024600203B
:1057100053090949012B0BD0022B0BD0D1F82410CF
:1057200002F01F02012393400B4200D0012070477A
:105730000968F5E7096AF3E700100240024840688B
:1057400000F00C007047000000100240034A51684E
:1057500021F0F00101435160704700000010024049
:105760000B490A6822F480320A600A6822F4802217
:105770000A60B0F5803F07D0B0F5802F03D10868EC
:1057800040F4A02008607047086840F48030F9E7D2
:10579000001002400649002281F8202081F82020D4
:1057A000012802D0042802D1052081F8200070478A
:1057B00000100240034A516821F4E0610143516046
:1057C000704700000010024003494A6822F460520A
:1057D00042EAC00048607047001002400149086674
:1057E0007047000000004242034A5368084323F414
:1057F0007C13184350607047001002400149086054
:10580000704700003C04424202490A6A02430A62AD
:105810007047000000100240034A516821F0030164
:1058200001435160704700000010024018B500208D
:105830004FF4A06400903120FFF768FF0099491CE5
:105840000091A14201D00028F5D03120FFF75EFF82
:10585000002800D0012018BD02490A8882430A802E
:10586000704700000428004003B49DF8020014496A
:105870000A78904218D09DF802000870BDF8032005
:10588000104802809DF8052042809DF80620828005
:105890009DF80720C2809DF8002002819DF801201C
:1058A00042819DF8022082814878002806D101209B
:1058B00048700721034802B0FCF7ACBB02B0704748
:1058C00092020020D0A800200248018841F0100177
:1058D00001807047042800400248018821F010012F
:1058E00001807047042800402DE9F04700F06CF873
:1058F000324F0646B0FBF7F33148041D4188994208
:1059000034D0438040F2B2754FF4B7794FF4B67893
:105910000FE02846FCF749F838B14B4502D3A3F510
:10592000B77304E06D1CADB205E0A3F26D136D1CFE
:10593000ADB24345EDD8A4F803500025DFF88480CC
:105940000EE000BFB4F80300FCF72FF808B1012DFA
:1059500030D018F80500984204D81B1A6D1CADB25F
:105960001C2BEFD26D1C65715B1CA371B6FBF7F0AD
:1059700007FB10604FF46161B0FBF1F22270B0FBE5
:10598000F1F201FB12033C22B3FBF2F36370B0FBB4
:10599000F1F301FB1300B0FBF2F102FB1100A07068
:1059A000A2796179B4F8030000F028F8E0710020D2
:1059B000BDE8F0871D2BD5D31D3BCFE780510100FB
:1059C0009202002064950008034800880249091FDC
:1059D000098840EA014070471C28004006490988B0
:1059E000C2B21140044A121F1288024202D009B109
:1059F00001207047002070470428004030B564241F
:105A0000B0FBF4F3B0FBF4F5DBB204FB1500132B91
:105A100001D96430C0B200EB90040723B4FBF3F566
:105A200003FB1544084D22440D44800715F8015C22
:105A30002A4492B203D1032901D2521E92B2B2FB80
:105A4000F3F003FB102030BD5895000810B5FCF7AB
:105A50001FFE0120FFF7C2FF08B1FFF745FF02203C
:105A6000FFF7BCFF10B10220FFF7F6FE0520FFF79D
:105A7000F3FE00F09DFABDE81040FCF719BE0000EF
:105A8000044A0029118801D0014300E081431180BC
:105A90007047000000280040F8B5002401214FF0B5
:105AA000C050FFF763FD0120FFF786FC2E4D00205C
:105AB000C5F8A0010420FBF717F845F25006B042E4
:105AC00035D0FBF707F80120FFF764FE04E0641C03
:105AD000E4B20A2001F0AEFC4120FFF717FE0028D7
