:020000040800F2
:1000000070DC0020450100083D2100088D1A000821
:10001000591E00084D0E00086D6F0008000000001A
:10002000000000000000000000000000396500082A
:100030009B11000800000000470B00085D0100084C
:100040005F010008C55700085F010008F15E000865
:100050005F0100085F010008311600085F01000819
:100060005F0100085F0100085F0100085F010008F0
:100070005F0100085F0100085F0100085F010008E0
:100080005F0100085F0100085F0100085F010008D0
:100090005F0100085F0100085F0100084B160008BF
:1000A0005F0100085F0100085F0100085F010008B0
:1000B000A16700085F010008356800085F010008BB
:1000C0005F0100085F0100085F0100085F01000890
:1000D0005F010008416B0008596C00085F010008CF
:1000E0005F0100085F0100085F0100085F01000870
:1000F0005F0100085F0100085F0100085F01000860
:100100005F0100085F0100085F0100085F0100084F
:100110005F0100085F0100085F0100085F0100083F
:100120005F0100085F0100085F0100085F0100082F
:10013000DFF80CD000F05EFC00480047DD840008CA
:1001400070DC00200648804706480047FEE7FEE7CF
:10015000FEE7FEE7FEE7FEE7FEE7FEE7FEE7FEE777
:10016000516700083101000872B6704762B67047E7
:10017000EFF3108072B6704780F31088704730BF7D
:10018000704720BF7047B0FA80F0704790FAA0F037
:10019000B0FA80F0704790FAA0F070472DE9F05F58
:1001A0000546002092469B468846064681464024E6
:1001B0001BE0284641464746224600F036FB5346A0
:1001C0005A46C01A914110D311461846224600F0F3
:1001D0001DFB2D1A67EB01084F4622460120002126
:1001E00000F014FB17EB00094E41201EA4F101049E
:1001F000DFDC484631462A464346BDE8F09FF0B46E
:1002000080EA0102D40F4200B2EB410F02D2024653
:10021000084611464A0042D0C30DDDB2C1F3C752B1
:10022000AD1A202D35DAC1F3160141F4000204B1F4
:100230005242C5F1200602FA06F12A411044B3EBFE
:10024000D05F23D0C4B1012DA0EBC35009DCF0BCBA
:100250004FF0004202EAC352DBB200F5000000F0AA
:100260000FBB400000F1807000EBC350A0F1807024
:1002700040EAD170490009E0490841EAC071A0EBA9
:10028000C35000F50000400800EBC350F0BC00F084
:10029000EEBA6142012202EB4101001BF6E7F0BC1D
:1002A000704781F00041AAE780F00040A7E780EAAC
:1002B000010210B502F00043400022D04A001FD0D6
:1002C000010E01EB1261C0F35600C2F3560240F476
:1002D000000042F40002A0FB022000047F39140455
:1002E00000D0401C50EA124001D44000491EC2B266
:1002F0000C0604EBD010401C4008802A02D003E01A
:10030000002010BD20F00100002900DA0020184371
:1003100010BD30B480EA010202F0004530F0004226
:1003200021F0004013D090B1C30DD40DC2F31601DB
:10033000C0F31600E41A41F4000140F400027D34D9
:10034000914201D3641C00E04900002C02DA30BC69
:10035000002070474FF400000023914201D3891A16
:10036000034340084FEA4101F7D151B1914202D114
:100370004FF0004105E002D24FF0010101E06FF0C3
:10038000010103EBC450284430BC00F070BA2DE9E1
:10039000FE4F804681EA0300C00F0C46009021F01A
:1003A000004123F00045B8EB0200A94105D24046C8
:1003B000214690461C460B46024623F0004010435F
:1003C00047D0270DC7F30A00C3F30A510290401A21
:1003D000019040286BDAC3F3130040F4801B0098AF
:1003E000924620B10023D2EB030A63EB0B0B01987A
:1003F0005946C0F14002504600F008FA06460D4644
:1004000050465946019A00F020FA10EB080061416D
:10041000002487EA115284EAE7731A4340D0009A15
:1004200062B3019A012A4FEA075215DC001B61EB07
:1004300002014FF0004202EA0752CDE90042001CDF
:1004400041F5801132462B4600F057FA03B0BDE863
:10045000F08F40462146F9E7001B61EB0201001CCA
:1004600041F5801300185B412018A2F5001747EBF7
:10047000030140EAD570B6196D4111E06D084FEAED
:10048000360645EAC0754FEA0752001B61EB0201D0
:10049000001C41F5801149084FEA30000019514114
:1004A00032462B4603B0BDE8F04F00F017BA009873
:1004B000012240000023D0EB020263EBE0730098BE
:1004C00021464FEAE074B8EB000061EB0401E9E774
:1004D00083F000435BE781F0004158E72DE9FE4FD0
:1004E00081EA030404F0004421F0004100944FF03D
:1004F000000B23F0004350EA01045ED052EA0304EB
:100500005BD0C3F30A54C1F30A552C44A4F2F3346C
:100510000194A0FB0254C1F3130141F48011C3F311
:10052000130343F4801301FB024400FB034E840ACF
:10053000970A44EA815447EA8357A4FB0768029567
:100540008D0A05FB07854FEA932C04FB0C54270505
:10055000029D4FEA065847EA1637B5EB08056EEBE1
:10056000070C870E920E47EA811742EA8312A7FB17
:100570000201B6EB0B0164EB00042B0D43EA0C33D4
:100580005E1844EB1C50DA465146E7FB0201C5F306
:1005900013044FEA0B3343EA14534FEA0432019C2D
:1005A00043EA0603A4F10C040294009CCDE900B4D4
:1005B00000F0A3F903B0BDE8F08F00200146F9E791
:1005C0002DE9F04D81EA030404F0004B21F00045D1
:1005D00014464FF0000A23F0004150EA050220D0F3
:1005E00054EA01021DD0C5F30A570246C5F31303AE
:1005F000C1F31300C1F30A5640F4801543F480138D
:10060000A7EB0608101BD64608F2FD3873EB050071
:1006100002D308F1010801E092185B41B8F1000F24
:1006200003DA00200146BDE8F08D00204FF4801170
:10063000064684460EE0171B73EB050705D3121B15
:1006400063EB050306434CEA010C49084FEA30000E
:1006500092185B4150EA0107EDD152EA030012D033
:1006600082EA040083EA0501084305D0101BAB4170
:1006700006D20122002306E000224FF0004302E0F0
:100680006FF0010253101AEB06004CEB085110EB0F
:100690000A0041EB0B01BDE8F04D00F01FB99623B5
:1006A0000022114600F0ECB80EB5C10F80EAE070F0
:1006B0000844CA07002140F233438DE80E000A4681
:1006C0000B4600F01AF903B000BD0EB540F23341FD
:1006D00002910021CDE900110A460B4600F00DF908
:1006E00003B000BD20F00040C10DC0F3160040F47F
:1006F00000007F2901DA00207047962903DCC1F150
:100700009601C8407047963988407047C1F30A5235
:1007100010B5C1F3130140F2FF3341F480119A4246
:1007200001DA002010BD40F233439A42A2F2334274
:1007300003DC524200F079F810BD904010BD00F08B
:10074000004230F000400AD0C10D01F56071C0F3E5
:10075000160042EA0151C2084007114370470020C9
:100760000146704730B5041E71F1000404DB4FF000
:100770000044404264EB0101141E73F1000405DBE8
:100780001C464FF00043524263EB0403994208BFFA
:10079000904230BD01F0004330B421F0004150EAF6
:1007A000010206D00A0DA2F56072C1F31301002AFE
:1007B00002DC30BC00207047440F44EAC104C10091
:1007C000E01830BC00EBC25000F051B8002801DB4B
:1007D000C0F10040002901DBC1F1004181427047B6
:1007E00030B50B46014600202022012409E021FA01
:1007F00002F59D4205D303FA02F5491B04FA02F5FE
:100800002844151EA2F10102F1DC30BD202A04DBD0
:10081000203A00FA02F1002070479140C2F1200313
:1008200020FA03F3194390407047202A04DB203A52
:1008300021FA02F00021704721FA02F3D040C2F100
:1008400020029140084319467047202A06DBCB1747
:10085000203A41FA02F043EAE07306E041FA02F37B
:10086000D040C2F120029140084319467047002948
:10087000A8BF7047401C490008BF20F00100704726
:1008800010B4B0FA80FC00FA0CF050EA010404BF86
:1008900010BC704749B1CCF1200421FA04F411FADC
:1008A0000CF118BF012121430843A3EB0C01CB1D20
:1008B0004FEA00614FEA102042BF002010BC704791
:1008C00000EBC35010440029A4BF10BC7047401C6B
:1008D000490008BF20F0010010BC704710B5141E7D
:1008E00073F1000408DA401C41F1000192185B41E9
:1008F0001A4301D120F0010010BD2DE9F04D9246C0
:100900009B4611B1B1FA81F202E0B0FA80F22032D6
:100910009046FFF77BFF04460F4640EA0A0041EA93
:100920000B0153465A46084313D0114653EA0100BF
:1009300019D0C8F140025046FFF777FF05460E4632
:10094000504659464246FFF761FF084305D0012053
:1009500004E020463946BDE8F08D0020054346EA14
:10096000E0762C4337430A986305E40AA0EB0800BD
:100970000022FD0A44EA47540A3002D5002001460D
:10098000E9E7010510196941DDE9084500196941E8
:10099000BDE8F04DA2E770B521F0004303430CD051
:1009A000C1F30A550024D5EB040564EB0403D61704
:1009B000AD1AB34102DB0020014670BD201841EBA7
:1009C000025170BDC1F30A52C1F3130140F2FF336B
:1009D00041F480119A4202DA00200146704740F249
:1009E00033439A42A2F2334202DC5242FFF71DBF68
:1009F000FFF70CBF064C074D06E0E06840F001032E
:100A000094E8070098471034AC42F6D3FFF794FB04
:100A100048BC000868BC00082DE9F04D00231A46C8
:100A20001B1A8A4103DB00200146BDE8F08DC1F3AB
:100A30000A52C1F3130141F480154FF0000BD107A6
:100A400002D100186D41521E0027044640F2FF11EA
:100A5000384601EB620A3E468046024600204FF4CB
:100A60008011FFF7E2FEC2197141BB1846EB01008D
:100A7000B4EB030C75EB000C04D3E41A65EB000532
:100A800017460E46241908F101006D4180463428AE
:100A9000E3DDF91946EB0600091BA84103D24FF02C
:100AA000FF32134601E0002213461BEB070046EB22
:100AB0000A51BDE8F04DFFF711BF70B58C1810F862
:100AC000015B15F0070301D110F8013B2A1106D193
:100AD00010F8012B03E010F8016B01F8016B5B1EAD
:100AE000F9D12B0705D40023521E0DD401F8013B88
:100AF000FAE710F8013BCB1A921C03E013F8015BF4
:100B000001F8015B521EF9D5A142D8D3002070BD77
:100B10001D484FF6FF710170002080F309881B48C3
:100B2000016881F308881A484FF08051016062B66D
:100B3000FEE717484FF080510160704714484FF0AE
:100B400080510160704772B6EFF3098028B12038F8
:100B500080E8F00F0F490968086000B50E4880472B
:100B60005DF804EB0D480E490A78027009480D49FA
:100B70000A680260106890E8F00F203080F309885E
:100B80004EF0040E62B6704722ED00E0980300209C
:100B900004ED00E090030020B1360008220300209D
:100BA00023030020940300200029816802D041F033
:100BB000010101E021F00101816070470D4910B58C
:100BC000884202D1012144150AE00B49884202D132
:100BD0000121041504E0094988420AD10121CC030E
:100BE000204604F039FF2046BDE81040002104F003
:100BF00033BF10BD0024014000280140003C0140EB
:100C0000014600208968490700D501207047C06C63
:100C100080B270470246002012680A4200D00120CC
:100C20007047014600208968090700D501207047F8
:100C300010B542680E4B0C791A400B6842EA042248
:100C40001343436083680B4A1340D1E902422243B5
:100C50004C7943EA44031A438260C26A097C22F455
:100C60007002491EC9B242EA0151C16210BD0000C2
:100C7000FFFEF0FFFDF7F1FF70B5072409290AD93F
:100C8000C568A1F10A0606EB4606B440A543B34089
:100C90001D43C56007E0056901EB4106B440A5436B
:100CA000B3401D4305611F23072A09D2446B521E1E
:100CB00002EB820293409C4391400C43446370BD1D
:100CC0000D2A09D2046BD21F02EB820293409C438F
:100CD00091400C43046370BDC46A0D3A02EB82027A
:100CE00093409C4391400C43C46270BD816841F0C5
:100CF0000801816070470029816802D041F4A00199
:100D000001E021F4A00181607047816841F0040195
:100D10008160704705490028086802D040F400004F
:100D200001E020F400000860704700000824014042
:100D300070B52C4C2C4D0026D4F8A001E8B300204F
:100D4000C4F8A001D5F88801C0B30020C5F8880117
:100D5000322006F0B1FED4F8A00180B35FF00000AD
:100D6000C4F8A001D5F8880150B30020C5F8880167
:100D7000322006F0A1FED4F8A00150B35FF00000CD
:100D8000C4F8A001D5F8880128B30020C5F888016F
:100D9000322006F091FED4F8A001F0B15FF000001F
:100DA000C4F8A001D5F88801C8B10020C5F88801B1
:100DB000761CF6B2032EBFD370BD02E003E004E060
:100DC00005E00120BCE70120C0E70120C8E70120C1
:100DD000CCE70120D4E70120D8E70120E0E701209B
:100DE000E4E70000000021420080224210B501200B
:100DF00004F03EFEBDE81040002004F039BE0000C3
:100E000008B5024908440090008808BD006C004005
:100E100008B5024A10440090016008BD006C004013
:100E200000B585B0684604F07BFE019805B000BDB2
:100E30001FB500230122044910208DE80F00032272
:100E4000014609F01DF81FBD0010014010B5054C0A
:100E5000092000F0C1F9092000F074FC2078012875
:100E6000F6D110BDBA020020044910B50020086078
:100E700000F01CF8BDE8104000F002B8C8020020E5
:100E800010B5FFF775F904461021044800F0E5FF9E
:100E90002046BDE81040FFF76FB90000F0BC00200D
:100EA0000149086070470000C802002010B5FFF734
:100EB000B7FF08490A6842F080720A6006490022BA
:100EC0004A600A6842F001020A60BDE81040FFF77C
:100ED000E7BF0000FCED00E0001000E001484068C2
:100EE00070470000001000E070B50A4D002401209A
:100EF00000F0BAFE032802D12878012801D0002092
:100F000070BD641CE4B21E2006F0D6FD642CEED346
:100F1000012070BD3100002070B5234D28780128D4
:100F200041D1224C208800043DD421A006F04EF887
:100F300009F0FEF92878012835D12088000432D440
:100F40001CA006F043F809F0F3F9287801282AD10B
:100F50002088000427D41CA006F038F809F0E8F92E
:100F6000287801281FD1208800041CD417A006F07F
:100F70002DF809F0DDF92878012814D12088000423
:100F800011D415A006F022F809F0D2F9287801282A
:100F900009D12088000406D411A006F017F8BDE896
:100FA000704009F0C5B970BD2A000020B2020020CF
:100FB0000D0A0000456D6265646465644272656196
:100FC0006B6572436F726500400000003C2F4D411D
:100FD000545249583E0000003A7E23200000000091
:100FE000436F6D6D756E69636174696F6E205375C3
:100FF000636365737366756C0D0A000001684FF6D4
:10100000FE72114001600021016041608160C16099
:101010003149314A0839904203D1486840F00F0005
:1010200006E02D4A1432904204D1486840F0F000A6
:1010300048607047284A2832904203D1486840F4FB
:101040007060F5E7244A3C32904203D1486840F48E
:101050007040EDE7204A5032904203D1486840F496
:101060007020E5E71C4A6432904203D1486840F49E
:101070007000DDE7184A7832904203D1486840F0AA
:101080007060D5E7154A111F904203D1086840F0FF
:101090000F0006E0114A1432904204D1086840F073
:1010A000F000086070470D4A2832904203D108686A
:1010B00040F47060F5E7094A3C32904203D1086879
:1010C00040F47040EDE7054A50329042EAD108689A
:1010D00040F47020E5E700000800024008040240E8
:1010E00000B589B000204FF40051CDE90601802100
:1010F0000890CDE902010590049010220548CDE941
:101100000002054B00220549012008F06CFE09B0E1
:1011100000BD0000EEB00020043801404400024051
:1011200000B589B000204FF48051CDE9060180213F
:101130000890CDE902010590049010220548CDE900
:101140000002054B00220549012008F04CFE09B0C1
:1011500000BD0000F0B400200444004080000240C4
:1011600030B5036847F6F07293430C6A8A682243ED
:10117000D1E904452C4322438C692243CC692243A4
:101180004C6A22438C6A22431A430260CA68426056
:101190000A6882604968C16030BD704710B56FF061
:1011A000040005F0A4FA094809490068B0FBF1F011
:1011B000C1B2084801EB41020170C2EBC1114FF608
:1011C000FF7202EAC101418010BD0000140000203E
:1011D00000127A00AE0200202DE9F04707469B4836
:1011E00007709B480078012871D19A4D9A4C287855
:1011F000012833D12088000430D498A005F0E6FE01
:1012000009F096F82878012828D12088000425D4F0
:1012100093A005F0DBFE09F08BF8287801281DD19A
:10122000208800041AD493A005F0D0FE09F080F8BD
:101230002878012812D1208800040FD48EA005F050
:10124000C5FE09F075F82878012807D12088000428
:1012500004D48CA005F0BAFE09F06AF8DFF82CA2DD
:101260004FF001088A4E4FF00009012F404672D01E
:10127000C6F89001322006F01FFCC6F89091CAF81B
:10128000A0918449C1F888812878012807D1208855
:10129000000404D480A005F099FE09F049F80A2F53
:1012A00079D2DFE807F0786C050D171F27505961D8
:1012B0002878012863D12088000460D47BA05AE0FC
:1012C000287801285BD12088000458D400E0BAE0D7
:1012D0007CA050E02878012851D1208800044ED409
:1012E00081A048E02878012849D12088000446D40C
:1012F00087A040E02878012841D1208800043ED40E
:101300008BA005F063FE09F013F89548016895A0DD
:1013100005F05CFE09F00CF89148001D016895A0ED
:1013200005F054FE09F004F88D480830016895A0D6
:1013300005F04CFE08F0FCFF89481430016895A0C8
:1013400005F044FE19E02878012818D1208800040F
:1013500015D494A00FE022E0287801280FD120882E
:1013600000040CD497A006E02878012807D1208833
:10137000000404D498A005F029FE08F0D9FFC6F8AF
:101380009081322006F098FBC6F8909128780128C9
:1013900016D054E0FFE70A2006F08EFBEFE7CAF80C
:1013A000A001C6F89001322006F086FBC6F89091A5
:1013B00028780128E3D120880004E0D48AA0DAE765
:1013C000208800043BD425A005F000FE08F0B0FF03
:1013D0002878012833D12088000430D420A005F0DB
:1013E000F5FD08F0A5FF2878012828D12088000401
:1013F00025D420A005F0EAFD08F09AFF28780128FE
:101400001DD1208800041AD41BA005F0DFFD08F0D0
:101410008FFF2878012812D1208800040FD419A04A
:1014200005F0D4FD08F084FF2878012807D1208832
:10143000000404D477A005F0C9FD08F079FFBDE8E9
:10144000F04704F09DBEBDE8F0870000BA0200201E
:10145000290000202A000020B20200200D0A00000E
:10146000456D626564646564427265616B65724373
:101470006F726500400000003C2F4D4154524958A6
:101480003E0000003A7E23200000000000002142C0
:1014900000002242008022425B214552524F5221DD
:1014A000214552524F52215D20000000456D65726A
:1014B00067656E63792053746F7020507265737323
:1014C0000D0A0000526563656976652044617461A8
:1014D000204572726F7220576974682050726F7461
:1014E0006F636F6C0D0A0000436F6E74726F6C6CEB
:1014F000657220496E7465726661636520566F6C13
:1015000074616765204572726F720D0A00000000F9
:101510004D435520496E6E65722054656D7065723D
:101520006174757265204578636573730D0A0000F8
:10153000403058453030304544323820537461745F
:1015400075732D52656769737465722048617264A2
:1015500077617265204661756C740D0A00000000A9
:1015600028ED00E0434653523A2009252338780DF0
:101570000A000000484653523A2009252338780DC6
:101580000A000000444653523A2009252338780DBA
:101590000A000000414653523A2009252338780DAD
:1015A0000A000000496E70757420566F6C74616794
:1015B00065204C6F776572207468616E20313856F3
:1015C0000D0A00004D435520557361676520466143
:1015D000756C740D0A0000004D4355204275732050
:1015E0004661756C740D0A005B21434C45415221E4
:1015F00021434C454152215D204E6F204572726F50
:1016000072206F72204572726F722D436C65617229
:101610000D0A00004C6F672045572D52756C65729E
:10162000204163746976652054696D650D0A000078
:1016300010B5012000F024F8FFF756FC002803D075
:10164000BDE8104005F05FB810BD10B5012000F0F6
:101650000BFB04280DD10220FFF7BEFD022000F095
:1016600071F8012000F000FB0428FAD00120FFF7F8
:10167000B3FDBDE810404FF4807000F001B80000E9
:101680000149086070470000140401401FB50121A2
:10169000084604F0D5F902210020CC010B4A009441
:1016A0000390CDE901210246094B4821082008F0AA
:1016B000E7FB0822009201201721CDE90110002349
:1016C00022460821039008F0B3FB1FBD000C014027
:1016D0000002300030B51A498379026853B30B68B1
:1016E00093430B600A1D13680468A34313600279D7
:1016F0000A441368046823431360114A08321368CC
:101700000468A3431360131D1C680568AC431C6088
:101710004479102C05D021440A68006802430A600D
:1017200030BD1168046821431160196800680143E5
:10173000196030BD0079084401689143016030BDF3
:10174000000401402DE9F04107463E48002400789E
:10175000012874D13C480078012870D13B4E3C4DA3
:10176000307801283ED1288800043BD439A005F008
:101770002DFC08F0DDFD3078012833D128880004E5
:1017800030D435A005F022FC08F0D2FD30780128D5
:1017900028D12888000425D434A005F017FC08F0CF
:1017A000C7FD307801281DD1288800041AD430A044
:1017B00005F00CFC08F0BCFD3078012812D1288817
:1017C00000040FD42DA005F001FC08F0B1FD307825
:1017D000012807D12888000404D42AA005F0F6FBCC
:1017E00008F0A6FD2B48C0F8707129882F4609041F
:1017F00018D4054605EB8400D0F8681126A005F042
:10180000E5FB08F095FD641CE4B2122CF2D33078AD
:10181000012814D13888000411D40EA005F0D6FB9D
:1018200008F086FD3078012809D13888000406D4F4
:1018300008A005F0CBFBBDE8F04108F079BDBDE89C
:10184000F08100002E000020330000202A0000203C
:10185000B20200200D0A0000456D62656464656493
:10186000427265616B6572436F72650040000000F3
:101870003C2F4D41545249583E0000003A7E2320EF
:1018800000000000455746204D6573736167653A57
:10189000200000003C000020253032786464000005
:1018A00004490A6822F010020A600A6802430A60CA
:1018B0007047000000200240034A116801F038011F
:1018C00001431160704700000020024010B58A07F4
:1018D00021F003040649130F21440F228C689A401B
:1018E00094438C608A68984002438A6010BD00006F
:1018F00000000140F0B5CA78002502F00F03D206BF
:1019000001D58A7813430A784FF00F0E12F0FF0FBB
:101910004FF001021CD004680F8802FA05F6374028
:10192000B74211D14FEA850C0EFA0CF724EA0707EB
:1019300003FA0CF43C43CF78282F02D0482F02D072
:1019400002E0466100E006616D1C082DE4D30460EE
:101950000C88FF2C1ED944685FF0000606F10807CA
:1019600002FA07F50F882F40AF420FD14FEA860CDD
:101970000EFA0CF7BC4303FA0CF73C43CF78282F40
:1019800000D14561CF78482F00D10561761C082E23
:10199000E4D34460F0BD0000F0B5144C002801DA37
:1019A000E36900E06368420D120185B2C0F301579C
:1019B0009540C0F30346032F05D0C2020AD5032287
:1019C000B240934307E023F07062636823F07063D2
:1019D000636002E0AB4343F0706201B12A43002828
:1019E00001DAE261F0BD6260F0BD0000000001407C
:1019F0000246002092680A4200D0012070474161EF
:101A000070470161704700B585B0684604F088F8FA
:101A1000019805B000BD000010B50E4801680E48E1
:101A20000C4A121F016012680A4B4260083B1B6897
:101A300083600A48007801280AD109480088000418
:101A400006D408A005F0C2FABDE8104008F070BC4A
:101A500010BD0000F0F7FF1FC01300202A00002077
:101A6000B20200200D0A43686970205365726961F3
:101A70006C4E756D2049443A2025233038582D2569
:101A80003038582D253038580D0A000010B5054C57
:101A90000620FFF7A1FB0620FFF754FE207801285F
:101AA000F6D110BDBA02002070B50A4C0120C4F86E
:101AB000B401C4F8BC0104F5DA7406F017F8002587
:101AC000A560012006F012F82560BDE870400120F5
:101AD00006F00CB80080214270B5074C0020C4F815
:101AE000BC010125C4F8B451284604F5DA7405F0A8
:101AF000FDFFA56070BD00000080214270B50A4C5A
:101B00000125C4F8BC51284604F5DA7405F0EEFF4F
:101B10002560012005F0EAFF00202060BDE870404C
:101B2000012005F0E3BF00000080214210B504460B
:101B3000FFF7BAFF782000F019F8FFF7DFFF012068
:101B400005F0D4FF002000F011F8FFF7D7FF0120C7
:101B500005F0CCFF204600F009F8FFF7CFFF012089
:101B600005F0C4FFBDE81040FFF7B6BF2DE9F04116
:101B70000025124C0646A8460127300602D5C4F8B7
:101B8000BC7101E0C4F8BC81012005F0AFFFC4F8CE
:101B9000B471012005F0AAFFC4F8B481072D01D16A
:101BA000C4F8BC717006060E012005F09FFF6D1C85
:101BB000EDB2082DE1D3BDE8F081000000802142A4
:101BC00010B50446FFF770FF7820FFF7CFFFFFF74F
:101BD00095FF4020FFF7CAFFFFF790FF012005F0B7
:101BE00085FF2046FFF7C2FFFFF788FF012005F0C1
:101BF0007DFFBDE81040FFF76FBF81070CD1642166
:101C0000B0FBF1F201FB120141B94FF4C871B0FB16
:101C1000F1F201FB120008B100207047012070476B
:101C20007FB50E4820210024CDE9001002250C4E7E
:101C3000CDE90254334622464821112008F020F90C
:101C4000084848F20101CDE90010CDE902543346BD
:101C500000224821052008F013F97FBD0010014043
:101C600000023000000801402DE9F047DFF89890AD
:101C700020214846FFF7BCFE244CDFF894804FF447
:101C80000046A51588B131462046FFF7B1FE60B188
:101C9000294647464046FFF7ABFE30B12021484673
:101CA000FFF7A6FE012822D02BE01A4F0120C7F82B
:101CB0009001322007F5C87705F0FEFE002038605D
:101CC00020214846FFF794FE50B131462046FFF7E9
:101CD0008FFE40B129464046FFF78AFE28B110E04A
:101CE0000120BDE8F0870220FBE70420F9E7314638
:101CF0002046FFF77DFE012803D129463846FFF72D
:101D000077FE0020EDE700000010014000080140D0
:101D1000000C0140000022421FB513480024811529
:101D20000091CDE9010423460322102104200394ED
:101D300008F0A6F8042100910C48CDE90104002325
:101D4000032210212020039408F09AF84FF4C05188
:101D500000910748CDE90104102100230322084621
:101D6000039408F08DF81FBD0008014000140140E5
:101D700000100140094810B5007801280DD18102FA
:101D80000748FFF735FE002807D10720FFF724FAA0
:101D9000BDE810400720FFF7D5BC10BD3000002083
:101DA000001001401FB506490023022208158DE8E6
:101DB0000F001A464821102008F062F81FBD0000ED
:101DC000001001407CB50F210A20CDE900011B4C19
:101DD0000723012210211A4805F02AFEFEF775FCA0
:101DE0004FF06632174BFEF779FB4FF02042164B4F
:101DF000FEF771FB4FF00042144BFEF7E1FB0022AF
:101E0000134BFEF7C4FAFEF7C5FC054601462068F1
:101E1000FEF7DCFC00D025600E4D2068A8420BDBED
:101E2000142005F049FE2068A84205DB0520FFF7D5
:101E3000D3F90520FFF786FC20687CBDA4020020B2
:101E40000024014066664A3F47E1F63FE09C713F4F
:101E50000000394000006442FEE70A46002100F01D
:101E60004BB9000010B5084C4FF40C620021E0683B
:101E700006F042FCA0684FF40C42002106F03CFC46
:101E80000120207410BD00007D0200202DE9F047E4
:101E900089464FF6FF71804601EA8907384606F009
:101EA0001BFC6A4C06466A4D2078012840D12888E0
:101EB00000043DD467A005F089F808F039FA2078CD
:101EC000012835D12888000432D463A005F07EF8BB
:101ED00008F02EFA207801282AD12888000427D477
:101EE00062A005F073F808F023FA207801281FD1CA
:101EF000288800041CD45EA005F068F808F018FAE1
:101F00002078012814D12888000411D45BA005F0A2
:101F10005DF808F00DFA2078012809D1288800041E
:101F200006D43A46494657A005F050F808F000FAA2
:101F300036B15FEA080602D02078012841D080E05F
:101F4000207801287DD1288800047AD441A005F0AA
:101F50003DF808F0EDF92078012872D128880004B6
:101F60006FD43DA005F032F808F0E2F9207801289E
:101F700067D12888000464D43CA005F027F808F055
:101F8000D7F9207801285CD12888000459D438A0DA
:101F900005F01CF808F0CCF92078012851D12888E8
:101FA00000044ED435A005F011F808F0C1F92078EE
:101FB000012846D12888000443D43FA005F006F844
:101FC0003DE0288800043CD422A004F0FFFF08F084
:101FD000AFF92078012834D12888000431D41EA01C
:101FE00004F0F4FF08F0A4F92078012829D128880A
:101FF000000426D41DA004F0E9FF08F099F9207828
:1020000001281ED1288800041BD419A004F0DEFF8B
:1020100008F08EF92078012813D12888000410D404
:1020200016A004F0D3FF08F083F92078012808D126
:102030002888000405D4314626A004F0C7FF08F024
:1020400077F93046BDE8F04706F03CBB2A00002097
:10205000B20200200D0A0000456D6265646465648B
:10206000427265616B6572436F72650040000000EB
:102070003C2F4D41545249583E0000003A7E2320E7
:102080000000000041727261792053697A653A203C
:102090002564207C2052657175657374204D616CD8
:1020A0006C6F632053706163653A202564627974B4
:1020B00065730D0A000000004D656D6F7279205345
:1020C0007461636B204F76657220466C6F770D0AE2
:1020D000000000004172726179205265717565736C
:1020E0007420537061636520416464726573733A50
:1020F00020252338780D0A0010B500234FEA030489
:10210000641C41EA0323042CFAD310F0030405D124
:102110000BE000BF521E00F8011B641C002A0CD00B
:10212000042CF7D301E008C0121F042AFBD202E0FE
:1021300000F8011B521E002AFAD110BD70474FF45F
:10214000A06000F033B8000070B50F23C4780178A8
:102150000122F4B1144C2468457804F4E064C4F519
:10216000E064240AC4F10406E3408478B5401C40CE
:102170002C4301F1E021230181F80034007800F0C4
:102180001F018A404009800000F1E020C0F80021D2
:1021900070BD01F01F0082404809800000F1E0207E
:1021A000C0F8802170BD00000CED00E0024908433A
:1021B00002490860704700000000FA050CED00E0DD
:1021C000024A1140014302480160704780FFFF1F2F
:1021D00008ED00E030B40021084B0A465FF0000033
:1021E00003EBC004401CC0B262548028F8D3491CE1
:1021F000C9B20829F2D330BC00F014BAEEA800200E
:1022000010B50021AE2000F074FC0021402000F049
:1022100070FC0021812000F06CFC0021CF2000F038
:1022200068FC0021A12000F064FC0021C02000F027
:1022300060FC0021A62000F05CFC0021A82000F03A
:1022400058FC00211F2000F054FC0021D32000F096
:1022500050FC0021084600F04CFC0021D52000F085
:1022600048FC0021F02000F044FC0021D92000F0BF
:1022700040FC0021F12000F03CFC0021DA2000F0BD
:1022800038FC0021022000F034FC0021DB2000F0AB
:1022900030FC0021492000F02CFC00218D2000F0B2
:1022A00028FC0021142000F024FC0021A42000F0D0
:1022B00020FC0021A62000F01CFC0021BDE81040FD
:1022C000AF2000F016BC00000B4810B500780128C4
:1022D00011D100F0CDF94FF49674204605F0ECFBD7
:1022E000FFF778FF00F0E6F9204605F0E5FBBDE8D2
:1022F0001040FFF76FBF10BD2B0000200B4808B542
:102300004179002910D00022427109480078002844
:102310000AD11020009003232021182000F056FB42
:10232000BDE8084000F07EB908BD0000BC020020F6
:102330002F000020094808B5007801280DD105F0CC
:10234000EFFB02461020009002232021502000F0D5
:102350003DFBBDE8084000F065B908BD290000203C
:10236000F8B5224D224C2968A068FEF72FFA3BD021
:102370002D68A5602846FEF7B5F9C7B2A7701D49BC
:102380002846FDF794FFFEF7ADF90A26B0FBF6F1FB
:1023900006FB1100E07018492846FDF788FFFEF79C
:1023A000A1F9B0FBF6F106FB11002071134800788B
:1023B000012819D1102502233A46302150200095DA
:1023C00000F004FB00950123E2783021682000F042
:1023D000FDFA0095012322793021702000F0F6FAF1
:1023E000BDE8F84000F01EB9F8BD0000A4020020CE
:1023F000BC020020000020410000C8422D00002047
:1024000038B506F047F90A4CA17988420ED006F09B
:1024100041F9A071102102460091032330211820B8
:1024200000F0D4FABDE8384000F0FCB838BD000038
:10243000BC02002038B5234D202110232A890846EC
:1024400000F033FB6A8910232021382000F02DFB97
:10245000AA8910232021502000F027FB1020009093
:102460002A8804233021002000F0B0FA6A88102363
:102470003021282000F019FBAA88102330214020A9
:1024800000F013FBE888072812D2DFE800F004060A
:10249000080A0C0E10000CA40AE00CA408E00CA41E
:1024A00006E00CA404E00CA402E00CA400E00CA4E0
:1024B000102322463021602000F0CCFABDE83840DD
:1024C00000F0B0B8E0A8002053756E004D6F6E00AC
:1024D000547565005765640054687500467269005C
:1024E0005361740070B57F2814D83F2912D801F0C9
:1024F0000703094DC3F1070407260123A340A6EBF8
:10250000D10105EBC000002A425C01D01A4300E073
:102510009A43425470BD0000EEA800201FB54FF44E
:102520002042002000920849CDE9011003460390A3
:1025300003221421082007F0A3FCFFF761FEBDE889
:102540001F40FFF747BE0000000C01402DE9F0419D
:102550002E480078002857D00020FFF785FB002682
:102560002B4C2C4D02280BD1607808B1667001E02D
:10257000012060702E800020FFF776FB0228FAD041
:102580000020FFF771FB01280BD12078401CC0B25E
:102590002070042800D126700020FFF765FB012879
:1025A000FAD0607800282FD0FFF72DFAFEF777F8E1
:1025B00001461948FDF7ADFE1849FDF778FE0146C2
:1025C0001748FDF7A6FE4FF07E51FDF76AFE07465D
:1025D0002888FEF764F83946FEF7F8F804D00020A2
:1025E000FFF742FB01280CD12E802078401CC0B29E
:1025F0002070042800D126700020FFF735FB012849
:10260000FAD02888401C2880BDE8F08128000020EE
:10261000BC020020AC02002000BA5B4A00007A44F1
:1026200000409C4570B5114E002400BF04F1B0007D
:10263000C0B2002100F05DFA0021042000F059FA38
:102640000021102000F055FA5FF0000506EBC500F0
:102650000121005D00F04DFA6D1CEDB2802DF5D327
:10266000641CE4B2082CE1D370BD0000EEA8002089
:1026700010B5102307A22021082000F0EBF9102349
:1026800008A23021082000F0E5F9BDE81040FFF76E
:10269000C9BF0000456D626564646564427265612E
:1026A0006B650000446576656C6F70436F72654BB7
:1026B0006974000010B5102307A22021082000F043
:1026C000C9F9102308A23021082000F0C3F9BDE8A1
:1026D0001040FFF7A7BF00003C2F4D41545249580E
:1026E0003E404E64416E000053797374656D205214
:1026F000756E6E696E6700007CB53D4801788DF897
:10270000001041788DF8011081788DF80210B0F832
:102710000310ADF8031041798DF8051081798DF81B
:102720000610C0798DF80700DDE9000103F0EEFA2C
:10273000304D202110232A89084600F0B6F91023D5
:102740002DA22021302000F085F96A891023202154
:10275000382000F0AAF9102327A22021482000F0F9
:1027600079F9AA8910232021502000F09EF9102029
:1027700000902A8804233021002000F027F910233C
:102780001EA23021202000F065F96A881023302134
:10279000282000F08AF9102318A23021382000F0F8
:1027A00059F9AA8810233021402000F07EF9E888EA
:1027B000072812D2DFE800F00406080A0C0E100009
:1027C0000FA40AE00FA408E00FA406E00FA404E0A1
:1027D0000FA402E00FA400E00FA410232246302132
:1027E000602000F037F9BDE87C40FFF71BBF000018
:1027F00092020020E0A800203A0000002F00000014
:1028000053756E004D6F6E0054756500576564001A
:1028100054687500467269005361740038B510231E
:1028200037A22021002000F015F9102403230022F4
:1028300020211820009400F0C9F8324800780128BF
:102840000DD1102330A22021382000F003F92F48A9
:102850000094022302782021502000F0B7F81023C2
:102860002BA23021002000F0F5F805F013FF0246FE
:10287000032330211820009400F0A8F825480078A0
:10288000012839D1102324A23021382000F0E2F8A9
:10289000FFF798FAFDF726FF024602233021502069
:1028A000009400F093F810231CA23021602000F067
:1028B000D1F8FFF787FA1A49FDF7F9FCFDF712FF87
:1028C0000A25B0FBF5F105FB110201233021682038
:1028D000009400F07BF8FFF775FA1249FDF7E7FC6A
:1028E000FDF700FFB0FBF5F105FB110201233021DC
:1028F0007020009400F06AF8BDE83840FFF792BEFF
:10290000435055002900002045570000BA0200201E
:102910004D454D002D000020495444002E0000007C
:10292000000020410000C8422DE9FF4F203A1F4619
:102930000C46894602F0FF0A0025DDF834B03AE083
:102940000C2F04D0102F06D0182F08D00DE00AEB62
:102950004A001B4906E01B4901EB0A1004E01A4932
:102960000AEBCA0001EB8000465D4FF00808300614
:1029700001D55A4603E0BBF1000F12D000222146D8
:102980000098FFF7AFFD7006641C060EE4B2A4EBDE
:102990000900B84207D100984C46401CC0B20090D4
:1029A00007E00122EBE7A8F10100C0B25FEA0008EE
:1029B000DDD16D1CEDB2BD42C2D3BDE8FF8F00007A
:1029C00060A30008D4A70008C4AD00082DE9FF4F9C
:1029D00081B00026DDF838A01D4693468146344676
:1029E0004FF001084FEA5A072DE0281B401EFDF763
:1029F0005BFE02460B460020154906F021FAFDF762
:102A000085FEBBFBF0F00A21B0FBF1F201FB1200E6
:102A100026B9691E8C4201DA48B101263030C2B2B3
:102A200007FB0490C0B25346CDF8008006E007FBD8
:102A30000490C0B253462022CDF800800299FFF7DF
:102A400073FF641CE4B2AC42CFD305B0BDE8F08F95
:102A5000000024402DE9F84F04461F468020A0EBDB
:102A60005709402016460D46A0EB57084FF0010AC3
:102A700016E0A14502D20024E819C5B2A84503D248
:102A800000242546FFF7A6FBCDF800A032783B4690
:102A900029462046FFF748FF04EB5700C4B2761CD6
:102AA00030780028E5D1BDE8F88FF8B51C4615460A
:102AB0000F4606460A2A0CD2012300220094FFF793
:102AC00085FF06EB5400C0B201232A463946009424
:102AD00001E000930223FFF779FFF8BD10B5FFF77F
:102AE0000DFCFFF727FCFFF78BFCBDE81040FFF75C
:102AF00037BC09B1FFF764B8FFF718B8704700009A
:102B000002480068002800D000477047E00200201B
:102B100010B5044600F0BEF8464800210A220170B4
:102B200045480170454801704548016045480160CD
:102B300045480170454801704548017045480160AD
:102B400045480160454801604548017045480068B6
:102B5000B0FBF2F0444A1060444A106830B1444877
:102B6000006818B1126802C0521EFCD141480160D1
:102B700041480160414801604148016041480160AD
:102B800041480160414801604148017001F06EFB1D
:102B900001F006FC204600F0B1FE2088002847D155
:102BA000204601F06DF92088002841D1204601F02F
:102BB0008BF9208800283BD1204601F00DFA2088AF
:102BC000002835D1204601F07DFB208800282FD138
:102BD000204601F009FD2088002829D1204601F077
:102BE00023FF2088002823D1204601F0AFF8208859
:102BF00000281DD1204600F057FF2088002817D15B
:102C0000204602F0BBFA2088002811D1204601F0AE
:102C100069FE208800280BD1204602F003FB2088A3
:102C2000002805D100F068FEBDE81040FFF766BF40
:102C300010BD0000F4020020F50200203C0300203B
:102C4000900300209403002022030020230300208F
:102C50002403002030030020340300203803002028
:102C60004403002080BB00084003002058BB00083C
:102C700054BB0008D4020020D8020020DC0200204F
:102C8000E0020020E4020020E8020020EC02002024
:102C900072030020054806490068096800EB8100BE
:102CA000044920F0070008607047000054BB00088A
:102CB00058BB0008980300202DE9F05F05462C481A
:102CC000DDE90A8600781F4614468B4610B145F2AE
:102CD000B9600EE045F2BB605CB1022F01D2401C2E
:102CE00007E045F2C161B8F1040F08D314F0030FF7
:102CF00002D03080BDE8F09F18F0030F01D0318082
:102D0000F8E77A1E93B22146002205E001EB0800A5
:102D10000860521C014692B29A42F7D34FF0000A63
:102D2000C1F800A0FDF724FADFF8489099F80010E8
:102D3000491C89F80010FDF71FFA0F4885E81108B3
:102D4000EC60AF826F82A5F81080284601F08AF807
:102D50000A490888401C0880FDF70AFA99F8001013
:102D6000491E89F80010FDF707FAA6F800A0C1E790
:102D7000F40200203C0300204D454D2018030020A4
:102D8000154810B50078002824D114480078002890
:102D900020D1FDF7EDF9044601F056FA104908700C
:102DA000104900EB400051F820000F4908600F491E
:102DB0000968884209D050F8901F491C01600C48EE
:102DC0000168491C0160FDF7B4FE2046BDE81040D3
:102DD000FDF7D2B910BD0000F40200203C03002032
:102DE0002303002024D3002094030020900300201C
:102DF0006803002070B504461048007810B146F60C
:102E0000625019E00E480078012802D045F689602A
:102E100012E00C4D2878FA2802D345F209200BE085
:102E2000FDF7A6F906462878401C287001F07EFBC5
:102E30003046FDF7A1F90020208070BDF40200208B
:102E4000F50200203C0300202DE9F04115460C4618
:102E50000746FDF78DF90B490026012F01D00E70B2
:102E600001E001220A7008490CB10C6005E0074A34
:102E70000A231268B2FBF3F20A60FDF77DF92E8097
:102E8000BDE8F081440300204003002080BB00081F
:102E900070B504461548007810B146F6655023E039
:102EA00013480078012802D045F689601CE0114DD6
:102EB000287870B1FDF75CF906462878401E10F0BE
:102EC000FF00287008D03046FDF756F946F66350EB
:102ED0000AE046F6645007E001F036FB3046FDF7A5
:102EE0004BF9FFF74DFF0020208070BDF402002059
:102EF000F50200203C03002070B50F4D04462878F1
:102F000018B145F68A60208070BD01F09DF90B492B
:102F100008700B4908700B4900EB400051F8200085
:102F2000094908600949086001202870FDF7F0FD93
:102F300043F69920E7E70000F50200202303002074
:102F40002203002024D300209403002090030020BB
:102F50002DE9F0410646FDF70BF9244900240C60E9
:102F600023490C8023490C8023490C6023490C60C1
:102F700023490C6023490C6023490C81FDF7FCF8C0
:102F8000FDF7F6F821490D6816E000BFFDF7F0F8EF
:102F9000C5F8B44045F8784F07462C63AC61AC8265
:102FA000EC826C62AC62FDF799FF45F8200FA5F149
:102FB000340084816D6A3846FDF7DEF8002DE5D1D6
:102FC000FDF7D6F812490D6804E000BFFDF7D0F810
:102FD000AC85AD69FDF7D0F8002DF7D101F0FEFF0B
:102FE00002F0EEF93480BDE8F08100000803002013
:102FF0000203002052030020640300207803002015
:10300000800300203403002018D300206C0300202C
:1030100028030020F8B5044669461E4800F01EFB50
:10302000BDF8000028BB6A460021022000F06CFBBE
:10303000BDF80000E8B9FDF79BF8174E0025356094
:10304000FDF79AF8154916480A6803689A4202D9AA
:10305000B2FBF3F010B90A21B2FBF1F06A4600218D
:1030600000F052FB69460B4800F0A0F9BDF80000E3
:1030700008B12080F8BDFDF77BF80A490A4A0D60C7
:1030800031681160094A01211170FDF775F825803A
:10309000F8BD0000ACD700205403002080BB00081E
:1030A00068BB000864030020580300206003002070
:1030B00002480068002800D000477047E402002062
:1030C0002DE9FF4F83B004466148DDE91785DDE94E
:1030D00010960078DDF854A0139F10B147F24A1003
:1030E0002AE04CB1059850B166B15A480068874251
:1030F0000BD246F630601FE047F2AD101CE047F2FD
:103100004F1019E046F62F6016E01298B84202D32D
:1031100046F6316010E046F27320B9F1400F0BD251
:103120005FEA090103D0B9F13F0F02D008E04A4934
:1031300000E04A498C4203D0288007B0BDE8F08FF8
:10314000204601F081FC4FF0000BA5F800B05FEACB
:10315000C8700AD05FEA887007D5304600215A4609
:1031600001E004C0491CB942FBD31298CDE90078B4
:1031700006EB8005DDE905012B46324600F034FA06
:103180000599A1620699E1620499216284F8379059
:10319000C4F854A0A56020605FEA0A003AD0A06598
:1031A0001698A76366626060A4F83C8000205946C8
:1031B00004EB8002401CD16710F0FF00F8D004F14E
:1031C0006400149900F0BEFE204600F053F8FCF7AE
:1031D000CFFF234D2978491C2970FCF7CDFF94F8C7
:1031E000370001F04FF8204601F020F9204601F0A9
:1031F000EDFB1C490888401C08801B48007801280A
:103200001AD0FCF7B5FF2978491E11F0FF0129708B
:1032100003D00CE015480068C1E71549098831B1B1
:10322000FCF7AAFF07B0BDE8F04F01F05DB907B0A9
:10323000BDE8F04FFCF7A0BFFCF79AFF2978491EC4
:103240002970FCF799FF07B0BDE8F04FFFF798BD74
:10325000F40200207CBB000854D2002090D1002052
:103260003C03002070030020F502002040030020F2
:103270000003002002490968002900D00847704770
:10328000D402002070B504463D480E46007810B1C7
:1032900047F24E100AE03B48844202D147F24C10FC
:1032A00004E03948844203D147F24D10088070BDD4
:1032B0002CB9FCF75DFF35490C68FCF75DFFFCF7A6
:1032C00057FF334D2978491C2970FCF755FF94F8B6
:1032D000360008283ED2DFE800F004080C0C1C0879
:1032E0000C0C204601F0D6F813E0204601F05AFEFF
:1032F0000FE0204601F056FE94F83400072808D26B
:10330000DFE800F00704070404040400204600F08E
:103310000EFF04F1640000F0FBFD204600F03EF8D3
:10332000204601F065FB1B490888401E08802046A6
:1033300001F08AFBFF2084F83600FCF719FF29789A
:10334000491E2970FCF718FF00203080BDE870404E
:10335000FFF716BDFCF70CFF2978491E11F0FF019D
:10336000297007D10C49098821B1FCF705FF01F04C
:10337000BBF801E0FCF700FF46F62D60308070BD21
:10338000F402002090D1002054D2002090030020AD
:103390003C0300207003002000030020024909685C
:1033A000002900D008477047D80200207FB50D469D
:1033B0000446FCF7DDFE1CB1104909688C4205D1BA
:1033C000FCF7DAFE47F2571028807FBDFCF7D4FEE9
:1033D0000B48007858B10020CDE902050090034663
:1033E000024601902146074800F092FB7FBD04B0E1
:1033F00029462046BDE8704001F00ABC9003002039
:10340000F40200205452455302490968002900D0B3
:1034100008477047DC0200202DE9F04782464A4801
:1034200014461E460078884610B146F2AE1006E0FB
:10343000080006D0B1F5004F03D045F6256018808E
:1034400035E0002704B12760FCF792FE3F4D81462E
:103450002968486CC8B1401E804648640CB1086CAD
:103460002060FDF73BFD29680A6C801AC1F8A400B2
:10347000D1F8A820824201D2C1F8A8004846FCF742
:103480007BFE37804046BDE8F0875FEA084005D5FF
:103490004846FCF771FE46F2B01007E02C48017870
:1034A00039B14846FCF768FE46F66350308000208C
:1034B000E9E78046012088F800004846FCF75CFEFA
:1034C000002153460722084600F092FDFCF750FE0B
:1034D00098F80010491E88F80010FCF74DFEFFF721
:1034E0004FFCFCF745FE8046286890F8351031B156
:1034F000012916D003291AD046F62E601BE074B1BC
:10350000006C2060FDF7EAFC29680A6C801AC1F89B
:10351000A400D1F8A820824201D2C1F8A8003780C7
:103520000AE00CB1006C206046F2A91003E004B17F
:10353000276047F2D92030802868446C4046FCF769
:103540001BFE20469FE70000F402002090030020AD
:103550003C0300202DE9F0410546214816460F4660
:1035600000781C4610B147F2591007E046F2D5200A
:1035700027B11EB1FCF7FCFD1DB104E01880BDE8C9
:10358000F08118490D684FF00008296841B195F89D
:103590003C10C9070DD0FCF7EFFD0020696A14E06C
:1035A000FCF7EAFDC7F8008047F25210C6F8008029
:1035B00007E0FCF7E1FDC7F8008047F25410C6F8B9
:1035C00000802080DBE7401C091D0A68002AFAD031
:1035D0003860A96B081A3060A4F80080CFE70000BB
:1035E000F40200209003002010B5029C02EB84023C
:1035F00022F007024FF0807442E90204164842F8B4
:103600000C0C4FF0123042F8100CA2F114004FF0E5
:10361000023240E903134FF0113140F8101CD10081
:1036200040F8141C4FF0093140F8181C910040F884
:103630001C1C4FF007314FF0033440F8201C610090
:1036400040F8241C4FF0053140F8281D5100C0E916
:10365000092440F8041D10BDCD4C00081FB5104AC8
:10366000904202D147F25B1004E00E4A904203D12F
:1036700047F25C1008801FBD0B4A127852B100223D
:10368000CDE902210146009213460192074800F05D
:103690003FFA1FBD04B0BDE8104001F0ADBB000013
:1036A00090D1002054D20020F402002054535553EE
:1036B000114810B5006800B18047FDF70FFC0F49B5
:1036C0000F4A09681268914209D0D1F89830C31A9C
:1036D000C1F89430D1F89C402344C1F89C30C2F822
:1036E0009800084AD1F8B4301068834201D2C1F87A
:1036F000B4000020106010BDE802002090030020FC
:1037000094030020380300202DE9F04107462648A5
:103710000E461546007810B147F2752030E0234C74
:10372000207810B146F663502AE046B1022E06D04A
:10373000042E05D0082E02D045F6256020E0EFB11A
:10374000FCF716FD2178491C2170FCF715FDDFF808
:10375000608001212B46D8F80000324680F83610F0
:10376000394601F0B3FB288868B1FCF701FD2178E8
:10377000491E2170BDE8F041FCF7FEBC47F27E20F7
:103780001080BDE8F081D8F8000000F083FEFCF75F
:10379000EFFC2178491E2170FCF7EEFCFFF7F0FAF0
:1037A00000202880EDE70000F40200203C03002008
:1037B000900300202DE9F0474B4EDDE908543678A0
:1037C00016B147F2752088E0DFF820A19AF8006072
:1037D00016B146F6635080E015F00E0647F27E29DA
:1037E00045F6256705D0022E03D0042E05D0082EFD
:1037F00006D113B90AB901B9F0B335F01E0C02D0E5
:103800002780BDE8F087C5F3001547F2792C47F211
:1038100078284FF47A7735B142F20F75A94211D961
:10382000A4F800C0EDE7BB4202D347F27B2054E08E
:103830003B2A02D947F27A204FE03B29F0D863288F
:1038400002D804E0B84202D3A4F80080D9E7284D9A
:103850004FF4FA7CC1EB01112D68BCFBF5FC63440D
:103860006B43B3FBF7F34FF46167784300EB8100E0
:10387000104400FB053700E031E087B3FCF778FC2B
:103880009AF800105546491C8AF80010FCF774FCA1
:10389000DFF8608001212346D8F80000324680F826
:1038A0003610394601F012FB208840B1FCF760FC6D
:1038B0002978491E2970BDE8F047FCF75DBCD8F8AF
:1038C000000000F0E7FDFCF753FC2978491E297041
:1038D000FCF752FCFFF754FA0020208091E7FFE745
:1038E000A4F800908DE70000F40200203C030020C3
:1038F00080BB00089003002070470000034A0021AD
:103900001160034A11800180704700000C03002001
:10391000100300202DE9F0479A4690460D460446D4
:10392000089FFCF725FC5FEA080120D0012907D099
:10393000B1F5004F1BD06FF4004218EB020F11D10C
:10394000216AA943C4E9081A218A04F108064FF044
:10395000000979B1374D2978491C2970FCF70CFC16
:1039600036683FE0FCF708FC45F625605EE0216A1A
:103970002943E7E7FCF700FCA7F80090206ABDE8C0
:10398000F08790F88810766801F00F01012918D0AF
:1039900002291ED004290AD008290DD0FCF7E8FB23
:1039A0002978491E11F0FF01297033D03AE0216ACD
:1039B000D0F88020114009E0216AD0F88020114021
:1039C0000BE0D0F88010236A0A4699438A4205D05A
:1039D00007E0D0F88010226A914311B1524600F0FE
:1039E0002DF816B1B0680028CBD1FCF7C1FB2978BF
:1039F000491E2970FCF7C0FB5FEA084001D4FFF7BD
:103A0000BFF9FCF7B5FB246AFCF7B6FBA7F80090FA
:103A10002046B4E70849098821B1FCF7ADFB00F066
:103A200063FD01E0FCF7A8FB43F6FF20388000208F
:103A3000A5E700003C0300200003002070B500252E
:103A4000C0F8841080F8355080F834500446026481
:103A500090F8360008280ED2DFE800F00D0D0404BF
:103A60000D0D0A0A204601F0C5F884F8365002E030
:103A7000042084F836002046BDE8704000F057BBB3
:103A8000074C084DFCF774FB2168491C216029682C
:103A9000491C2960FCF770FBFFF732F8F2E70000E1
:103AA000F00200205403002000B50E4A89B0002126
:103AB00011600B2205910691CDE907200A480B4AB7
:103AC0000B4B006812681B680292CDE903013F208E
:103AD000CDE900030023074A07A10C48FFF7F0FADD
:103AE00009B000BDF002002034BB000830BB000864
:103AF0002CBB0008813A000875432F4F532D4949CC
:103B0000492049646C65205461736B0090D100209A
:103B10002DE9F05F1E46DDE90AAB90460F4681466F
:103B20000D9CFCF725FB05461C481D4A01881288A0
:103B300091422BD2491C89B201801A4802888A42DC
:103B400000D2018018490868C0F80090C0E90278E6
:103B50000682C0F814A0A0F818B00C9AC2614068A0
:103B60000860124801210181114901604160002073
:103B700000F088FB0F48007808B10F49087000205A
:103B800020802846BDE8F05FFCF7F6BA0B490888AC
:103B9000401C088044F25360F2E70000000300205C
:103BA00024BB000802030020F802002024D30020D8
:103BB00054D200202203002024030020040300200C
:103BC0003EB5374C374B02A920680268D51A9A4295
:103BD00045D015DC344BD2182DD0344BD21822D01E
:103BE000334BD21832D0334BDA4208D1C269CDE917
:103BF0000021038B028AC168806800F085FF3EBD0A
:103C00002D4AAA181ED02D4BD21824D02C4BDA42A4
:103C1000F5D1C269CDE90021038B028AC1688068B1
:103C200000F05CFB3EBD0091028BC3694169806876
:103C3000FFF770FE3EBD018BC269806802AB00F0E9
:103C4000DFFC3EBD806800F0E3FF3EBD018BC26932
:103C5000806802AB21E0806801F0CEF83EBD1948D3
:103C60001949007800EB400001EB800000F08AFC6D
:103C7000206802AB0021C269144801F033F81448EF
:103C80000168491E0160E9D1124909680160FDF728
:103C900025F9024602AB00210F4801F023F83EBD92
:103CA000FC0200205449434BADBAB2BE0DF90BFAE9
:103CB000F2F8F7FF0006F6FF00F7FDF700FFEFFF51
:103CC00003FE0FFE2403002024D30020E8D60020AA
:103CD0008C03002088030020ACD70020174D184C1F
:103CE000184E00BFFCF744FA07462088C8B1384692
:103CF000FCF742FAFDF7F2F80746FFF761FFFDF720
:103D0000EDF82968C01B814200D22860FCF730FA28
:103D10003168496831602188491E2180FCF72CFAFE
:103D2000E0E70949002008810860486000F0BAFA1D
:103D30003846FCF721FAFFF723F8D1E70803002003
:103D400000030020FC02002024D30020F0B52F49FE
:103D50002F4D89B000220A80296831B12D4E31885B
:103D6000022905D244F2546135E044F2526132E056
:103D700029490023294F0A60296801F1200410E035
:103D800041F8087B5B1C41F8082B9BB241F8042CDE
:103D900021F8102B41F80C2C21F8082C41F81C4C70
:103DA0002034B6F800C06345EAD32B6841F81C3CC8
:103DB0001B490B601B490B601B490A801B490A8089
:103DC0001B490B6853B11B4B1B4D1C682D68AC4243
:103DD00007D244F25661018009B0F0BD44F255614A
:103DE000F9E7032405920692CDE907401868134BC2
:103DF00009681B68CDE903020092CDE90113002395
:103E00000F4A10A11648FFF75BF9E5E7040300200D
:103E10003CBB000824BB0008080300204E4F4E4561
:103E2000F8020020FC020020000300200203002012
:103E300044BB00084CBB00087CBB000848BB000822
:103E4000DD3C000875432F4F532D49494920495304
:103E500052205175657565205461736B0000000038
:103E600054D20020054B00228261196819B1C1614A
:103E7000886118607047C261FBE7000014030020EE
:103E8000034A00211160034A11800180704700003D
:103E9000140300201803002010B5491E8CB2002224
:103EA00000F11003114608E0E0E80231521C20F84E
:103EB000081B92B240F8041C1033A242F4D30160F4
:103EC00041600181C16010BD70B50E4E044630687E
:103ED00080B10D4D288880B181B23068FFF7DCFFDA
:103EE0000A4831680160298881800021C1800181F0
:103EF000218070BD45F21E7001E045F21D702080EA
:103F000070BD000064BB000826BB000818D3002069
:103F100010B5428992B10A4903680C681C60436875
:103F20000B60CB8844891B1BCB808B88448923443E
:103F30008B8000214181818101604160104610BD6C
:103F400018D30020018100214181818101604160FD
:103F500070470000F0B54489DDE905E70589AC420A
:103F600002D346F293501EE01A4DAE88CEB12C68B3
:103F7000761ED4F800C0C5F800C0AE80EE88761C6E
:103F8000B6B2EE80B5F808C0B44500D22E8146899D
:103F9000002556B1DB060CD403681C602560046064
:103FA0000AE045F21D703880F0BD046001234460D2
:103FB00004E043682360446043895B1C4381868935
:103FC0009BB29E4200D2838161602281C4F80CE0E2
:103FD0003D80F0BD18D30020034A00211160034A40
:103FE00011800180704700001C0300202003002086
:103FF0002DE9F041114D07460C4628680026194668
:1040000080F8342080F8356000F0CAFC64B1FC60B0
:1040100004F1080601223946286800F011F83946F3
:10402000304600F057F802E02868C687066320464D
:104030002968BDE8F04100F01BB8000090030020A3
:1040400010B5C2870024234601630EE04B6041F89F
:10405000103B641C41F8103BA4B241F80C3C21F821
:10406000083C41F8043C41F8180C9442EED310BDD2
:1040700038B14268C1F8C02081688968096AC161A5
:10408000704791F83400022803D0072803D004A019
:1040900002E004A000E005A0C1F8C00070470000E5
:1040A000200000005461736B205100005461736B59
:1040B0002053656D0000000005A2C1F8C020816892
:1040C00011B18968096A00E001A1C161704700006F
:1040D0002000000030B58A68002392F8374002893A
:1040E0001AB1521C028102680BE0012202814B606E
:1040F0000B60016014E0956895F83750A54203D82D
:104100005268002AF7D107E032B1146854B1C1E90E
:1041100000426160116030BD4B6042680A605160CE
:10412000416030BD1160C1E90032016030BD70B541
:104130000646C48F056B07E0E8682946083000F0A2
:1041400009F8641EA4B22035002CF5D10020F087B8
:10415000306370BD10B502890023012A0BD00A68B4
:1041600062B14C6874B1546022600289521E0281AF
:104170004B600B6010BD03604360F6E74A68136054
:104180000260F2E753604260EFE7F8B50C4606467E
:1041900091F836100025069808293BD2DFE801F097
:1041A0003A3A04043A3A202094F83410032911D002
:1041B000E265A4F86030206436B12046FFF7B7FF0F
:1041C00021463046FFF778FF204600F013FD84F8C3
:1041D00036501BE000902146304600F022F8EBE715
:1041E00094F83410032916D0E265A4F860302064F6
:1041F000204600F0D7FE36B12046FFF798FF214653
:104200003046FFF759FF042084F8360084F8355013
:1042100084F83450F8BD00902146304600F001F893
:10422000E6E770B50C6B049DC98F0AE0E66886422C
:1042300004D1C4E904022383E56170BD491E89B23B
:1042400020340029F2D170BD10B50024064802E0E8
:104250002034E4B2001D01680029F9D00846FBF7BC
:1042600092FF2044C0B210BDCC02002000200449BF
:10427000024600BF41F82020401C0228FAD37047B4
:10428000CC02002000F01F0241090120C2F11F02F0
:104290009040034A52F82130034342F821307047DE
:1042A000CC02002000F01F0241090120C2F11F02D0
:1042B0009040034A52F82130834342F8213070473E
:1042C000CC020020034A00211160034A11800180C2
:1042D00070470000280300202C0300202DE9FF4F29
:1042E00083B01F46DDE9109A93460646FBF740FF70
:1042F000294C2178491C2170FBF73EFF358A06F1D5
:1043000008001DB1B90525D5006831E0F80601D4D3
:10431000002300E01023CDE9009A5A4606F1200060
:104320000499FFF717FEFBF723FF2178491E11F0D0
:10433000FF01217009D11949098831B1FBF71CFF30
:1043400007B0BDE8F04F00F0CFB807B0BDE8F04FC0
:10435000FBF712BF006801255B46D0E90181CDF86B
:1043600000903046049AFFF710FF6D1E4046ADB234
:10437000002DF1D1FBF7FCFE2178491E2170FBF7DF
:10438000FBFE380401D4FEF7FBFC0021AAF8001064
:1043900007B0BDE8F08F00003C03002000030020C0
:1043A0000020074B014600BF00EB400203EB8202F6
:1043B000401C11811160C0B251604028F4D3704795
:1043C00024D3002010B5044690F83700FFF75AFFB9
:1043D000074994F8370009788842204603D1BDE8A0
:1043E000104000F023B8BDE8104000F003B8000012
:1043F0002203002090F837100B4A01EB410102EB39
:10440000810100220B8943B15B1C0B810B68C0E961
:1044100003320A6810610860704701230B81C26093
:10442000026108604860704724D3002090F837107C
:104430000A4A01EB410102EB810100220B893BB1E9
:104440005B1C0B81C2604A680261D06048607047A3
:1044500001230B81C26002610860F7E724D30020CA
:1044600010B50289002A14D0012A12D00021022A94
:1044700007D0D0E90024D3681961C2E90314E260CF
:1044800005E0D0E90023C2E90313C3E90321C0E931
:10449000003210BD70B5054690F83700114900EBA9
:1044A000400001EB8001D5E90302002442B10B89F1
:1044B0005B1E0B81D06090B102612C61EC6070BD1D
:1044C00028B10A89521E0A8104610860F5E70C814F
:1044D0000C604C6095F83700FFF7E4FEEDE74A60AA
:1044E000EBE7000024D3002010B5FBF741FE0B4999
:1044F0000446002008700B480949016051F8900FEC
:10450000401C086008480168491C0160FCF711FB69
:104510002046BDE81040FBF72FBE0000230300201B
:1045200054D200209403002068030020044810B5F2
:104530000078012803D1FCF7D1FC0249086010BDC6
:104540003C030020300300200A4810B50078002802
:104550000ED1FCF7C3FC08490968401A07490A68EC
:10456000824200D2086006490A68824200D208608E
:1045700010BD00003C030020300300203403002065
:104580003803002070B5044613480078012822D172
:10459000FBF7EEFD2168054641B11048814218D075
:1045A0008A6D3AB1521E8A6513D103E0BDE87040AE
:1045B000FBF7E2BD208902280BD30948007840B9F7
:1045C0002046FFF74DFF2068416D09B9054909688C
:1045D00081652846EAE770BD4403002090D10020A1
:1045E0003C03002040030020034A00211160034ADD
:1045F0001180018070470000480300204C03002018
:104600002DE9F84F1E46904689460446FBF7B0FD5B
:104610000146208A04F108074FF0000B78B1DFF85B
:1046200090A008469AF80020521C8AF80020FBF758
:10463000A3FD5FEA895018D53D893F6822E0256ACD
:10464000681C0AD06D1CC4E908580846FBF794FDA5
:10465000A6F800B02846BDE8F88F0846FBF78CFDA9
:1046600046F6C55030800020F5E73F68012500235D
:10467000B9687F681A462046CDF80080FFF785FDAF
:104680006D1EADB2002DF2D1246AFBF771FD9AF8D0
:104690000020521E8AF80020FBF76EFD5FEA0940F9
:1046A00001D4FEF76DFBA6F800B02046D3E700006A
:1046B0003C0300201CB57A4C7A4E2068450004E08B
:1046C00028466A460021FFF71FF830780128F7D105
:1046D0006846FEF73DFC744822680168914204D99F
:1046E000B1FBF2F15FEA010903D100680A21B0FBD6
:1046F000F1F9DFF8B8B1DFF8B88142F2107A00269C
:10470000FCF7ECFB0190FBF733FD6A496A4C0A6841
:1047100022600E60FBF730FD6848236802689A4209
:104720002BD96748824202D25046012115E06548E4
:10473000824203D24FF47A700A210EE0624882422C
:1047400002D26420014608E06048824203D20A2077
:104750004FF47A7101E001205146B2FBF1F1584368
:10476000B0FBF1F1AAEB0100594980B2ABF80000AF
:104770000A88824203D2088001E0ABF800A0FEF76D
:1047800097FC0024FBF7F4FCD8F8005024E000BFAD
:10479000FBF7EEFC4F4F3978491C3970FBF7ECFC06
:1047A000D5F89C00C5E92760FBF7E2FC3978491E83
:1047B00011F0FF01397007D14749098821B1FBF792
:1047C000DBFCFFF791FE01E0FBF7D6FC55F8A00FEC
:1047D0000444FBF7CDFCED69FBF7CEFC002DD7D1EF
:1047E000F4B13748844202D25546012015E03548DD
:1047F000844203D24FF47A750A200EE03248844294
:1048000002D26425284608E03048844203D20A25B3
:104810004FF47A7001E001255046B4FBF0F701E057
:1048200000250127FBF7A4FCD8F800401CE000BFDE
:10483000D4F8A0006843B0FBF7F080B2504500D92F
:104840005046A4F88C00B4F88E10814201D2A4F82E
:104850008E0004F1AC026B46111D2046FEF77AFE75
:10486000FBF786FCD4F8BC40FBF786FC002CDFD1BC
:104870001A480178012903D106706846FEF768FBE3
:10488000FCF72CFB0199401A15490A68824200D2B4
:1048900008606A4600214846FEF736FF30E7000010
:1048A00068BB00086003002080BB000850030020A4
:1048B0006C030020540300205C03002058030020F8
:1048C000801A060000093D00005A62020084D717D2
:1048D000520300203C030020000300204E03002070
:1048E0006403002030B51D4A89B0002111601C4AC4
:1048F00011601C4A11601C4A11701C4A11701C4A3C
:10490000136843B11B4B1C4D1C682D68AC4205D28B
:1049100046F62C6108E046F62B6105E0174C257839
:104920003F2D04D346F62A61018009B030BD03252E
:1049300005910691CDE9075011481B68126800687F
:10494000CDE90120CDE903312078009000230D4A04
:104950000DA11248FEF7B4FBE7E700005403002066
:104960005C03002058030020600300204E03002059
:104970006CBB000874BB00087CBB000820BB0008AF
:1049800070BB0008B546000875432F4F532D4949A9
:10499000492053746174205461736B0024D6002045
:1049A00038B50446022531B16B46022200F08EFA7A
:1049B000BDF8000028B184F836502046FFF76AFDA4
:1049C00038BD032084F83600F7E70000074B0022CB
:1049D000C0F8B820196829B1C0F8BC10C1F8B800F7
:1049E00018607047C0F8BC20FAE700006C03002094
:1049F000D0E92E2100234AB181B1C2F8BC10C1F820
:104A0000B820C0F8BC30C0F8B8307047054A116013
:104A100009B1C1F8B830C0F8BC307047C2F8BC303A
:104A2000F1E700006C030020044A00211160044AF1
:104A30001180044A11600180704700006C0300205F
:104A4000700300206803002070B5002505608560B4
:104A50004560C560056145610446856127A0C4E9DC
:104A600007506562A562E5622564E565A4F86050BB
:104A7000294604F16400FFF765FA6567A567C4F885
:104A80008050A4F888500020C4F8845004EB8001C2
:104A9000401CCD6710F0FF00F8D06564C4F8A45046
:104AA000C4F8A850A56384F88A50C4F8B050C4F87C
:104AB000AC50A5874FF00040C4E912052565656537
:104AC000A565A4F88C50A4F88E50C4F89050C4F892
:104AD00094503434FCF702FAC4E91905C4F8805044
:104AE00004F8015B402004F8015B04F8015B04F862
:104AF000810B04A020C4C4E9005070BD3F54617311
:104B00006B000000200000002DE9FC5F9946DDE904
:104B10000C7692468B460546FBF72AFB324C2178F1
:104B2000491C2170FBF728FB0DB9304805680020AF
:104B3000308095F83600DFF8B88008283CD2DFE8EE
:104B400000F004041E1E04041E1ECDE900764B4630
:104B50005246594605F16400FFF7FCF9FBF708FBE4
:104B60002178491E11F0FF01217021D1B8F8001001
:104B7000F1B1FBF701FBBDE8FC5FFFF7B5BC95F8B1
:104B800034000228E1D153465A46294600200097B6
:104B9000FFF7FBFAFBF7ECFA2178491E2170FBF7CF
:104BA000EBFA5FEA09401CD4BDE8FC5FFEF7E8B809
:104BB000BDE8FC5FFBF7E0BAFBF7DAFA2178491EA3
:104BC00011F0FF01217007D1B8F8001021B1FBF7F7
:104BD000D3FAFFF789FC01E0FBF7CEFA46F62D6029
:104BE0003080BDE8FC9F00003C03002090030020C3
:104BF0000003002010B5044600F0D4F994F8360004
:104C0000400704D42046BDE81040FFF7DBBB10BDD1
:104C100070B50D460446FBF7ABFA00262E8094F8DB
:104C2000361008294AD2DFE801F0040404040A23FC
:104C3000333DFBF7A1FA47F25310288024E0224DC0
:104C40002978491C2970FBF797FA94F88A00401ECE
:104C500010F0FF0084F88A0004D184F83660204602
:104C6000FFF7C8FFFBF784FA2978491E297009E08D
:104C700094F88A10491E11F0FF0184F88A1001D1BE
:104C8000012118E0FBF778FABDE87040FEF778B82C
:104C900094F88A10491E11F0FF0184F88A10F1D1AE
:104CA000022108E094F88A10491E11F0FF0184F8EF
:104CB0008A10E7D1032184F83610E3E7FBF75CFAAA
:104CC00046F62D60288070BD3C030020044808B5DE
:104CD0000068FEF799FB69460020FEF7D3FA08BD8D
:104CE000900300202DE9F84F984615468A4606465F
:104CF000FBF73EFA3D4C2178491C2170FBF73CFA4A
:104D00000EB93B48066800203A4F3564A8F8000009
:104D100096F8360046F6C55908284ED2DFE800F06E
:104D20002626222226262222FBF726FAFFF7DCFB84
:104D300002E000BFFBF720FAA8F800900020BDE8D1
:104D4000F88F6D1C7564FBF713FA2178491E11F07A
:104D5000FF0121702ED1398861B3FBF70DFAFFF7FF
:104D6000C3FB40E096F8340007280ED0756C681C31
:104D7000E7D1FBF7FDF92178491E11F0FF01217001
:104D8000D8D139880029D5D0CEE700231A4631463C
:104D900018460095FFF7F9F9756CFBF7E9F92178EA
:104DA000491E2170FBF7E8F95FEA0A401BD4FDF7C2
:104DB000E7FF18E0FBF7E0F915E0FBF7D9F92178F8
:104DC000491E11F0FF01217006D1398821B1FBF78E
:104DD000D3F9FFF789FB01E0FBF7CEF946F62D602A
:104DE000A8F8000000252846A9E700003C030020A1
:104DF00090030020000300202DE9F0410F460446F7
:104E0000FBF7B6F9244904B90C680968234D8C42B4
:104E100006D1297821B1FBF7AFF946F6635038E0A7
:104E20000021398094F83610012608292DD2DFE8B8
:104E300001F004171F21272727272978491C2970EB
:104E4000FBF79AF9042084F8360084F88A6020463B
:104E5000FFF720FBFBF78CF92978491E297001E048
:104E6000052108E0FBF788F9BDE8F041FDF788BFB0
:104E7000062100E0072184F8361084F88A60F1E703
:104E800014F88A1F491C2170ECE7FBF775F946F608
:104E90002D603880BDE8F081900300203C030020A5
:104EA00010B500200146074C074B06E004EBC0029A
:104EB000401C11609180D18080B21A889042F5D355
:104EC00010BD000080CE002028BB0008F0B5324C99
:104ED00047F27E2625680024042A08D0B1B32E4E5E
:104EE000082A36680E440BD0C0E9136115E04A1B4E
:104EF000521E12F5803F2AD8521CC0E913120CE052
:104F0000826C0A44571B7F1E8F4201D2C26400E0AC
:104F1000C664C16C4A1B02658164204AC16C128858
:104F2000B1FBF2F602FB16111D4A89B202EBC10277
:104F3000918889B11168F1B1CE6C761B0E65076D51
:104F4000B74212D94E6966B13146F5E7FFE7C4644E
:104F50000465C4611E80F0BD44618461012110605C
:104F60000BE0C0E90541486105E08D6975B1C0E914
:104F70000515686188619188491C9180D58889B23E
:104F80008D4200D2D180C2611C80F0BDC0E9051401
:104F900088611060EFE700007403002028BB000860
:104FA00080CE002010B5C269002A15D0002101650D
:104FB0001368834204D14369136033B1996104E0FB
:104FC000D0E90534636103B19C6141618161C161D4
:104FD000C1649088401E908010BD000010B5002074
:104FE0000446064B064A04E003EBC001401CCC809B
:104FF00080B211888842F7D310BD000080CE002017
:1050000028BB00082DE9F05FFBF7B2F84B4D29787B
:10501000491C2970FBF7B0F8FBF760FFDFF820812F
:1050200007464849D8F800004FF00009401CC8F86E
:10503000000009884FF0030AB0FBF1F201FB1200F7
:10504000414980B24FF0040B51F83040DCB394F882
:1050500036006669082851D2DFE800F0500450118C
:1050600050285036E06CD8F80010421A2265884269
:1050700046D184F836902046FFF7BCFD3EE0E06C58
:10508000D8F80010421A2265884239D1C4F85C90E1
:10509000A4F86090FBF722FF20642046FFF747F852
:1050A0002046FFF7A7FD84F8369023E0E06CD8F89F
:1050B0000010421A2265884222D184F836B0204678
:1050C000FFF770FF1AE01BE0E06CD8F80010421AFE
:1050D0002265884214D1C4F85C90A4F86090FBF774
:1050E000FDFE20642046FFF722F82046FFF75AFF16
:1050F00084F836B084F835A084F834903446A5E7B7
:10510000FBF7ECFE1149C01B0A68824200D208601E
:10511000FBF72EF82978491E11F0FF01297008D1FC
:105120000B49098829B1FBF727F8BDE8F05FFFF7C5
:10513000DBB9BDE8F05FFBF71FB800003C030020BF
:105140007403002028BB000880CE002078030020D4
:10515000000300201CB5084C00216B4601AA08463C
:10516000FEF75AF9BDF800000028F5D12078012893
:10517000F2D1FFF747FFEFE7F502002030B5044614
:105180001A4889B00025056019480560FFF788FEB8
:105190001848016841B11849184B0A681B689A42BF
:1051A00005D247F2132008E047F2122005E0144A26
:1051B00013783F2B04D347F21120208009B030BD73
:1051C0000B2305950695CDE907340E4B0968006859
:1051D0001B68CDE90103CDE9031510780090002389
:1051E000094A0AA10E48FDF76BFFE7E774030020A8
:1051F0007803002084BB00088CBB00087CBB00083F
:1052000021BB000888BB00085551000875432F4F8B
:10521000532D494949205469636B205461736B00D5
:10522000E8D6002030B52A4A89B00021294B116008
:10523000294C2A4A1D681DB12468B4FBF5F303E02C
:1052400023680A24B3FBF4F313601A46244B274D5A
:10525000274C1A60234A1160234A1160002206E09D
:1052600005EBC203521C9980D98092B21960238841
:105270009A42F5D31F4B1A6842B11F4A1F4D14685A
:105280002D68AC4205D247F2483108E047F2473179
:1052900005E01B4C25783F2D04D347F246310180B1
:1052A00009B030BD0B2505910691CDE90750106876
:1052B000144A1B681268CDE90301CDE90132207858
:1052C00000900023104A11A11648FDF7F9FEE7E708
:1052D0007C03002098BB000880BB000888030020E6
:1052E0008C030020840300208003002008D10020CC
:1052F0002ABB00089CBB0008A4BB00087CBB0008BC
:1053000022BB0008A0BB0008E953000875432F4FDB
:10531000532D4949492054696D6572205461736B5E
:1053200000000000ACD7002070B5022280F82A20CF
:10533000204A012914681ED0016AE1B11E4A2144A5
:1053400081611288B1FBF2F302FB13121B4B92B284
:1053500003EBC202002315687DB1091BC16111680E
:10536000D1B18D692D1BCD61C669AE420ED90D69D3
:1053700045B12946F5E7416AE0E703614361106002
:1053800001200BE0C0E90431086105E04C6964B11B
:10539000C0E90414206148619088401C9080D18845
:1053A00080B2814200D2D08070BDC0E90413486150
:1053B0001060F1E7840300202ABB000808D1002018
:1053C00010B500200446064B064A04E003EBC0017A
:1053D000401CCC8080B211888842F7D310BD0000F9
:1053E00008D100202ABB00081CB5DFF89090DFF838
:1053F00090A0244DDFF890B000216B4601AA08462A
:10540000FEF70AF86846FDF7F5FCFBF767FD064670
:1054100028684FF00308401C2860B9F80010B0FB62
:10542000F1F201FB120080B25AF83040C4B1A06919
:1054300029682769884213D1204600F027F8208D7B
:10544000022808D084F82A80A26812B12046E168B8
:1054500090473C46EAE701212046FFF765FFF3E766
:10546000FBF73CFD841B6846FDF712FDDBF80010DE
:10547000A142C1D2CBF80040BEE700002ABB000821
:1054800008D10020840300208003002010B5104ABA
:1054900081691288B1FBF2F302FB13110D4A89B244
:1054A00002EBC102002314680169844203D1116038
:1054B00029B14B6103E04469216101B14C610121D3
:1054C00080F82A10036143619088401E908010BDCF
:1054D0002ABB000808D100202DE9F04704F0C8F9E4
:1054E000012873D1774E8046C6F89081322002F0B1
:1054F000E3FA4FF00009C6F89091734D734C287889
:10550000012833D12088000430D471A001F05EFD61
:1055100004F00EFF2878012828D12088000425D423
:105520006CA001F053FD04F003FF287801281DD181
:10553000208800041AD46CA001F048FD04F0F8FEA5
:105540002878012812D1208800040FD467A001F028
:105550003DFD04F0EDFE2878012807D120880004E5
:1055600004D465A001F032FD04F0E2FE644FB87887
:10557000082850D2DFE800F01215233304525241BC
:105580002878012807D12088000404D45DA001F008
:105590001DFD04F0CDFEFBF7BFFC3FE002F0C6FAB4
:1055A0003CE02878012807D12088000404D45EA0BC
:1055B00001F00CFD04F0BCFE01F0B0F82EE02878FC
:1055C000012809D12088000406D400E077E05EA01D
:1055D00001F0FCFC04F0ACFE03F096F81EE0287825
:1055E000012807D12088000404D460A001F0EEFC5B
:1055F00004F09EFE02F092FF10E02878012807D107
:105600002088000404D460A001F0E0FC04F090FEC7
:1056100003F0EEFA02E00A2002F04EFAC6F890819A
:10562000322002F049FAC6F8909187F8019003F011
:105630000BFA287801283ED1208800043BD424A00E
:1056400001F0C4FC04F074FE2878012833D12088CE
:10565000000430D41FA001F0B9FC04F069FE2878E2
:10566000012828D12088000425D41FA001F0AEFC19
:1056700004F05EFE287801281DD1208800041AD489
:105680001AA001F0A3FC04F053FE2878012812D1DF
:10569000208800040FD418A001F098FC04F048FE04
:1056A0002878012807D12088000404D43CA001F008
:1056B0008DFC04F03DFEBDE8F04700F061BDBDE8A3
:1056C000F0870000000022422A000020B2020020E1
:1056D0000D0A0000456D626564646564427265612F
:1056E0006B6572436F726500400000003C2F4D41B6
:1056F000545249583E0000003A7E2320000000002A
:105700003800002044657465637420436F6D6D75C7
:105710006E69636174696F6E20546573742052659D
:1057200071756573740D0A00536F667477617265E5
:1057300020436F6E74726F6C204D43552052657319
:1057400065740D0A000000004E20517565656E20DD
:105750005175657374696F6E204D435520416269C0
:105760006C69747920546573740D0A004D4355209B
:10577000536C6565702F53757370656E6420546546
:1057800073740D0A0000000050726F746F636F6CC9
:105790002053657474696E67205552430D0A0000EA
:1057A0004C6F67204F72646572204578656375742D
:1057B000652046696E69736865642054696D650D7E
:1057C0000A00000010B5042000F07CF8012805D183
:1057D0000420FBF701FD0420FBF7B4FFBDE81040F7
:1057E0004FF48030FBF74CBF3EB500F047F9012184
:1057F000080700F00DF90121084600F021F94FF4E7
:1058000080342046FBF73CFF00208DF804000C207C
:1058100000948DF8050001248DF806406846FBF7DA
:1058200059FF0021E006FCF7CBFC8DF80840022070
:105830008DF809008DF80A408DF80B4002A8FCF79E
:1058400083FCC02000F04EF803480078012800D007
:10585000002000F041F83EBD2C0000200149086204
:105860007047000000000E420748016841F0040143
:105870000160016841F0020101600448016841F0E3
:105880000401016030BF70470070004010ED00E07F
:105890000A4B1A6822F0030202431A6008480268A1
:1058A00042F004020260012905D020BF016821F006
:1058B00004010160704730BFF8E70000007000404D
:1058C00010ED00E0034A0146002052680A4200D071
:1058D00001207047007000400149086170470000D6
:1058E00000000E42034A116821F0E00101431160FB
:1058F00070470000007000400149C1F8A0007047E7
:1059000000000E4270B5234D2878012841D1224C69
:10591000208800043DD421A001F058FB04F008FDCC
:105920002878012835D12088000432D41CA001F049
:105930004DFB04F0FDFC287801282AD120880004C2
:1059400027D41CA001F042FB04F0F2FC28780128C7
:105950001FD1208800041CD417A001F037FB04F0ED
:10596000E7FC2878012814D12088000411D415A060
:1059700001F02CFB04F0DCFC2878012809D12088F8
:10598000000406D411A001F021FBBDE8704004F032
:10599000CFBC70BD2A000020B20200200D0A00001A
:1059A000456D626564646564427265616B657243EE
:1059B0006F726500400000003C2F4D415452495821
:1059C0003E0000003A7E2320000000005054464173
:1059D00054205465737465642046696E6973686504
:1059E000640D0A00034A516821F4404101435160AB
:1059F0007047000000100240044A0029516901D09C
:105A0000014300E0814351617047000000100240F3
:105A1000044A0029D16901D0014300E08143D161EA
:105A20007047000000100240044A0029116901D0AB
:105A3000014300E081431161704700000010024003
:105A4000044A0029916901D0014300E0814391613A
:105A50007047000000100240044A0029D16801D0BC
:105A6000014300E08143D160704700000010024014
:105A700001490860704700004004424210B500F040
:105A80002FF84FF48034204600F0BCF800F020F9E5
:105A9000012823D1002000F0ABF8A01100F0DCF8C1
:105AA000002000F0E3F80220FBF706FF1020FBF7D0
:105AB000F7FE4FF4E011204600F0E8F8012000F076
:105AC000DFF8392000F074F80028FAD0022000F046
:105AD000F5F800BF00F084F80828FBD110BD0000E5
