:020000040800F2
:1000000080DC00204501000869210008C5190008AE
:10001000851E0008890D0008496F000800000000D7
:10002000000000000000000000000000156500084E
:10003000D710000800000000130A00085D01000846
:100040005F010008CD5700085F010008F95E000855
:100050005F0100085F010008691500085F010008E2
:100060005F0100085F0100085F0100085F010008F0
:100070005F0100085F0100085F0100085F010008E0
:100080005F0100085F0100085F0100085F010008D0
:100090005F0100085F0100085F0100088315000888
:1000A0005F0100085F0100085F0100085F010008B0
:1000B0007D6700085F010008116800085F01000803
:1000C0005F0100085F0100085F0100085F01000890
:1000D0005F0100081D6B0008356C00085F01000817
:1000E0005F0100085F0100085F0100085F01000870
:1000F0005F0100085F0100085F0100085F01000860
:100100005F0100085F0100085F0100085F0100084F
:100110005F0100085F0100085F0100085F0100083F
:100120005F0100085F0100085F0100085F0100082F
:10013000DFF80CD000F0C4FB00480047B984000889
:1001400080DC00200648804706480047FEE7FEE7BF
:10015000FEE7FEE7FEE7FEE7FEE7FEE7FEE7FEE777
:100160002D6700083101000872B6704762B670470B
:10017000EFF3108072B6704780F31088704730BF7D
:10018000704720BF7047B0FA80F0704790FAA0F037
:10019000B0FA80F0704790FAA0F070472DE9F05F58
:1001A0000546002092469B468846064681464024E6
:1001B0001BE0284641464746224600F09CFA53463B
:1001C0005A46C01A914110D311461846224600F0F3
:1001D00083FA2D1A67EB01084F46224601200021C1
:1001E00000F07AFA17EB00094E41201EA4F1010439
:1001F000DFDC484631462A464346BDE8F09F80EAA8
:10020000010210B502F00043400022D04A001FD086
:10021000010E01EB1261C0F35600C2F3560240F426
:10022000000042F40002A0FB022000047F39140405
:1002300000D0401C50EA124001D44000491EC2B216
:100240000C0604EBD010401C4008802A02D003E0CA
:10025000002010BD20F00100002900DA0020184322
:1002600010BD2DE9FE4F804681EA0300C00F0C4609
:10027000009021F0004123F00045B8EB0200A941B5
:1002800005D24046214690461C460B46024623F0C6
:100290000040104347D0270DC7F30A00C3F30A51AB
:1002A0000290401A019040286BDAC3F3130040F427
:1002B000801B0098924620B10023D2EB030A63EB27
:1002C0000B0B01985946C0F14002504600F004FA69
:1002D00006460D4650465946019A00F01CFA10EBAE
:1002E00008006141002487EA115284EAE7731A4347
:1002F00040D0009A62B3019A012A4FEA075215DCF6
:10030000001B61EB02014FF0004202EA0752CDE907
:100310000042001C41F5801132462B4600F053FA92
:1003200003B0BDE8F08F40462146F9E7001B61EBC2
:100330000201001C41F5801300185B412018A2F552
:10034000001747EB030140EAD570B6196D4111E083
:100350006D084FEA360645EAC0754FEA0752001BA2
:1003600061EB0201001C41F5801149084FEA3000A1
:100370000019514132462B4603B0BDE8F04F00F062
:1003800013BA0098012240000023D0EB020263EB75
:10039000E073009821464FEAE074B8EB000061EB8F
:1003A0000401E9E783F000435BE781F0004158E78F
:1003B0002DE9FE4F81EA030404F0004421F00041DE
:1003C00000944FF0000B23F0004350EA01045ED08C
:1003D00052EA03045BD0C3F30A54C1F30A552C4418
:1003E000A4F2F3340194A0FB0254C1F3130141F4CD
:1003F0008011C3F3130343F4801301FB024400FB99
:10040000034E840A970A44EA815447EA8357A4FBBF
:10041000076802958D0A05FB07854FEA932C04FBBC
:100420000C542705029D4FEA065847EA1637B5EBEC
:1004300008056EEB070C870E920E47EA811742EA19
:100440008312A7FB0201B6EB0B0164EB00042B0D3A
:1004500043EA0C335E1844EB1C50DA465146E7FB86
:100460000201C5F313044FEA0B3343EA14534FEA76
:100470000432019C43EA0603A4F10C040294009C9C
:10048000CDE900B400F09FF903B0BDE8F08F002083
:100490000146F9E72DE9F04D81EA030404F0004B31
:1004A00021F0004514464FF0000A23F0004150EAC5
:1004B000050220D054EA01021DD0C5F30A570246B6
:1004C000C5F31303C1F31300C1F30A5640F48015BA
:1004D00043F48013A7EB0608101BD64608F2FD383C
:1004E00073EB050002D308F1010801E092185B41AB
:1004F000B8F1000F03DA00200146BDE8F08D0020BE
:100500004FF48011064684460EE0171B73EB050777
:1005100005D3121B63EB050306434CEA010C4908A3
:100520004FEA300092185B4150EA0107EDD152EAE0
:10053000030012D082EA040083EA0501084305D0D3
:10054000101BAB4106D20122002306E000224FF02F
:10055000004302E06FF0010253101AEB06004CEB6F
:10056000085110EB0A0041EB0B01BDE8F04D00F023
:100570001BB90EB5C10F80EAE0700844CA0700211C
:1005800040F233438DE80E000A460B4600F01BF99B
:1005900003B000BD0EB540F2334102910021CDE918
:1005A00000110A460B4600F00EF903B000BD20F022
:1005B0000040C10DC0F3160040F400007F2901DAAD
:1005C00000207047962903DCC1F19601C8407047AE
:1005D000963988407047C1F30A5210B5C1F3130130
:1005E00040F2FF3341F480119A4201DA002010BD3D
:1005F00040F233439A42A2F2334203DC524200F00B
:100600007AF810BD904010BD00F0004230F000407C
:100610000AD0C10D01F56071C0F3160042EA015124
:10062000C208400711437047002001467047000090
:1006300030B5041E71F1000404DB4FF00044404269
:1006400064EB0101141E73F1000405DB1C464FF03E
:100650000043524263EB0403994208BF904230BD0D
:1006600001F0004330B421F0004150EA010206D00D
:100670000A0DA2F56072C1F31301002A02DC30BC3E
:1006800000207047440F44EAC104C100E01830BCA8
:1006900000EBC25000F051B8002801DBC0F100406F
:1006A000002901DBC1F100418142704730B50B46A2
:1006B000014600202022012409E021FA02F59D4292
:1006C00005D303FA02F5491B04FA02F52844151E66
:1006D000A2F10102F1DC30BD202A04DB203A00FA4D
:1006E00002F1002070479140C2F1200320FA03F389
:1006F000194390407047202A04DB203A21FA02F087
:100700000021704721FA02F3D040C2F1200291404B
:10071000084319467047202A06DBCB17203A41FAD6
:1007200002F043EAE07306E041FA02F3D040C2F17E
:10073000200291400843194670470029A8BF70471E
:10074000401C490008BF20F00100704710B4B0FA07
:1007500080FC00FA0CF050EA010404BF10BC7047A2
:1007600049B1CCF1200421FA04F411FA0CF118BFBC
:10077000012121430843A3EB0C01CB1D4FEA00618B
:100780004FEA102042BF002010BC704700EBC3505E
:1007900010440029A4BF10BC7047401C490008BF8A
:1007A00020F0010010BC704710B5141E73F1000456
:1007B00008DA401C41F1000192185B411A4301D153
:1007C00020F0010010BD2DE9F04D92469B4611B17D
:1007D000B1FA81F202E0B0FA80F220329046FFF7DF
:1007E0007BFF04460F4640EA0A0041EA0B015346EC
:1007F0005A46084313D0114653EA010019D0C8F1F4
:1008000040025046FFF777FF05460E4650465946D0
:100810004246FFF761FF084305D0012004E020466F
:100820003946BDE8F08D0020054346EAE0762C43CA
:1008300037430A986305E40AA0EB08000022FD0A8A
:1008400044EA47540A3002D500200146E9E7010591
:1008500010196941DDE9084500196941BDE8F04D0D
:10086000A2E770B521F0004303430CD0C1F30A5551
:100870000024D5EB040564EB0403D617AD1AB3418D
:1008800002DB0020014670BD201841EB025170BD13
:10089000C1F30A52C1F3130140F2FF3341F4801156
:1008A0009A4202DA00200146704740F233439A42EE
:1008B000A2F2334202DC5242FFF71DBFFFF70CBF2A
:1008C000064C074D06E0E06840F0010394E807009D
:1008D00098471034AC42F6D3FFF72EFC20BC00083A
:1008E00040BC00082DE9F04D00231A461B1A8A412E
:1008F00003DB00200146BDE8F08DC1F30A52C1F3CD
:10090000130141F480154FF0000BD10702D10018FC
:100910006D41521E0027044640F2FF11384601EB9C
:10092000620A3E468046024600204FF48011FFF7DF
:10093000E2FEC2197141BB1846EB0100B4EB030C97
:1009400075EB000C04D3E41A65EB000517460E4660
:10095000241908F101006D4180463428E3DDF919BE
:1009600046EB0600091BA84103D24FF0FF321346A5
:1009700001E0002213461BEB070046EB0A51BDE8DD
:10098000F04DFFF711BF70B58C1810F8015B15F032
:10099000070301D110F8013B2A1106D110F8012BF1
:1009A00003E010F8016B01F8016B5B1EF9D12B0716
:1009B00005D40023521E0DD401F8013BFAE710F8CC
:1009C000013BCB1A921C03E013F8015B01F8015BB9
:1009D000521EF9D5A142D8D3002070BD1D484FF654
:1009E000FF710170002080F309881B48016881F3C2
:1009F00008881A484FF08051016062B6FEE7174838
:100A00004FF080510160704714484FF080510160F1
:100A1000704772B6EFF3098028B1203880E8F00FF4
:100A20000F490968086000B50E4880475DF804EB7F
:100A30000D480E490A78027009480D490A6802609B
:100A4000106890E8F00F203080F309884EF0040E13
:100A500062B6704722ED00E09803002004ED00E04C
:100A600090030020B9360008220300202303002051
:100A7000940300200029816802D041F0010101E0C7
:100A800021F00101816070470D4910B5884202D103
:100A9000012144150AE00B49884202D101210415C5
:100AA00004E0094988420AD10121CC03204604F020
:100AB000D7FF2046BDE81040002104F0D1BF10BD93
:100AC0000024014000280140003C01400146002074
:100AD0008968490700D501207047C06C80B2704713
:100AE0000246002012680A4200D0012070470146E9
:100AF00000208968090700D50120704710B54268B9
:100B00000E4B0C791A400B6842EA042213434360EF
:100B100083680B4A1340D1E9024222434C7943EAED
:100B200044031A438260C26A097C22F47002491E9F
:100B3000C9B242EA0151C16210BD0000FFFEF0FFE0
:100B4000FDF7F1FF70B5072409290AD9C568A1F19D
:100B50000A0606EB4606B440A543B3401D43C560F4
:100B600007E0056901EB4106B440A543B3401D43CE
:100B700005611F23072A09D2446B521E02EB820231
:100B800093409C4391400C43446370BD0D2A09D2AD
:100B9000046BD21F02EB820293409C4391400C43B2
:100BA000046370BDC46A0D3A02EB820293409C4319
:100BB00091400C43C46270BD816841F008018160BE
:100BC00070470029816802D041F4A00101E021F4BE
:100BD000A00181607047816841F004018160704725
:100BE00005490028086802D040F4000001E020F424
:100BF00000000860704700000824014010B5002480
:100C00000321002001F024F80321012001F020F845
:100C1000322006F03FFF0321002001F019F80321E4
:100C2000012001F015F8322006F034FF03210020E6
:100C300001F00EF80321012001F00AF8322006F03D
:100C400029FF0321002001F003F80321012000F017
:100C5000FFFF641CE4B2032CD2D310BD10B50120F9
:100C600004F00AFFBDE81040002004F005BF0000BA
:100C700008B5024908440090008808BD006C004097
:100C800008B5024A10440090016008BD006C0040A5
:100C900000B585B0684604F047FF019805B000BD77
:100CA0001FB500230122044910208DE80F00032204
:100CB000014609F0D3F81FBD0010014010B50549E9
:100CC000022000F009F80349BDE810400931032073
:100CD00000F002B8EEAC002070B50C46234909784C
:100CE00001292FD12249097841B12188491C89B2B3
:100CF00021806288914206D8012105E0BDE870405C
:100D0000012100F0A5BF022100F0A2FF00F017FEB4
:100D1000184D4FF4E156B0FBF5F0B6FBF0F0D4F807
:100D20000510B1FBF0F02188401E88420AD1002056
:100D30002080217939B16188491E0904090C61803C
:100D400000D1207170BD6088401C608000F0F7FD0C
:100D5000B0FBF5F0B6FBF0F0D4F80510B1FBF0F005
:100D60006188401E8842EDD10120EAE7B6020020EA
:100D70002800002040420F000022028002714280C1
:100D8000C0F805107047000010B5054C092000F0B0
:100D9000C1F9092000F072FC20780128F6D110BDBD
:100DA000B6020020044910B50020086000F01CF8CD
:100DB000BDE8104000F002B8C802002010B5FFF7EF
:100DC000D7F904461021044801F05DF82046BDE83B
:100DD0001040FFF7D1B9000000BD002001490860B4
:100DE00070470000C802002010B5FFF751FF084906
:100DF0000A6842F080720A60064900224A600A6866
:100E000042F001020A60BDE81040FFF7E7BF0000B2
:100E1000FCED00E0001000E0014840687047000071
:100E2000001000E070B50A4D0024012000F0B8FE6B
:100E3000032802D12878012801D0002070BD641C4D
:100E4000E4B21E2006F026FE642CEED3012070BD15
:100E50003100002070B5234D2878012841D1224C63
:100E6000208800043DD421A006F09EF809F04EFA37
:100E70002878012835D12088000432D41CA006F03F
:100E800093F809F043FA287801282AD12088000431
:100E900027D41CA006F088F809F038FA2878012831
:100EA0001FD1208800041CD417A006F07DF809F09B
:100EB0002DFA2878012814D12088000411D415A017
:100EC00006F072F809F022FA2878012809D1208862
:100ED000000406D411A006F067F8BDE8704009F0E0
:100EE00015BA70BD2A000020AE0200200D0A0000D5
:100EF000456D626564646564427265616B657243E9
:100F00006F726500400000003C2F4D41545249581B
:100F10003E0000003A7E232000000000436F6D6D0C
:100F2000756E69636174696F6E2053756363657371
:100F30007366756C0D0A000001684FF6FE72114071
:100F400001600021016041608160C1603149314A26
:100F50000839904203D1486840F00F0006E02D4A5E
:100F60001432904204D1486840F0F0004860704765
:100F7000284A2832904203D1486840F47060F5E76F
:100F8000244A3C32904203D1486840F47040EDE777
:100F9000204A5032904203D1486840F47020E5E77F
:100FA0001C4A6432904203D1486840F47000DDE787
:100FB000184A7832904203D1486840F07060D5E713
:100FC000154A111F904203D1086840F00F0006E057
:100FD000114A1432904204D1086840F0F0000860D1
:100FE00070470D4A2832904203D1086840F470607F
:100FF000F5E7094A3C32904203D1086840F470405A
:10100000EDE7054A50329042EAD1086840F470207A
:10101000E5E70000080002400804024000B589B07E
:1010200000204FF40051CDE9060180210890CDE960
:1010300002010590049010220548CDE90002054BFD
:1010400000220549012008F0BCFE09B000BD0000E7
:1010500000B10020043801404400024000B589B0CE
:1010600000204FF48051CDE9060180210890CDE9A0
:1010700002010590049010220548CDE90002054BBD
:1010800000220549012008F09CFE09B000BD0000C7
:1010900000B50020044400408000024030B50368E1
:1010A00047F6F07293430C6A8A682243D1E90445FB
:1010B0002C4322438C692243CC6922434C6A22434D
:1010C0008C6A22431A430260CA6842600A688260DE
:1010D0004968C16030BD704710B56FF0040005F07D
:1010E000F4FA094809490068B0FBF1F0C1B20848B8
:1010F00001EB41020170C2EBC1114FF6FF7202EA2F
:10110000C101418010BD00001400002000127A00CF
:10111000AA0200202DE9F04707469C4807709C482A
:101120000078012871D19B4D9B4C2878012833D140
:101130002088000430D499A005F036FF09F0E6F8C5
:101140002878012828D12088000425D494A005F00F
:101150002BFF09F0DBF8287801281DD12088000436
:101160001AD494A005F020FF09F0D0F828780128BF
:1011700012D1208800040FD48FA005F015FF09F0CC
:10118000C5F82878012807D12088000404D48DA050
:1011900005F00AFF09F0BAF88C4E4FF000094FF045
:1011A0000108012F75D0C6F89081322006F072FC3C
:1011B000C6F890910121002000F04AFD0221012093
:1011C00000F046FD2878012807D12088000404D4C7
:1011D0007FA005F0E9FE09F099F80A2F79D2DFE83F
:1011E00007F0786C050D171F2750596128780128E2
:1011F00063D12088000460D47AA05AE028780128BE
:101200005BD12088000458D400E0BCE07BA050E013
:101210002878012851D1208800044ED480A048E0CD
:101220002878012849D12088000446D486A040E0CF
:101230002878012841D1208800043ED48AA005F0F6
:10124000B3FE09F063F89448016894A005F0ACFE81
:1012500009F05CF89048001D016894A005F0A4FE18
:1012600009F054F88C480830016894A005F09CFE01
:1012700009F04CF888481430016894A005F094FEF9
:1012800019E02878012818D12088000415D493A0EB
:101290000FE022E0287801280FD1208800040CD428
:1012A00096A006E02878012807D12088000404D4FD
:1012B00097A005F079FE09F029F8C6F89081322050
:1012C00006F0E8FBC6F890912878012818D056E07F
:1012D000FFE70A2006F0DEFBEFE70221002000F026
:1012E000B7FCC6F89081322006F0D4FBC6F8909186
:1012F00028780128E1D120880004DED488A0D8E72E
:10130000208800043BD425A005F04EFE08F0FEFF27
:101310002878012833D12088000430D420A005F09B
:1013200043FE08F0F3FF2878012828D12088000424
:1013300025D420A005F038FE08F0E8FF2878012821
:101340001DD1208800041AD41BA005F02DFE08F042
:10135000DDFF2878012812D1208800040FD419A0BD
:1013600005F022FE08F0D2FF2878012807D1208856
:10137000000404D475A005F017FE08F0C7FFBDE80F
:10138000F04704F001BFBDE8F0870000B60200207E
:10139000290000202A000020AE0200200D0A0000D3
:1013A000456D626564646564427265616B65724334
:1013B0006F726500400000003C2F4D415452495867
:1013C0003E0000003A7E2320000000000000224280
:1013D0005B214552524F5221214552524F52215DBD
:1013E00020000000456D657267656E637920537457
:1013F0006F702050726573730D0A0000526563654B
:101400006976652044617461204572726F7220575D
:101410006974682050726F746F636F6C0D0A0000FE
:10142000436F6E74726F6C6C657220496E74657276
:101430006661636520566F6C7461676520457272E2
:101440006F720D0A000000004D435520496E6E6515
:10145000722054656D70657261747572652045788F
:10146000636573730D0A00004030584530303045D5
:10147000443238205374617475732D5265676973F3
:101480007465722048617264776172652046617587
:101490006C740D0A0000000028ED00E04346535232
:1014A0003A2009252338780D0A0000004846535297
:1014B0003A2009252338780D0A000000444653528B
:1014C0003A2009252338780D0A000000414653527E
:1014D0003A2009252338780D0A000000496E7075FE
:1014E0007420566F6C74616765204C6F776572204D
:1014F0007468616E203138560D0A00004D43552046
:101500005573616765204661756C740D0A000000B3
:101510004D435520427573204661756C740D0A0069
:101520005B21434C4541522121434C454152215DB1
:10153000204E6F204572726F72206F72204572725A
:101540006F722D436C6561720D0A00004C6F67204D
:1015500045572D52756C657220416374697665201C
:1015600054696D650D0A000010B5012000F024F8E3
:10157000FFF758FC002803D0BDE8104005F0B1B8D3
:1015800010BD10B5012000F00BFB04280DD1022086
:10159000FFF7C0FD022000F071F8012000F000FB11
:1015A0000428FAD00120FFF7B5FDBDE810404FF444
:1015B000807000F001B80000014908607047000029
:1015C000140401401FB50121084604F03DFA022130
:1015D0000020CC010B4A00940390CDE90121024682
:1015E000094B4821082008F039FC0822009201200C
:1015F0001721CDE90110002322460821039008F0AD
:1016000005FC1FBD000C01400002300030B51A4936
:101610008379026853B30B6893430B600A1D136808
:101620000468A343136002790A44136804682343DF
:101630001360114A083213680468A3431360131D32
:101640001C680568AC431C604479102C05D021440B
:101650000A68006802430A6030BD116804682143CB
:101660001160196800680143196030BD00790844B1
:1016700001689143016030BD000401402DE9F04153
:1016800007463E4800240078012874D13C48007881
:10169000012870D13B4E3C4D307801283ED128883E
:1016A00000043BD439A005F07FFC08F02FFE307811
:1016B000012833D12888000430D435A005F074FC0B
:1016C00008F024FE3078012828D12888000425D489
:1016D00034A005F069FC08F019FE307801281DD10E
:1016E000288800041AD430A005F05EFC08F00EFE35
:1016F0003078012812D1288800040FD42DA005F0DD
:1017000053FC08F003FE3078012807D12888000434
:1017100004D42AA005F048FC08F0F8FD2B48C0F8D6
:10172000707129882F46090418D4054605EB8400FA
:10173000D0F8681126A005F037FC08F0E7FD641C1E
:10174000E4B2122CF2D33078012814D13888000486
:1017500011D40EA005F028FC08F0D8FD307801283F
:1017600009D13888000406D408A005F01DFCBDE8A6
:10177000F04108F0CBBDBDE8F08100002E00002054
:10178000330000202A000020AE0200200D0A0000D5
:10179000456D626564646564427265616B65724340
:1017A0006F726500400000003C2F4D415452495873
:1017B0003E0000003A7E23200000000045574620EE
:1017C0004D6573736167653A200000003C0000209E
:1017D000253032786464000004490A6822F010025F
:1017E0000A600A6802430A60704700000020024055
:1017F000034A116801F0380101431160704700008D
:101800000020024010B58A0721F003040649130F97
:1018100021440F228C689A4094438C608A689840D7
:1018200002438A6010BD000000000140F0B5CA7894
:10183000002502F00F03D20601D58A7813430A78F7
:101840004FF00F0E12F0FF0F4FF001021CD0046892
:101850000F8802FA05F63740B74211D14FEA850CDE
:101860000EFA0CF724EA070703FA0CF43C43CF788E
:10187000282F02D0482F02D002E0466100E0066126
:101880006D1C082DE4D304600C88FF2C1ED944681D
:101890005FF0000606F1080702FA07F50F882F40EF
:1018A000AF420FD14FEA860C0EFA0CF7BC4303FA95
:1018B0000CF73C43CF78282F00D14561CF78482FD3
:1018C00000D10561761C082EE4D34460F0BD000011
:1018D000F0B5144C002801DAE36900E06368420DBA
:1018E000120185B2C0F301579540C0F30346032FA0
:1018F00005D0C2020AD50322B240934307E023F089
:101900007062636823F07063636002E0AB4343F08E
:10191000706201B12A43002801DAE261F0BD626021
:10192000F0BD0000000001400246002092680A421B
:1019300000D001207047416170470161704700B5D8
:1019400085B0684604F0F0F8019805B000BD0000CD
:1019500010B50E4801680E480C4A121F016012684B
:101960000A4B4260083B1B6883600A4800780128E4
:101970000AD109480088000406D408A005F014FB29
:10198000BDE8104008F0C2BC10BD0000F0F7FF1F1A
:10199000C01300202A000020AE0200200D0A436878
:1019A00069702053657269616C4E756D2049443AC7
:1019B0002025233038582D253038582D25303858DB
:1019C0000D0A000010B5054C0620FFF7A3FB06200A
:1019D000FFF754FE20780128F6D110BDB602002092
:1019E00070B50A4C0120C4F8B401C4F8BC0104F578
:1019F000DA7406F069F80025A560012006F064F8A5
:101A00002560BDE87040012006F05EB800802142EC
:101A100070B5074C0020C4F8BC010125C4F8B451CE
:101A2000284604F5DA7406F04FF8A56070BD000092
:101A30000080214270B50A4C0125C4F8BC512846EB
:101A400004F5DA7406F040F82560012006F03CF851
:101A500000202060BDE87040012006F035B800008D
:101A60000080214210B50446FFF7BAFF782000F04D
:101A700019F8FFF7DFFF012006F026F8002000F03C
:101A800011F8FFF7D7FF012006F01EF8204600F0FE
:101A900009F8FFF7CFFF012006F016F8BDE8104067
:101AA000FFF7B6BF2DE9F0410025124C0646A846C7
:101AB0000127300602D5C4F8BC7101E0C4F8BC812E
:101AC000012006F001F8C4F8B471012005F0FCFF14
:101AD000C4F8B481072D01D1C4F8BC717006060E9C
:101AE000012005F0F1FF6D1CEDB2082DE1D3BDE83A
:101AF000F08100000080214210B50446FFF770FF1E
:101B00007820FFF7CFFFFFF795FF4020FFF7CAFFD0
:101B1000FFF790FF012005F0D7FF2046FFF7C2FF37
:101B2000FFF788FF012005F0CFFFBDE81040FFF769
:101B30006FBF81070CD16421B0FBF1F201FB1201F0
:101B400041B94FF4C871B0FBF1F201FB120008B1CA
:101B500000207047012070477FB50E4820210024E7
:101B6000CDE9001002250C4ECDE902543346224641
:101B70004821112008F072F9084848F20101CDE926
:101B80000010CDE90254334600224821052008F018
:101B900065F97FBD001001400002300000080140DF
:101BA0002DE9F047DFF8989020214846FFF7BCFE6A
:101BB000244CDFF894804FF40046A51588B13146D7
:101BC0002046FFF7B1FE60B1294647464046FFF781
:101BD000ABFE30B120214846FFF7A6FE012822D0F7
:101BE0002BE01A4F0120C7F89001322007F5C87783
:101BF00005F050FF0020386020214846FFF794FE92
:101C000050B131462046FFF78FFE40B1294640468D
:101C1000FFF78AFE28B110E00120BDE8F08702201E
:101C2000FBE70420F9E731462046FFF77DFE012857
:101C300003D129463846FFF777FE0020EDE7000084
:101C40000010014000080140000C01400000224249
:101C500010B500230124A0B1012828D02E4A022863
:101C60003CD003280CD101294DD002294ED00329A4
:101C700006D1D2F8B00170B35FF00000C2F8B00135
:101C800010BD264801290AD002290BD00329F7D11B
:101C9000D0F8A01149B10021C0F8A01110BDC0F8C2
:101CA000A03110BDC0F8A04110BD0121F4E71C48CF
:101CB00001290AD002290BD00329F5D1D0F88811C7
:101CC00051B10021C0F8881110BDC0F8883110BD95
:101CD000C0F8884110BD1CE00121F3E701290AD0BA
:101CE00002290BD00329F5D1D2F8AC0148B100206C
:101CF000C2F8AC01EEE7C2F8AC31EBE7C2F8AC4198
:101D0000E8E70120F4E7C2F8B031E3E7C2F8B041F8
:101D1000E0E70120B2E7000000002242000021427B
:101D2000008022421FB51A48002481150091CDE998
:101D300001042346032210210420039408F08EF8A6
:101D4000042100911348CDE901040023032210214E
:101D50002020039408F082F84FF4C05100910E48FF
:101D6000CDE901041021002303220846039408F062
:101D700075F841F288310948FEF7FEFF04B00748C4
:101D8000BDE8104041F658310930FEF7F5BF0000BC
:101D9000000801400014014000100140EEAC00209A
:101DA000094810B5007801280DD181020748FFF7D6
:101DB000BBFD002807D10720FFF7ACF9BDE81040B4
:101DC0000720FFF75BBC10BD300000200010014071
:101DD0001FB506490023022208158DE80F001A4698
:101DE0004821102008F03AF81FBD00000010014003
:101DF0007CB50F210A20CDE900011B4C07230122ED
:101E000010211A4805F002FEFEF7C4FB4FF06632BF
:101E1000174BFEF7CDFA4FF02042164BFEF7C5FAEE
:101E20004FF00042144BFEF735FB0022134BFEF738
:101E300018FAFEF715FC054601462068FEF72CFC53
:101E400000D025600E4D2068A8420BDB142005F061
:101E500021FE2068A84205DB0520FFF75BF905207D
:101E6000FFF70CFC20687CBDA40200200024014088
:101E700066664A3F47E1F63FE09C713F000039400B
:101E800000006442FEE70A46002100F04BB9000062
:101E900010B5084C4FF40C620021E06806F01AFC03
:101EA000A0684FF40C42002106F014FC01202074BD
:101EB00010BD00007D0200202DE9F04789464FF655
:101EC000FF71804601EA8907384606F0F3FB6A4C49
:101ED00006466A4D2078012840D1288800043DD468
:101EE00067A005F061F808F011FA2078012835D1D3
:101EF0002888000432D463A005F056F808F006FAEA
:101F0000207801282AD12888000427D462A005F06F
:101F10004BF808F0FBF9207801281FD1288800042D
:101F20001CD45EA005F040F808F0F0F920780128F4
:101F300014D12888000411D45BA005F035F808F00E
:101F4000E5F92078012809D12888000406D43A460A
:101F5000494657A005F028F808F0D8F936B15FEAED
:101F6000080602D02078012841D080E0207801289E
:101F70007DD1288800047AD441A005F015F808F036
:101F8000C5F92078012872D1288800046FD43DA0BB
:101F900005F00AF808F0BAF92078012867D12888F6
:101FA000000464D43CA004F0FFFF08F0AFF92078EF
:101FB00001285CD12888000459D438A004F0F4FF2B
:101FC00008F0A4F92078012851D1288800044ED4C3
:101FD00035A004F0E9FF08F099F92078012846D1EE
:101FE0002888000443D43FA004F0DEFF3DE02888A9
:101FF00000043CD422A004F0D7FF08F087F9207831
:10200000012834D12888000431D41EA004F0CCFF6C
:1020100008F07CF92078012829D12888000426D4EA
:102020001DA004F0C1FF08F071F9207801281ED12D
:10203000288800041BD419A004F0B6FF08F066F944
:102040002078012813D12888000410D416A004F0A9
:10205000ABFF08F05BF92078012808D1288800043C
:1020600005D4314626A004F09FFF08F04FF9304612
:10207000BDE8F04706F014BB2A000020AE020020A5
:102080000D0A0000456D62656464656442726561B5
:102090006B6572436F726500400000003C2F4D413C
:1020A000545249583E0000003A7E232000000000B0
:1020B00041727261792053697A653A202564207CE7
:1020C0002052657175657374204D616C6C6F63206F
:1020D00053706163653A20256462797465730D0AF3
:1020E000000000004D656D6F727920537461636B61
:1020F000204F76657220466C6F770D0A0000000055
:1021000041727261792052657175657374205370E4
:1021100061636520416464726573733A20252338D6
:10212000780D0A0010B500234FEA0304641C41EA4D
:102130000323042CFAD310F0030405D10BE000BFF5
:10214000521E00F8011B641C002A0CD0042CF7D38B
:1021500001E008C0121F042AFBD202E000F8011BB4
:10216000521E002AFAD110BD70474FF4A06000F053
:1021700033B8000070B50F23C47801780122F4B1A0
:10218000144C2468457804F4E064C4F5E064240A3F
:10219000C4F10406E3408478B5401C402C4301F1AF
:1021A000E021230181F80034007800F01F018A400B
:1021B0004009800000F1E020C0F8002170BD01F06E
:1021C0001F0082404809800000F1E020C0F8802113
:1021D00070BD00000CED00E00249084302490860B0
:1021E000704700000000FA050CED00E0024A1140C3
:1021F000014302480160704780FFFF1F08ED00E0C7
:1022000030B40021084B0A465FF0000003EBC00425
:10221000401CC0B262548028F8D3491CC9B20829B6
:10222000F2D330BC00F002BAEEA8002010B50021B5
:10223000AE2000F062FC0021402000F05EFC002196
:10224000812000F05AFC0021CF2000F056FC002134
:10225000A12000F052FC0021C02000F04EFC002123
:10226000A62000F04AFC0021A82000F046FC002136
:102270001F2000F042FC0021D32000F03EFC002192
:10228000084600F03AFC0021D52000F036FC002181
:10229000F02000F032FC0021D92000F02EFC0021BB
:1022A000F12000F02AFC0021DA2000F026FC0021B9
:1022B000022000F022FC0021DB2000F01EFC0021A7
:1022C000492000F01AFC00218D2000F016FC0021AE
:1022D000142000F012FC0021A42000F00EFC0021CC
:1022E000A62000F00AFC0021BDE81040AF2000F05D
:1022F00004BC00000B4810B50078012811D100F093
:10230000BBF94FF49674204605F0C4FBFFF778FF45
:1023100000F0D4F9204605F0BDFBBDE81040FFF702
:102320006FBF10BD2B0000200B4808B501790029B4
:1023300010D0002202710948007800280AD110202C
:10234000009003232021182000F044FBBDE8084042
:1023500000F06CB908BD0000B80200202F0000207A
:10236000094808B5007801280DD105F0C7FB0246E1
:102370001020009002232021502000F02BFBBDE80C
:10238000084000F053B908BD29000020F8B5224DDF
:10239000224C2968A068FEF77FF93BD02D68A56024
:1023A0002846FEF704F9C7B267701D492846FDF7B5
:1023B00026FFFEF7FCF80A26B0FBF6F106FB11003B
:1023C000A07018492846FDF71AFFFEF7F0F8B0FB99
:1023D000F6F106FB1100E07013480078012819D1CE
:1023E000102502233A4630215020009500F0F2FAE1
:1023F00000950123A2783021682000F0EBFA0095C7
:102400000123E2783021702000F0E4FABDE8F840C2
:1024100000F00CB9F8BD0000A4020020B8020020B2
:10242000000020410000C8422D00002038B506F011
:102430001FF90A4C617988420ED006F019F96071D3
:1024400010210246009103233021182000F0C2FA27
:10245000BDE8384000F0EAB838BD0000B8020020FE
:1024600038B5234D202110232A89084600F021FB8E
:102470006A8910232021382000F01BFBAA89102331
:102480002021502000F015FB102000902A88042302
:102490003021002000F09EFA6A8810233021282085
:1024A00000F007FBAA8810233021402000F001FB38
:1024B000E888072812D2DFE800F00406080A0C0EAC
:1024C00010000CA40AE00CA408E00CA406E00CA484
:1024D00004E00CA402E00CA400E00CA410232246AB
:1024E0003021602000F0BAFABDE8384000F09EB814
:1024F000E0A8002053756E004D6F6E0054756500A6
:102500005765640054687500467269005361740031
:1025100070B57F2814D83F2912D801F00703094D60
:10252000C3F1070407260123A340A6EBD10105EB65
:10253000C000002A425C01D01A4300E09A43425492
:1025400070BD0000EEA800201FB54FF4204200200F
:1025500000920849CDE9011003460390032214219B
:10256000082007F07BFCFFF761FEBDE81F40FFF786
:1025700047BE0000000C014070B5284800780028D4
:102580004BD00020FFF70CFB0025254C02280BD177
:10259000A07908B1A57101E00120A071E5600020DB
:1025A000FFF7FEFA0228FAD00020FFF7F9FA012817
:1025B0000BD12078401CC0B22070042800D12570B7
:1025C0000020FFF7EDFA0128FAD0A079002824D0E6
:1025D000FFF7B5F91349B0FBF1F04FF4E151B1FB4E
:1025E000F0F01149B1FBF0F0E168401E884204D0E0
:1025F0000020FFF7D5FA01280CD1E5602078401CB7
:10260000C0B22070042800D125700020FFF7C8FA5E
:102610000128FAD0E068401CE06070BD280000206E
:10262000B802002040420F00404B4C0070B5114EE4
:10263000002400BF04F1B000C0B2002100F05DFA38
:102640000021042000F059FA0021102000F055FA72
:102650005FF0000506EBC5000121005D00F04DFABA
:102660006D1CEDB2802DF5D3641CE4B2082CE1D3CF
:1026700070BD0000EEA8002010B5102307A2202195
:10268000082000F0EBF9102308A23021082000F008
:10269000E5F9BDE81040FFF7C9BF0000456D626570
:1026A00064646564427265616B65000044657665CB
:1026B0006C6F70436F72654B6974000010B5102326
:1026C00007A22021082000F0C9F9102308A2302118
:1026D000082000F0C3F9BDE81040FFF7A7BF0000D5
:1026E0003C2F4D41545249583E404E64416E0000CB
:1026F00053797374656D2052756E6E696E67000054
:102700007CB53D4801788DF8001041788DF80110B6
:1027100081788DF80210B0F80310ADF803104179FC
:102720008DF8051081798DF80610C0798DF80700B5
:10273000DDE9000103F0EEFA304D202110232A8953
:10274000084600F0B6F910232DA22021302000F019
:1027500085F96A8910232021382000F0AAF9102376
:1027600027A22021482000F079F9AA8910232021EE
:10277000502000F09EF9102000902A880423302178
:10278000002000F027F910231EA23021202000F0A5
:1027900065F96A8810233021282000F08AF9102377
:1027A00018A23021382000F059F9AA8810233021CE
:1027B000402000F07EF9E888072812D2DFE800F018
:1027C0000406080A0C0E10000FA40AE00FA408E08B
:1027D0000FA406E00FA404E00FA402E00FA400E0A1
:1027E0000FA4102322463021602000F037F9BDE805
:1027F0007C40FFF71BBF000092020020E0A80020F1
:102800003A0000002F00000053756E004D6F6E00FF
:102810005475650057656400546875004672690018
:102820005361740038B5102337A22021002000F036
:1028300015F910240323002220211820009400F011
:10284000C9F83248007801280DD1102330A2202188
:10285000382000F003F92F48009402230278202149
:10286000502000F0B7F810232BA23021002000F0F8
:10287000F5F805F0FDFE02460323302118200094F0
:1028800000F0A8F825480078012839D1102324A2A7
:102890003021382000F0E2F8FFF7AAFAFDF787FEB2
:1028A0000246022330215020009400F093F81023B8
:1028B0001CA23021602000F0D1F8FFF799FA1A49E4
:1028C000FDF79DFCFDF773FE0A25B0FBF5F105FB56
:1028D0001102012330216820009400F07BF8FFF7FB
:1028E00087FA1249FDF78BFCFDF761FEB0FBF5F1AD
:1028F00005FB1102012330217020009400F06AF8DA
:10290000BDE83840FFF792BE435055002900002033
:1029100045570000B60200204D454D002D00002017
:10292000495444002E000000000020410000C8422D
:102930002DE9FF4F203A1F460C46894602F0FF0A58
:102940000025DDF834B03AE00C2F04D0102F06D06B
:10295000182F08D00DE00AEB4A001B4906E01B497E
:1029600001EB0A1004E01A490AEBCA0001EB8000EF
:10297000465D4FF00808300601D55A4603E0BBF12A
:10298000000F12D0002221460098FFF7C1FD70060B
:10299000641C060EE4B2A4EB0900B84207D100980B
:1029A0004C46401CC0B2009007E00122EBE7A8F1C2
:1029B0000100C0B25FEA0008DDD16D1CEDB2BD427E
:1029C000C2D3BDE8FF8F00003CA30008B0A70008F9
:1029D000A0AD00082DE9FF4F81B00026DDF838A03A
:1029E0001D469346814634464FF001084FEA5A0788
:1029F0002DE0281B401EFDF7BCFD02460B460020C3
:102A0000154906F00BFAFDF7E6FDBBFBF0F00A21D5
:102A1000B0FBF1F201FB120026B9691E8C4201DA0B
:102A200048B101263030C2B207FB0490C0B2534611
:102A3000CDF8008006E007FB0490C0B25346202288
:102A4000CDF800800299FFF773FF641CE4B2AC423A
:102A5000CFD305B0BDE8F08F000024402DE9F84F3A
:102A600004461F468020A0EB5709402016460D461D
:102A7000A0EB57084FF0010A16E0A14502D200244E
:102A8000E819C5B2A84503D200242546FFF7B8FBD4
:102A9000CDF800A032783B4629462046FFF748FF94
:102AA00004EB5700C4B2761C30780028E5D1BDE8AD
:102AB000F88FF8B51C4615460F4606460A2A0CD272
:102AC000012300220094FFF785FF06EB5400C0B2FB
:102AD00001232A463946009401E000930223FFF7C0
:102AE00079FFF8BD10B5FFF71FFCFFF739FCFFF7C2
:102AF0009DFCBDE81040FFF749BC09B1FEF7FCBFE3
:102B0000FEF7B0BF7047000002480068002800D000
:102B100000477047E002002010B5044600F0BEF800
:102B2000464800210A22017045480170454801705D
:102B300045480160454801604548017045480170BD
:102B400045480170454801604548016045480160BD
:102B50004548017045480068B0FBF2F0444A1060F7
:102B6000444A106830B14448006818B1126802C085
:102B7000521EFCD14148016041480160414801605A
:102B8000414801604148016041480160414801609D
:102B90004148017001F06EFB01F006FC204600F098
:102BA000B1FE2088002847D1204601F06DF9208829
:102BB000002841D1204601F08BF9208800283BD124
:102BC000204601F00DFA2088002835D1204601F07A
:102BD0007DFB208800282FD1204601F009FD2088A8
:102BE000002829D1204601F023FF2088002823D186
:102BF000204601F0AFF8208800281DD1204600F0C3
:102C000057FF2088002817D1204602F0BBFA208801
:102C1000002811D1204601F069FE208800280BD140
:102C2000204602F003FB2088002805D100F068FE52
:102C3000BDE81040FFF766BF10BD0000F4020020A1
:102C4000F50200203C0300209003002094030020A4
:102C5000220300202303002024030020300300204F
:102C60003403002038030020440300205CBB00082C
:102C70004003002034BB000830BB0008D402002011
:102C8000D8020020DC020020E0020020E402002044
:102C9000E8020020EC0200207203002005480649EB
:102CA0000068096800EB8100044920F00700086013
:102CB0007047000030BB000834BB000898030020B8
:102CC0002DE9F05F05462C48DDE90A8600781F46AD
:102CD00014468B4610B145F2B9600EE045F2BB6078
:102CE0005CB1022F01D2401C07E045F2C161B8F18E
:102CF000040F08D314F0030F02D03080BDE8F09F1A
:102D000018F0030F01D03180F8E77A1E93B2214604
:102D1000002205E001EB08000860521C014692B257
:102D20009A42F7D34FF0000AC1F800A0FDF720FA4D
:102D3000DFF8489099F80010491C89F80010FDF759
:102D40001BFA0F4885E81108EC60AF826F82A5F886
:102D50001080284601F08AF80A490888401C08803B
:102D6000FDF706FA99F80010491E89F80010FDF7E2
:102D700003FAA6F800A0C1E7F40200203C030020FB
:102D80004D454D2018030020154810B50078002847
:102D900024D114480078002820D1FDF7E9F9044631
:102DA00001F056FA10490870104900EB400051F844
:102DB00020000F4908600F490968884209D050F87F
:102DC000901F491C01600C480168491C0160FDF717
:102DD00016FE2046BDE81040FDF7CEB910BD00003C
:102DE000F40200203C0300202303002034D3002001
:102DF00094030020900300206803002070B504466F
:102E00001048007810B146F6625019E00E4800787C
:102E1000012802D045F6896012E00C4D2878FA2886
:102E200002D345F209200BE0FDF7A2F90646287807
:102E3000401C287001F07EFB3046FDF79DF9002014
:102E4000208070BDF4020020F50200203C03002029
:102E50002DE9F04115460C460746FDF789F90B4967
:102E60000026012F01D00E7001E001220A700849EE
:102E70000CB10C6005E0074A0A231268B2FBF3F2BA
:102E80000A60FDF779F92E80BDE8F0814403002047
:102E9000400300205CBB000870B50446154800786C
:102EA00010B146F6655023E013480078012802D09F
:102EB00045F689601CE0114D287870B1FDF758F98E
:102EC00006462878401E10F0FF00287008D03046D3
:102ED000FDF752F946F663500AE046F6645007E003
:102EE00001F036FB3046FDF747F9FFF74DFF0020B4
:102EF000208070BDF4020020F50200203C03002079
:102F000070B50F4D0446287818B145F68A602080C8
:102F100070BD01F09DF90B4908700B4908700B4911
:102F200000EB400051F82000094908600949086099
:102F300001202870FDF752FD43F69920E7E70000D5
:102F4000F5020020230300202203002034D30020B8
:102F500094030020900300202DE9F0410646FDF780
:102F600007F9244900240C6023490C8023490C8074
:102F700023490C6023490C6023490C6023490C60F1
:102F800023490C81FDF7F8F8FDF7F2F821490D68A7
:102F900016E000BFFDF7ECF8C5F8B44045F8784FEF
:102FA00007462C63AC61AC82EC826C62AC62FDF7CC
:102FB00033FF45F8200FA5F1340084816D6A38464F
:102FC000FDF7DAF8002DE5D1FDF7D2F812490D68CA
:102FD00004E000BFFDF7CCF8AC85AD69FDF7CCF897
:102FE000002DF7D101F0FEFF02F0EEF93480BDE8CC
:102FF000F08100000803002002030020520300209B
:1030000064030020780300208003002034030020A4
:1030100028D300206C03002028030020F8B50446C4
:1030200069461E4800F01EFBBDF8000028BB6A463A
:103030000021022000F06CFBBDF80000E8B9FDF7AC
:1030400097F8174E00253560FDF796F81549164894
:103050000A6803689A4202D9B2FBF3F010B90A2158
:10306000B2FBF1F06A46002100F052FB69460B48C2
:1030700000F0A0F9BDF8000008B12080F8BDFDF710
:1030800077F80A490A4A0D6031681160094A01213E
:103090001170FDF771F82580F8BD0000BCD7002045
:1030A000540300205CBB000844BB000864030020FC
:1030B000580300206003002002480068002800D068
:1030C00000477047E40200202DE9FF4F83B004461B
:1030D0006148DDE91785DDE910960078DDF854A038
:1030E000139F10B147F24A102AE04CB1059850B135
:1030F00066B15A48006887420BD246F630601FE03E
:1031000047F2AD101CE047F24F1019E046F62F6071
:1031100016E01298B84202D346F6316010E046F24B
:103120007320B9F1400F0BD25FEA090103D0B9F166
:103130003F0F02D008E04A4900E04A498C4203D0E0
:10314000288007B0BDE8F08F204601F081FC4FF0E9
:10315000000BA5F800B05FEAC8700AD05FEA88707B
:1031600007D5304600215A4601E004C0491CB94247
:10317000FBD31298CDE9007806EB8005DDE9050167
:103180002B46324600F034FA0599A1620699E162B5
:103190000499216284F83790C4F854A0A560206097
:1031A0005FEA0A003AD0A0651698A763666260607D
:1031B000A4F83C800020594604EB8002401CD167F3
:1031C00010F0FF00F8D004F16400149900F0BEFE86
:1031D000204600F053F8FCF7CBFF234D2978491C1B
:1031E0002970FCF7C9FF94F8370001F04FF820462A
:1031F00001F020F9204601F0EDFB1C490888401C35
:1032000008801B48007801281AD0FCF7B1FF297804
:10321000491E11F0FF01297003D00CE01548006829
:10322000C1E71549098831B1FCF7A6FF07B0BDE831
:10323000F04F01F05DB907B0BDE8F04FFCF79CBF5F
:10324000FCF796FF2978491E2970FCF795FF07B017
:10325000BDE8F04FFFF798BDF402002058BB00080E
:1032600064D20020A0D100203C0300207003002085
:10327000F5020020400300200003002002490968F5
:10328000002900D008477047D402002070B50446DA
:103290003D480E46007810B147F24E100AE03B4818
:1032A000844202D147F24C1004E03948844203D1F1
:1032B00047F24D10088070BD2CB9FCF759FF354915
:1032C0000C68FCF759FFFCF753FF334D2978491C74
:1032D0002970FCF751FF94F8360008283ED2DFE849
:1032E00000F004080C0C1C080C0C204601F0D6F869
:1032F00013E0204601F05AFE0FE0204601F056FE92
:1033000094F83400072808D2DFE800F00704070427
:1033100004040400204600F00EFF04F1640000F0F5
:10332000FBFD204600F03EF8204601F065FB1B49FE
:103330000888401E0880204601F08AFBFF2084F8A0
:103340003600FCF715FF2978491E2970FCF714FF99
:1033500000203080BDE87040FFF716BDFCF708FF85
:103360002978491E11F0FF01297007D10C490988FD
:1033700021B1FCF701FF01F0BBF801E0FCF7FCFE16
:1033800046F62D60308070BDF4020020A0D10020F0
:1033900064D20020900300203C0300207003002032
:1033A0000003002002490968002900D0084770473F
:1033B000D80200207FB50D460446FCF7D9FE1CB1AB
:1033C000104909688C4205D1FCF7D6FE47F2571028
:1033D00028807FBDFCF7D0FE0B48007858B1002054
:1033E000CDE90205009003460246019021460748B8
:1033F00000F092FB7FBD04B029462046BDE8704036
:1034000001F00ABC90030020F402002054524553FE
:1034100002490968002900D008477047DC020020F3
:103420002DE9F04782464A4814461E4600788846F1
:1034300010B146F2AE1006E0080006D0B1F5004F1C
:1034400003D045F62560188035E0002704B12760D9
:10345000FCF78EFE3F4D81462968486CC8B1401E7E
:10346000804648640CB1086C2060FDF7D5FC2968E3
:103470000A6C801AC1F8A400D1F8A820824201D2B7
:10348000C1F8A8004846FCF777FE37804046BDE803
:10349000F0875FEA084005D54846FCF76DFE46F226
:1034A000B01007E02C48017839B14846FCF764FEBB
:1034B00046F6635030800020E9E78046012088F816
:1034C00000004846FCF758FE0021534607220846F4
:1034D00000F092FDFCF74CFE98F80010491E88F8A9
:1034E0000010FCF749FEFFF74FFCFCF741FE804659
:1034F000286890F8351031B1012916D003291AD067
:1035000046F62E601BE074B1006C2060FDF784FC71
:1035100029680A6C801AC1F8A400D1F8A820824258
:1035200001D2C1F8A80037800AE00CB1006C20601D
:1035300046F2A91003E004B1276047F2D920308099
:103540002868446C4046FCF717FE20469FE70000C1
:10355000F4020020900300203C0300202DE9F041FC
:103560000546214816460F4600781C4610B147F222
:10357000591007E046F2D52027B11EB1FCF7F8FD3F
:103580001DB104E01880BDE8F08118490D684FF0C6
:103590000008296841B195F83C10C9070DD0FCF727
:1035A000EBFD0020696A14E0FCF7E6FDC7F8008037
:1035B00047F25210C6F8008007E0FCF7DDFDC7F8BF
:1035C000008047F25410C6F800802080DBE7401CE2
:1035D000091D0A68002AFAD03860A96B081A306001
:1035E000A4F80080CFE70000F40200209003002040
:1035F00010B5029C02EB840222F007024FF08074A7
:1036000042E90204164842F80C0C4FF0123042F81E
:10361000100CA2F114004FF0023240E903134FF0F6
:10362000113140F8101CD10040F8141C4FF0093142
:1036300040F8181C910040F81C1C4FF007314FF067
:10364000033440F8201C610040F8241C4FF0053181
:1036500040F8281D5100C0E9092440F8041D10BDA0
:10366000D54C00081FB5104A904202D147F25B10BA
:1036700004E00E4A904203D147F25C1008801FBD5F
:103680000B4A127852B10022CDE902210146009284
:1036900013460192074800F03FFA1FBD04B0BDE891
:1036A000104001F0ADBB0000A0D1002064D200208A
:1036B000F402002054535553114810B5006800B16E
:1036C0008047FDF7A9FB0F490F4A0968126891422C
:1036D00009D0D1F89830C31AC1F89430D1F89C4081
:1036E0002344C1F89C30C2F89800084AD1F8B4309D
:1036F0001068834201D2C1F8B4000020106010BDF0
:10370000E8020020900300209403002038030020EA
:103710002DE9F041074626480E461546007810B1BF
:1037200047F2752030E0234C207810B146F6635004
:103730002AE046B1022E06D0042E05D0082E02D073
:1037400045F6256020E0EFB1FCF712FD2178491C19
:103750002170FCF711FDDFF8608001212B46D8F8BD
:103760000000324680F83610394601F0B3FB288855
:1037700068B1FCF7FDFC2178491E2170BDE8F041DD
:10378000FCF7FABC47F27E201080BDE8F081D8F843
:10379000000000F083FEFCF7EBFC2178491E21704D
:1037A000FCF7EAFCFFF7F0FA00202880EDE70000C4
:1037B000F40200203C030020900300202DE9F04794
:1037C0004B4EDDE90854367816B147F2752088E093
:1037D000DFF820A19AF8006016B146F6635080E049
:1037E00015F00E0647F27E2945F6256705D0022E14
:1037F00003D0042E05D0082E06D113B90AB901B999
:10380000F0B335F01E0C02D02780BDE8F087C5F379
:10381000001547F2792C47F278284FF47A7735B1C2
:1038200042F20F75A94211D9A4F800C0EDE7BB42DE
:1038300002D347F27B2054E03B2A02D947F27A2098
:103840004FE03B29F0D8632802D804E0B84202D305
:10385000A4F80080D9E7284D4FF4FA7CC1EB0111A0
:103860002D68BCFBF5FC63446B43B3FBF7F34FF4EB
:103870006167784300EB8100104400FB053700E0EE
:1038800031E087B3FCF774FC9AF800105546491CE8
:103890008AF80010FCF770FCDFF8608001212346F5
:1038A000D8F80000324680F83610394601F012FB95
:1038B000208840B1FCF75CFC2978491E2970BDE8DE
:1038C000F047FCF759BCD8F8000000F0E7FDFCF722
:1038D0004FFC2978491E2970FCF74EFCFFF754FA7B
:1038E0000020208091E7FFE7A4F800908DE700001A
:1038F000F40200203C0300205CBB00089003002081
:1039000070470000034A00211160034A11800180C2
:10391000704700000C030020100300202DE9F04741
:103920009A4690460D460446089FFCF721FC5FEA44
:10393000080120D0012907D0B1F5004F1BD06FF44A
:10394000004218EB020F11D1216AA943C4E9081AF9
:10395000218A04F108064FF0000979B1374D297822
:10396000491C2970FCF708FC36683FE0FCF704FCB2
:1039700045F625605EE0216A2943E7E7FCF7FCFB9A
:10398000A7F80090206ABDE8F08790F88810766864
:1039900001F00F01012918D002291ED004290AD0F4
:1039A00008290DD0FCF7E4FB2978491E11F0FF012E
:1039B000297033D03AE0216AD0F88020114009E024
:1039C000216AD0F8802011400BE0D0F88010236AE3
:1039D0000A4699438A4205D007E0D0F88010226A4F
:1039E000914311B1524600F02DF816B1B06800288D
:1039F000CBD1FCF7BDFB2978491E2970FCF7BCFB35
:103A00005FEA084001D4FFF7BFF9FCF7B1FB246A75
:103A1000FCF7B2FBA7F800902046B4E708490988F4
:103A200021B1FCF7A9FB00F063FD01E0FCF7A4FB6A
:103A300043F6FF2038800020A5E700003C0300206B
:103A40000003002070B50025C0F8841080F83550C0
:103A500080F834500446026490F8360008280ED2EC
:103A6000DFE800F00D0D04040D0D0A0A204601F0F8
:103A7000C5F884F8365002E0042084F83600204669
:103A8000BDE8704000F057BB074C084DFCF770FBD9
:103A90002168491C21602968491C2960FCF76CFBDE
:103AA000FFF732F8F2E70000F00200205403002094
:103AB00000B50E4A89B0002111600B2205910691D4
:103AC000CDE907200A480B4A0B4B006812681B68B7
:103AD0000292CDE903013F20CDE900030023074A0C
:103AE00007A10C48FFF7F0FA09B000BDF002002072
:103AF00010BB00080CBB000808BB0008893A00088E
:103B000075432F4F532D4949492049646C65205412
:103B100061736B00A0D100202DE9F05F1E46DDE946
:103B20000AAB90460F4681460D9CFCF721FB0546EB
:103B30001C481D4A0188128891422BD2491C89B227
:103B400001801A4802888A4200D201801849086818
:103B5000C0F80090C0E902780682C0F814A0A0F86E
:103B600018B00C9AC26140680860124801210181B6
:103B7000114901604160002000F088FB0F48007887
:103B800008B10F490870002020802846BDE8F05F8A
:103B9000FCF7F2BA0B490888401C088044F25360D5
:103BA000F2E700000003002000BB00080203002031
:103BB000F802002034D3002064D200202203002029
:103BC00024030020040300203EB5374C374B02A9E4
:103BD00020680268D51A9A4245D015DC344BD218B9
:103BE0002DD0344BD21822D0334BD21832D0334B95
:103BF000DA4208D1C269CDE90021038B028AC1688B
:103C0000806800F085FF3EBD2D4AAA181ED02D4BBE
:103C1000D21824D02C4BDA42F5D1C269CDE900216B
:103C2000038B028AC168806800F05CFB3EBD009196
:103C3000028BC36941698068FFF770FE3EBD018B4E
:103C4000C269806802AB00F0DFFC3EBD806800F016
:103C5000E3FF3EBD018BC269806802AB21E0806852
:103C600001F0CEF83EBD19481949007800EB40003C
:103C700001EB800000F08AFC206802AB0021C269E1
:103C8000144801F033F814480168491E0160E9D175
:103C9000124909680160FDF7BFF8024602AB002136
:103CA0000F4801F023F83EBDFC0200205449434B6D
:103CB000ADBAB2BE0DF90BFAF2F8F7FF0006F6FF47
:103CC00000F7FDF700FFEFFF03FE0FFE24030020C7
:103CD00034D30020F8D600208C0300208803002075
:103CE000BCD70020174D184C184E00BFFCF740FA07
:103CF00007462088C8B13846FCF73EFAFDF78CF835
:103D00000746FFF761FFFDF787F82968C01B81426E
:103D100000D22860FCF72CFA3168496831602188AC
:103D2000491E2180FCF728FAE0E7094900200881B4
:103D30000860486000F0BAFA3846FCF71DFAFFF751
:103D400023F8D1E70803002000030020FC02002034
:103D500034D30020F0B52F492F4D89B000220A80BE
:103D6000296831B12D4E3188022905D244F25461BF
:103D700035E044F2526132E029490023294F0A60BC
:103D8000296801F1200410E041F8087B5B1C41F830
:103D9000082B9BB241F8042C21F8102B41F80C2C75
:103DA00021F8082C41F81C4C2034B6F800C06345BB
:103DB000EAD32B6841F81C3C1B490B601B490B6084
:103DC0001B490A801B490A801B490B6853B11B4BD6
:103DD0001B4D1C682D68AC4207D244F2566101802D
:103DE00009B0F0BD44F25561F9E70324059206924B
:103DF000CDE907401868134B09681B68CDE9030239
:103E00000092CDE9011300230F4A10A11648FFF7D5
:103E10005BF9E5E70403002018BB000800BB0008BD
:103E2000080300204E4F4E45F8020020FC020020FF
:103E3000000300200203002020BB000828BB00086C
:103E400058BB000824BB0008E53C000875432F4F11
:103E5000532D4949492049535220517565756520B4
:103E60005461736B0000000064D20020054B0022F7
:103E70008261196819B1C161886118607047C261B7
:103E8000FBE7000014030020034A00211160034AED
:103E900011800180704700001403002018030020E7
:103EA00010B5491E8CB2002200F11003114608E043
:103EB000E0E80231521C20F8081B92B240F8041CC2
:103EC0001033A242F4D3016041600181C16010BD92
:103ED00070B50E4E0446306880B10D4D288880B113
:103EE00081B23068FFF7DCFF0A4831680160298839
:103EF00081800021C1800181218070BD45F21E704A
:103F000001E045F21D70208070BD000040BB00083C
:103F100002BB000828D3002010B5428992B10A499B
:103F200003680C681C6043680B60CB8844891B1BCA
:103F3000CB808B88448923448B80002141818181FF
:103F400001604160104610BD28D30020018100218E
:103F5000418181810160416070470000F0B5448972
:103F6000DDE905E70589AC4202D346F293501EE035
:103F70001A4DAE88CEB12C68761ED4F800C0C5F8B4
:103F800000C0AE80EE88761CB6B2EE80B5F808C0F0
:103F9000B44500D22E814689002556B1DB060CD4EB
:103FA00003681C60256004600AE045F21D703880DB
:103FB000F0BD04600123446004E043682360446072
:103FC00043895B1C438186899BB29E4200D28381D8
:103FD00061602281C4F80CE03D80F0BD28D3002050
:103FE000034A00211160034A1180018070470000DC
:103FF0001C030020200300202DE9F041114D07464D
:104000000C4628680026194680F8342080F8356070
:1040100000F0CAFC64B1FC6004F1080601223946D4
:10402000286800F011F83946304600F057F802E0F1
:104030002868C687066320462968BDE8F04100F07D
:104040001BB800009003002010B5C287002423464F
:1040500001630EE04B6041F8103B641C41F8103BDB
:10406000A4B241F80C3C21F8083C41F8043C41F86A
:10407000180C9442EED310BD38B14268C1F8C0208C
:1040800081688968096AC161704791F83400022823
:1040900003D0072803D004A002E004A000E005A09C
:1040A000C1F8C00070470000200000005461736B2D
:1040B000205100005461736B2053656D00000000B7
:1040C00005A2C1F8C020816811B18968096A00E0C1
:1040D00001A1C161704700002000000030B58A686E
:1040E000002392F8374002891AB1521C02810268FB
:1040F0000BE0012202814B600B60016014E09568C7
:1041000095F83750A54203D85268002AF7D107E046
:1041100032B1146854B1C1E900426160116030BD30
:104120004B6042680A605160416030BD1160C1E976
:104130000032016030BD70B50646C48F056B07E0E4
:10414000E8682946083000F009F8641EA4B220355A
:10415000002CF5D10020F087306370BD10B50289C6
:104160000023012A0BD00A6862B14C6874B1546014
:1041700022600289521E02814B600B6010BD0360F9
:104180004360F6E74A6813600260F2E753604260FA
:10419000EFE7F8B50C46064691F83610002506986C
:1041A00008293BD2DFE801F03A3A04043A3A2020E9
:1041B00094F83410032911D0E265A4F8603020642B
:1041C00036B12046FFF7B7FF21463046FFF778FFAC
:1041D000204600F013FD84F836501BE00090214685
:1041E000304600F022F8EBE794F83410032916D09B
:1041F000E265A4F860302064204600F0D7FE36B1B6
:104200002046FFF798FF21463046FFF759FF04206C
:1042100084F8360084F8355084F83450F8BD0090A6
:104220002146304600F001F8E6E770B50C6B049DBE
:10423000C98F0AE0E668864204D1C4E904022383F8
:10424000E56170BD491E89B220340029F2D170BDEC
:1042500010B50024064802E02034E4B2001D0168D5
:104260000029F9D00846FBF78EFF2044C0B210BDEC
:10427000CC02002000200449024600BF41F8202063
:10428000401C0228FAD37047CC02002000F01F0225
:1042900041090120C2F11F029040034A52F8213027
:1042A000034342F821307047CC02002000F01F0287
:1042B00041090120C2F11F029040034A52F8213007
:1042C000834342F821307047CC020020034A00218A
:1042D0001160034A1180018070470000280300200C
:1042E0002C0300202DE9FF4F83B01F46DDE9109A13
:1042F00093460646FBF73CFF294C2178491C217068
:10430000FBF73AFF358A06F108001DB1B90525D53E
:10431000006831E0F80601D4002300E01023CDE965
:10432000009A5A4606F120000499FFF717FEFBF7A2
:104330001FFF2178491E11F0FF01217009D1194991
:10434000098831B1FBF718FF07B0BDE8F04F00F066
:10435000CFB807B0BDE8F04FFBF70EBF00680125EE
:104360005B46D0E90181CDF800903046049AFFF712
:1043700010FF6D1E4046ADB2002DF1D1FBF7F8FEE7
:104380002178491E2170FBF7F7FE380401D4FEF7AF
:10439000FBFC0021AAF8001007B0BDE8F08F000078
:1043A0003C030020000300200020074B014600BF13
:1043B00000EB400203EB8202401C11811160C0B28D
:1043C00051604028F4D3704734D3002010B5044620
:1043D00090F83700FFF75AFF074994F8370009783B
:1043E0008842204603D1BDE8104000F023B8BDE864
:1043F000104000F003B800002203002090F83710AE
:104400000B4A01EB410102EB810100220B8943B110
:104410005B1C0B810B68C0E903320A6810610860FD
:10442000704701230B81C2600261086048607047D9
:1044300034D3002090F837100A4A01EB410102EB17
:10444000810100220B893BB15B1C0B81C2604A6871
:104450000261D0604860704701230B81C260026135
:104460000860F7E734D3002010B50289002A14D081
:10447000012A12D00021022A07D0D0E90024D368F3
:104480001961C2E90314E26005E0D0E90023C2E942
:104490000313C3E90321C0E9003210BD70B505461E
:1044A00090F83700114900EB400001EB8001D5E99D
:1044B0000302002442B10B895B1E0B81D06090B1D6
:1044C00002612C61EC6070BD28B10A89521E0A811C
:1044D00004610860F5E70C810C604C6095F83700CA
:1044E000FFF7E4FEEDE74A60EBE7000034D300207D
:1044F00010B5FBF73DFE0B490446002008700B4841
:104500000949016051F8900F401C08600848016893
:10451000491C0160FCF773FA2046BDE81040FBF728
:104520002BBE00002303002064D20020940300204F
:1045300068030020044810B50078012803D1FCF777
:104540006BFC0249086010BD3C03002030030020D2
:104550000A4810B5007800280ED1FCF75DFC084928
:104560000968401A07490A68824200D20860064971
:104570000A68824200D2086010BD00003C0300209F
:1045800030030020340300203803002070B50446B7
:1045900013480078012822D1FBF7EAFD216805467F
:1045A00041B11048814218D08A6D3AB1521E8A65D5
:1045B00013D103E0BDE87040FBF7DEBD208902287F
:1045C0000BD30948007840B92046FFF74DFF20681B
:1045D000416D09B90549096881652846EAE770BD5A
:1045E00044030020A0D100203C0300204003002011
:1045F000034A00211160034A1180018070470000C6
:10460000480300204C0300202DE9F84F1E46904639
:1046100089460446FBF7ACFD0146208A04F10807F1
:104620004FF0000B78B1DFF890A008469AF8002010
:10463000521C8AF80020FBF79FFD5FEA895018D5CD
:104640003D893F6822E0256A681C0AD06D1CC4E9D8
:1046500008580846FBF790FDA6F800B02846BDE8CC
:10466000F88F0846FBF788FD46F6C55030800020DD
:10467000F5E73F6801250023B9687F681A462046A0
:10468000CDF80080FFF785FD6D1EADB2002DF2D193
:10469000246AFBF76DFD9AF80020521E8AF800206C
:1046A000FBF76AFD5FEA094001D4FEF76DFBA6F84F
:1046B00000B02046D3E700003C0300201CB57A4C34
:1046C0007A4E2068450004E028466A460021FFF73C
:1046D0001FF830780128F7D16846FEF73DFC744892
:1046E00022680168914204D9B1FBF2F15FEA010945
:1046F00003D100680A21B0FBF1F9DFF8B8B1DFF8A7
:10470000B88142F2107A0026FCF786FB0190FBF795
:104710002FFD6A496A4C0A6822600E60FBF72CFD87
:104720006848236802689A422BD96748824202D2BD
:104730005046012115E06548824203D24FF47A7059
:104740000A210EE06248824202D26420014608E05B
:104750006048824203D20A204FF47A7101E00120BE
:104760005146B2FBF1F15843B0FBF1F1AAEB010065
:10477000594980B2ABF800000A88824203D208800F
:1047800001E0ABF800A0FEF797FC0024FBF7F0FC7B
:10479000D8F8005024E000BFFBF7EAFC4F4F39780F
:1047A000491C3970FBF7E8FCD5F89C00C5E9276087
:1047B000FBF7DEFC3978491E11F0FF01397007D193
:1047C0004749098821B1FBF7D7FCFFF791FE01E0CB
:1047D000FBF7D2FC55F8A00F0444FBF7C9FCED69C8
:1047E000FBF7CAFC002DD7D1F4B13748844202D27E
:1047F0005546012015E03548844203D24FF47A75BE
:104800000A200EE03248844202D26425284608E09D
:104810003048844203D20A254FF47A7001E0012522
:104820005046B4FBF0F701E000250127FBF7A0FCA0
:10483000D8F800401CE000BFD4F8A0006843B0FBEB
:10484000F7F080B2504500D95046A4F88C00B4F877
:104850008E10814201D2A4F88E0004F1AC026B46A6
:10486000111D2046FEF77AFEFBF782FCD4F8BC400F
:10487000FBF782FC002CDFD11A480178012903D113
:1048800006706846FEF768FBFCF7C6FA0199401A05
:1048900015490A68824200D208606A4600214846EB
:1048A000FEF736FF30E7000044BB0008600300203D
:1048B0005CBB0008500300206C0300205403002060
:1048C0005C03002058030020801A060000093D0008
:1048D000005A62020084D717520300203C030020D4
:1048E000000300204E0300206403002030B51D4A61
:1048F00089B0002111601C4A11601C4A11601C4AD9
:1049000011701C4A11701C4A136843B11B4B1C4D9B
:104910001C682D68AC4205D246F62C6108E046F6CC
:104920002B6105E0174C25783F2D04D346F62A610C
:10493000018009B030BD032505910691CDE90750EE
:1049400011481B6812680068CDE90120CDE90331E8
:104950002078009000230D4A0DA11248FEF7B4FB09
:10496000E7E70000540300205C0300205803002008
:10497000600300204E03002048BB000850BB000825
:1049800058BB0008FCBA00084CBB0008BD46000834
:1049900075432F4F532D4949492053746174205456
:1049A00061736B0034D6002038B50446022531B15E
:1049B0006B46022200F08EFABDF8000028B184F8A0
:1049C00036502046FFF76AFD38BD032084F83600D4
:1049D000F7E70000074B0022C0F8B820196829B19A
:1049E000C0F8BC10C1F8B80018607047C0F8BC200F
:1049F000FAE700006C030020D0E92E2100234AB121
:104A000081B1C2F8BC10C1F8B820C0F8BC30C0F801
:104A1000B8307047054A116009B1C1F8B830C0F824
:104A2000BC307047C2F8BC30F1E700006C030020D6
:104A3000044A00211160044A1180044A1160018077
:104A4000704700006C030020700300206803002002
:104A500070B50025056085604560C56005614561EC
:104A60000446856127A0C4E907506562A562E56236
:104A70002564E565A4F86050294604F16400FFF759
:104A800065FA6567A567C4F88050A4F888500020CF
:104A9000C4F8845004EB8001401CCD6710F0FF0087
:104AA000F8D06564C4F8A450C4F8A850A56384F88D
:104AB0008A50C4F8B050C4F8AC50A5874FF00040FD
:104AC000C4E9120525656565A565A4F88C50A4F8B0
:104AD0008E50C4F89050C4F894503434FCF79CF9CC
:104AE000C4E91905C4F8805004F8015B402004F8BB
:104AF000015B04F8015B04F8810B04A020C4C4E945
:104B0000005070BD3F5461736B0000002000000036
:104B10002DE9FC5F9946DDE90C7692468B46054609
:104B2000FBF726FB324C2178491C2170FBF724FB54
:104B30000DB9304805680020308095F83600DFF860
:104B4000B88008283CD2DFE800F004041E1E0404EC
:104B50001E1ECDE900764B465246594605F16400CB
:104B6000FFF7FCF9FBF704FB2178491E11F0FF0168
:104B7000217021D1B8F80010F1B1FBF7FDFABDE8C2
:104B8000FC5FFFF7B5BC95F834000228E1D153462D
:104B90005A46294600200097FFF7FBFAFBF7E8FA90
:104BA0002178491E2170FBF7E7FA5FEA09401CD41F
:104BB000BDE8FC5FFEF7E8B8BDE8FC5FFBF7DCBAD8
:104BC000FBF7D6FA2178491E11F0FF01217007D1B9
:104BD000B8F8001021B1FBF7CFFAFFF789FC01E02C
:104BE000FBF7CAFA46F62D603080BDE8FC9F000056
:104BF0003C030020900300200003002010B5044671
:104C000000F0D4F994F83600400704D42046BDE8FB
:104C10001040FFF7DBBB10BD70B50D460446FBF737
:104C2000A7FA00262E8094F8361008294AD2DFE829
:104C300001F0040404040A23333DFBF79DFA47F214
:104C40005310288024E0224D2978491C2970FBF755
:104C500093FA94F88A00401E10F0FF0084F88A004E
:104C600004D184F836602046FFF7C8FFFBF780FACE
:104C70002978491E297009E094F88A10491E11F01C
:104C8000FF0184F88A1001D1012118E0FBF774FAC2
:104C9000BDE87040FEF778B894F88A10491E11F00C
:104CA000FF0184F88A10F1D1022108E094F88A10FB
:104CB000491E11F0FF0184F88A10E7D1032184F81E
:104CC0003610E3E7FBF758FA46F62D60288070BDF2
:104CD0003C030020044808B50068FEF799FB6946CC
:104CE0000020FEF7D3FA08BD900300202DE9F84F0D
:104CF000984615468A460646FBF73AFA3D4C217817
:104D0000491C2170FBF738FA0EB93B4806680020B1
:104D10003A4F3564A8F8000096F8360046F6C559B3
:104D200008284ED2DFE800F026262222262622225C
:104D3000FBF722FAFFF7DCFB02E000BFFBF71CFAEF
:104D4000A8F800900020BDE8F88F6D1C7564FBF793
:104D50000FFA2178491E11F0FF0121702ED13988F8
:104D600061B3FBF709FAFFF7C3FB40E096F83400A4
:104D700007280ED0756C681CE7D1FBF7F9F921788C
:104D8000491E11F0FF012170D8D139880029D5D0F2
:104D9000CEE700231A46314618460095FFF7F9F989
:104DA000756CFBF7E5F92178491E2170FBF7E4F9F2
:104DB0005FEA0A401BD4FDF7E7FF18E0FBF7DCF9D8
:104DC00015E0FBF7D5F92178491E11F0FF0121709C
:104DD00006D1398821B1FBF7CFF9FFF789FB01E054
:104DE000FBF7CAF946F62D60A8F800000025284612
:104DF000A9E700003C0300209003002000030020EE
:104E00002DE9F0410F460446FBF7B2F9244904B9F5
:104E10000C680968234D8C4206D1297821B1FBF733
:104E2000ABF946F6635038E00021398094F836102B
:104E3000012608292DD2DFE801F004171F212727BA
:104E400027272978491C2970FBF796F9042084F854
:104E5000360084F88A602046FFF720FBFBF788F9CC
:104E60002978491E297001E0052108E0FBF784F943
:104E7000BDE8F041FDF788BF062100E0072184F876
:104E8000361084F88A60F1E714F88A1F491C2170F3
:104E9000ECE7FBF771F946F62D603880BDE8F0814C
:104EA000900300203C03002010B500200146074C71
:104EB000074B06E004EBC002401C11609180D180DA
:104EC00080B21A889042F5D310BD000090CE002029
:104ED00004BB0008F0B5324C47F27E26256800245A
:104EE000042A08D0B1B32E4E082A36680E440BD0DF
:104EF000C0E9136115E04A1B521E12F5803F2AD803
:104F0000521CC0E913120CE0826C0A44571B7F1E2E
:104F10008F4201D2C26400E0C664C16C4A1B0265C4
:104F20008164204AC16C1288B1FBF2F602FB1611B3
:104F30001D4A89B202EBC102918889B11168F1B1B1
:104F4000CE6C761B0E65076DB74212D94E6966B1FD
:104F50003146F5E7FFE7C4640465C4611E80F0BD17
:104F600044618461012110600BE0C0E905414861A2
:104F700005E08D6975B1C0E90515686188619188A2
:104F8000491C9180D58889B28D4200D2D180C261FE
:104F90001C80F0BDC0E9051488611060EFE70000D7
:104FA0007403002004BB000890CE002010B5C26935
:104FB000002A15D0002101651368834204D143699A
:104FC000136033B1996104E0D0E90534636103B142
:104FD0009C6141618161C161C1649088401E908083
:104FE00010BD000010B500200446064B064A04E040
:104FF00003EBC001401CCC8080B211888842F7D3FB
:1050000010BD000090CE002004BB00082DE9F05F29
:10501000FBF7AEF84B4D2978491C2970FBF7ACF82B
:10502000FBF7FAFEDFF8208107464849D8F8000070
:105030004FF00009401CC8F8000009884FF0030A2F
:10504000B0FBF1F201FB1200414980B24FF0040BBA
:1050500051F83040DCB394F836006669082851D224
:10506000DFE800F05004501150285036E06CD8F8BA
:105070000010421A2265884246D184F836902046B4
:10508000FFF7BCFD3EE0E06CD8F80010421A226544
:10509000884239D1C4F85C90A4F86090FBF7BCFE5C
:1050A00020642046FFF747F82046FFF7A7FD84F865
:1050B000369023E0E06CD8F80010421A226588424E
:1050C00022D184F836B02046FFF770FF1AE01BE0CB
:1050D000E06CD8F80010421A2265884214D1C4F856
:1050E0005C90A4F86090FBF797FE20642046FFF7E1
:1050F00022F82046FFF75AFF84F836B084F835A02E
:1051000084F834903446A5E7FBF786FE1149C01BAE
:105110000A68824200D20860FBF72AF82978491E03
:1051200011F0FF01297008D10B49098829B1FBF75B
:1051300023F8BDE8F05FFFF7DBB9BDE8F05FFBF7F0
:105140001BB800003C0300207403002004BB0008CF
:1051500090CE002078030020000300201CB5084CEE
:1051600000216B4601AA0846FEF75AF9BDF8000077
:105170000028F5D120780128F2D1FFF747FFEFE7AB
:10518000F502002030B504461A4889B000250560B4
:1051900019480560FFF788FE1848016841B11849B1
:1051A000184B0A681B689A4205D247F2132008E0A0
:1051B00047F2122005E0144A13783F2B04D347F23C
:1051C0001120208009B030BD0B2305950695CDE94F
:1051D00007340E4B096800681B68CDE90103CDE96F
:1051E0000315107800900023094A0AA10E48FDF724
:1051F0006BFFE7E7740300207803002060BB000822
:1052000068BB000858BB0008FDBA000864BB000872
:105210005D51000875432F4F532D4949492054696A
:10522000636B205461736B00F8D6002030B52A4AB6
:1052300089B00021294B1160294C2A4A1D681DB1F3
:105240002468B4FBF5F303E023680A24B3FBF4F30A
:1052500013601A46244B274D274C1A60234A1160CD
:10526000234A1160002206E005EBC203521C99801C
:10527000D98092B2196023889A42F5D31F4B1A68DD
:1052800042B11F4A1F4D14682D68AC4205D247F247
:10529000483108E047F2473105E01B4C25783F2DA7
:1052A00004D347F24631018009B030BD0B2505918A
:1052B0000691CDE907501068144A1B681268CDE9C1
:1052C0000301CDE90132207800900023104A11A19A
:1052D0001648FDF7F9FEE7E77C03002074BB0008E1
:1052E0005CBB0008880300208C030020840300209E
:1052F0008003002018D1002006BB000878BB0008FE
:1053000080BB000858BB0008FEBA00087CBB000840
:10531000F153000875432F4F532D494949205469D3
:105320006D6572205461736B00000000BCD70020D3
:1053300070B5022280F82A20204A012914681ED064
:10534000016AE1B11E4A214481611288B1FBF2F386
:1053500002FB13121B4B92B203EBC202002315682F
:105360007DB1091BC1611168D1B18D692D1BCD6162
:10537000C669AE420ED90D6945B12946F5E7416AC5
:10538000E0E703614361106001200BE0C0E90431F4
:10539000086105E04C6964B1C0E90414206148610A
:1053A0009088401C9080D18880B2814200D2D08009
:1053B00070BDC0E9041348611060F1E78403002068
:1053C00006BB000818D1002010B500200446064B8B
:1053D000064A04E003EBC001401CCC8080B2118877
:1053E0008842F7D310BD000018D1002006BB00088A
:1053F0001CB5DFF89090DFF890A0244DDFF890B056
:1054000000216B4601AA0846FEF70AF86846FDF738
:10541000F5FCFBF701FD064628684FF00308401C29
:105420002860B9F80010B0FBF1F201FB120080B265
:105430005AF83040C4B1A06929682769884213D15D
:10544000204600F027F8208D022808D084F82A8012
:10545000A26812B12046E16890473C46EAE7012184
:105460002046FFF765FFF3E7FBF7D6FC841B684691
:10547000FDF712FDDBF80010A142C1D2CBF80040CD
:10548000BEE7000006BB000818D1002084030020FE
:105490008003002010B5104A81691288B1FBF2F335
:1054A00002FB13110D4A89B202EBC10200231468FA
:1054B0000169844203D1116029B14B6103E0446961
:1054C000216101B14C61012180F82A10036143611F
:1054D0009088401E908010BD06BB000818D10020A7
:1054E0002DE9F04704F0B2F9012873D1774E8046D8
:1054F000C6F89081322002F0CDFA4FF00009C6F8CC
:105500009091734D734C2878012833D12088000482
:1055100030D471A001F048FD04F0F8FE287801288D
:1055200028D12088000425D46CA001F03DFD04F0B2
:10553000EDFE287801281DD1208800041AD46CA023
:1055400001F032FD04F0E2FE2878012812D1208813
:1055500000040FD467A001F027FD04F0D7FE2878DF
:10556000012807D12088000404D465A001F01CFDA7
:1055700004F0CCFE644FB878082850D2DFE800F081
:1055800012152333045252412878012807D120886C
:10559000000404D45DA001F007FD04F0B7FEFBF7A2
:1055A00059FC3FE002F0B0FA3CE02878012807D12E
:1055B0002088000404D45EA001F0F6FC04F0A6FEEE
:1055C00001F09AF82EE02878012809D120880004FB
:1055D00006D400E077E05EA001F0E6FC04F096FE61
:1055E00003F080F81EE02878012807D12088000405
:1055F00004D460A001F0D8FC04F088FE02F07CFF27
:1056000010E02878012807D12088000404D460A085
:1056100001F0CAFC04F07AFE03F0D8FA02E00A2096
:1056200002F038FAC6F89081322002F033FAC6F858
:10563000909187F8019003F0F5F9287801283ED180
:10564000208800043BD424A001F0AEFC04F05EFEF0
:105650002878012833D12088000430D41FA001F01D
:10566000A3FC04F053FE2878012828D120880004E8
:1056700025D41FA001F098FC04F048FE28780128EA
:105680001DD1208800041AD41AA001F08DFC04F06A
:105690003DFE2878012812D1208800040FD418A0DC
:1056A00001F082FC04F032FE2878012807D120881E
:1056B000000404D43CA001F077FC04F027FEBDE810
:1056C000F04700F061BDBDE8F08700000000224215
:1056D0002A000020AE0200200D0A0000456D626520
:1056E00064646564427265616B6572436F726500E4
:1056F000400000003C2F4D41545249583E000000EC
:105700003A7E2320000000003800002044657465C4
:10571000637420436F6D6D756E69636174696F6E3C
:10572000205465737420526571756573740D0A0099
:10573000536F66747761726520436F6E74726F6C1D
:10574000204D43552052657365740D0A000000001A
:105750004E20517565656E205175657374696F6E65
:10576000204D4355204162696C69747920546573FA
:10577000740D0A004D435520536C6565702F5375A9
:105780007370656E6420546573740D0A0000000028
:1057900050726F746F636F6C2053657474696E67B9
:1057A000205552430D0A00004C6F67204F7264650C
:1057B0007220457865637574652046696E69736803
:1057C00065642054696D650D0A00000010B5042061
:1057D00000F07CF8012805D10420FBF79BFC042095
:1057E000FBF74CFFBDE810404FF48030FBF7E4BE00
:1057F0003EB500F047F90121080700F00DF901213D
:10580000084600F021F94FF480342046FBF7D4FE1F
:1058100000208DF804000C2000948DF80500012470
:105820008DF806406846FBF7F1FE0021E006FCF724
:10583000DDFC8DF8084002208DF809008DF80A4043
:105840008DF80B4002A8FCF795FCC02000F04EF844
:1058500003480078012800D0002000F041F83EBD48
:105860002C000020014908627047000000000E4231
:105870000748016841F004010160016841F002013C
:1058800001600448016841F00401016030BF7047C5
:105890000070004010ED00E00A4B1A6822F003028D
:1058A00002431A600848026842F0040202600129BB
:1058B00005D020BF016821F004010160704730BFAE
:1058C000F8E700000070004010ED00E0034A0146D8
:1058D000002052680A4200D001207047007000404A
:1058E000014908617047000000000E42034A116838
:1058F00021F0E0010143116070470000007000409A
:105900000149C1F8A000704700000E4270B5234D58
:105910002878012841D1224C208800043DD421A0C0
:1059200001F042FB04F0F2FC2878012835D12088F0
:10593000000432D41CA001F037FB04F0E7FC287807
:1059400001282AD12088000427D41CA001F02CFBB8
:1059500004F0DCFC287801281FD1208800041CD426
:1059600017A001F021FB04F0D1FC2878012814D104
:105970002088000411D415A001F016FB04F0C6FC29
:105980002878012809D12088000406D411A001F04C
:105990000BFBBDE8704004F0B9BC70BD2A000020CC
:1059A000AE0200200D0A0000456D62656464656406
:1059B000427265616B6572436F7265004000000062
:1059C0003C2F4D41545249583E0000003A7E23205E
:1059D00000000000505446415420546573746564BF
:1059E0002046696E69736865640D0A00034A516850
:1059F00021F4404101435160704700000010024013
:105A0000044A0029516901D0014300E081435161FA
:105A10007047000000100240044A0029D16901D0FB
:105A2000014300E08143D161704700000010024053
:105A3000044A0029116901D0014300E0814311614A
:105A40007047000000100240044A0029916901D00B
:105A5000014300E081439161704700000010024063
:105A6000044A0029D16801D0014300E08143D1609C
:105A700070470000001002400149086070470000B4
:105A80004004424210B500F02FF84FF48034204615
:105A900000F0BCF800F020F9012823D1002000F02C
:105AA000ABF8A01100F0DCF8002000F0E3F80220D1
:105AB000FBF79EFE1020FBF78FFE4FF4E01120460F
:105AC00000F0E8F8012000F0DFF8392000F074F869
:105AD0000028FAD0022000F0F5F800BF00F084F8AA
